{
  "_format": "hh-sol-artifact-1",
  "contractName": "Lazy",
  "sourceName": "contracts/Lazy.sol",
  "abi": [
    {
      "inputs": [],
      "stateMutability": "nonpayable",
      "type": "constructor"
    },
    {
      "anonymous": false,
      "inputs": [
        {
          "indexed": true,
          "internalType": "address",
          "name": "owner",
          "type": "address"
        },
        {
          "indexed": true,
          "internalType": "address",
          "name": "approved",
          "type": "address"
        },
        {
          "indexed": true,
          "internalType": "uint256",
          "name": "tokenId",
          "type": "uint256"
        }
      ],
      "name": "Approval",
      "type": "event"
    },
    {
      "anonymous": false,
      "inputs": [
        {
          "indexed": true,
          "internalType": "address",
          "name": "owner",
          "type": "address"
        },
        {
          "indexed": true,
          "internalType": "address",
          "name": "operator",
          "type": "address"
        },
        {
          "indexed": false,
          "internalType": "bool",
          "name": "approved",
          "type": "bool"
        }
      ],
      "name": "ApprovalForAll",
      "type": "event"
    },
    {
      "anonymous": false,
      "inputs": [
        {
          "indexed": true,
          "internalType": "bytes32",
          "name": "role",
          "type": "bytes32"
        },
        {
          "indexed": true,
          "internalType": "bytes32",
          "name": "previousAdminRole",
          "type": "bytes32"
        },
        {
          "indexed": true,
          "internalType": "bytes32",
          "name": "newAdminRole",
          "type": "bytes32"
        }
      ],
      "name": "RoleAdminChanged",
      "type": "event"
    },
    {
      "anonymous": false,
      "inputs": [
        {
          "indexed": true,
          "internalType": "bytes32",
          "name": "role",
          "type": "bytes32"
        },
        {
          "indexed": true,
          "internalType": "address",
          "name": "account",
          "type": "address"
        },
        {
          "indexed": true,
          "internalType": "address",
          "name": "sender",
          "type": "address"
        }
      ],
      "name": "RoleGranted",
      "type": "event"
    },
    {
      "anonymous": false,
      "inputs": [
        {
          "indexed": true,
          "internalType": "bytes32",
          "name": "role",
          "type": "bytes32"
        },
        {
          "indexed": true,
          "internalType": "address",
          "name": "account",
          "type": "address"
        },
        {
          "indexed": true,
          "internalType": "address",
          "name": "sender",
          "type": "address"
        }
      ],
      "name": "RoleRevoked",
      "type": "event"
    },
    {
      "anonymous": false,
      "inputs": [
        {
          "indexed": true,
          "internalType": "address",
          "name": "from",
          "type": "address"
        },
        {
          "indexed": true,
          "internalType": "address",
          "name": "to",
          "type": "address"
        },
        {
          "indexed": true,
          "internalType": "uint256",
          "name": "tokenId",
          "type": "uint256"
        }
      ],
      "name": "Transfer",
      "type": "event"
    },
    {
      "inputs": [],
      "name": "DEFAULT_ADMIN_ROLE",
      "outputs": [
        {
          "internalType": "bytes32",
          "name": "",
          "type": "bytes32"
        }
      ],
      "stateMutability": "view",
      "type": "function"
    },
    {
      "inputs": [],
      "name": "MINTER_ROLE",
      "outputs": [
        {
          "internalType": "bytes32",
          "name": "",
          "type": "bytes32"
        }
      ],
      "stateMutability": "view",
      "type": "function"
    },
    {
      "inputs": [
        {
          "internalType": "address",
          "name": "to",
          "type": "address"
        },
        {
          "internalType": "uint256",
          "name": "tokenId",
          "type": "uint256"
        }
      ],
      "name": "approve",
      "outputs": [],
      "stateMutability": "nonpayable",
      "type": "function"
    },
    {
      "inputs": [],
      "name": "availableToWithdraw",
      "outputs": [
        {
          "internalType": "uint256",
          "name": "",
          "type": "uint256"
        }
      ],
      "stateMutability": "view",
      "type": "function"
    },
    {
      "inputs": [
        {
          "internalType": "address",
          "name": "owner",
          "type": "address"
        }
      ],
      "name": "balanceOf",
      "outputs": [
        {
          "internalType": "uint256",
          "name": "",
          "type": "uint256"
        }
      ],
      "stateMutability": "view",
      "type": "function"
    },
    {
      "inputs": [
        {
          "internalType": "uint256",
          "name": "tokenId",
          "type": "uint256"
        }
      ],
      "name": "getApproved",
      "outputs": [
        {
          "internalType": "address",
          "name": "",
          "type": "address"
        }
      ],
      "stateMutability": "view",
      "type": "function"
    },
    {
      "inputs": [
        {
          "internalType": "bytes32",
          "name": "role",
          "type": "bytes32"
        }
      ],
      "name": "getRoleAdmin",
      "outputs": [
        {
          "internalType": "bytes32",
          "name": "",
          "type": "bytes32"
        }
      ],
      "stateMutability": "view",
      "type": "function"
    },
    {
      "inputs": [
        {
          "internalType": "bytes32",
          "name": "role",
          "type": "bytes32"
        },
        {
          "internalType": "address",
          "name": "account",
          "type": "address"
        }
      ],
      "name": "grantRole",
      "outputs": [],
      "stateMutability": "nonpayable",
      "type": "function"
    },
    {
      "inputs": [
        {
          "internalType": "bytes32",
          "name": "role",
          "type": "bytes32"
        },
        {
          "internalType": "address",
          "name": "account",
          "type": "address"
        }
      ],
      "name": "hasRole",
      "outputs": [
        {
          "internalType": "bool",
          "name": "",
          "type": "bool"
        }
      ],
      "stateMutability": "view",
      "type": "function"
    },
    {
      "inputs": [
        {
          "internalType": "address",
          "name": "owner",
          "type": "address"
        },
        {
          "internalType": "address",
          "name": "operator",
          "type": "address"
        }
      ],
      "name": "isApprovedForAll",
      "outputs": [
        {
          "internalType": "bool",
          "name": "",
          "type": "bool"
        }
      ],
      "stateMutability": "view",
      "type": "function"
    },
    {
      "inputs": [],
      "name": "name",
      "outputs": [
        {
          "internalType": "string",
          "name": "",
          "type": "string"
        }
      ],
      "stateMutability": "view",
      "type": "function"
    },
    {
      "inputs": [
        {
          "internalType": "uint256",
          "name": "tokenId",
          "type": "uint256"
        }
      ],
      "name": "ownerOf",
      "outputs": [
        {
          "internalType": "address",
          "name": "",
          "type": "address"
        }
      ],
      "stateMutability": "view",
      "type": "function"
    },
    {
      "inputs": [
        {
          "internalType": "address",
          "name": "redeemer",
          "type": "address"
        },
        {
          "internalType": "uint256",
          "name": "tokenId",
          "type": "uint256"
        },
        {
          "internalType": "uint256",
          "name": "minPrice",
          "type": "uint256"
        },
        {
          "internalType": "bytes",
          "name": "signature",
          "type": "bytes"
        }
      ],
      "name": "redeem",
      "outputs": [
        {
          "internalType": "uint256",
          "name": "",
          "type": "uint256"
        }
      ],
      "stateMutability": "payable",
      "type": "function"
    },
    {
      "inputs": [
        {
          "internalType": "bytes32",
          "name": "role",
          "type": "bytes32"
        },
        {
          "internalType": "address",
          "name": "account",
          "type": "address"
        }
      ],
      "name": "renounceRole",
      "outputs": [],
      "stateMutability": "nonpayable",
      "type": "function"
    },
    {
      "inputs": [
        {
          "internalType": "bytes32",
          "name": "role",
          "type": "bytes32"
        },
        {
          "internalType": "address",
          "name": "account",
          "type": "address"
        }
      ],
      "name": "revokeRole",
      "outputs": [],
      "stateMutability": "nonpayable",
      "type": "function"
    },
    {
      "inputs": [
        {
          "internalType": "address",
          "name": "from",
          "type": "address"
        },
        {
          "internalType": "address",
          "name": "to",
          "type": "address"
        },
        {
          "internalType": "uint256",
          "name": "tokenId",
          "type": "uint256"
        }
      ],
      "name": "safeTransferFrom",
      "outputs": [],
      "stateMutability": "nonpayable",
      "type": "function"
    },
    {
      "inputs": [
        {
          "internalType": "address",
          "name": "from",
          "type": "address"
        },
        {
          "internalType": "address",
          "name": "to",
          "type": "address"
        },
        {
          "internalType": "uint256",
          "name": "tokenId",
          "type": "uint256"
        },
        {
          "internalType": "bytes",
          "name": "_data",
          "type": "bytes"
        }
      ],
      "name": "safeTransferFrom",
      "outputs": [],
      "stateMutability": "nonpayable",
      "type": "function"
    },
    {
      "inputs": [
        {
          "internalType": "address",
          "name": "operator",
          "type": "address"
        },
        {
          "internalType": "bool",
          "name": "approved",
          "type": "bool"
        }
      ],
      "name": "setApprovalForAll",
      "outputs": [],
      "stateMutability": "nonpayable",
      "type": "function"
    },
    {
      "inputs": [
        {
          "internalType": "bytes4",
          "name": "interfaceId",
          "type": "bytes4"
        }
      ],
      "name": "supportsInterface",
      "outputs": [
        {
          "internalType": "bool",
          "name": "",
          "type": "bool"
        }
      ],
      "stateMutability": "view",
      "type": "function"
    },
    {
      "inputs": [],
      "name": "symbol",
      "outputs": [
        {
          "internalType": "string",
          "name": "",
          "type": "string"
        }
      ],
      "stateMutability": "view",
      "type": "function"
    },
    {
      "inputs": [
        {
          "internalType": "uint256",
          "name": "tokenId",
          "type": "uint256"
        }
      ],
      "name": "tokenURI",
      "outputs": [
        {
          "internalType": "string",
          "name": "",
          "type": "string"
        }
      ],
      "stateMutability": "view",
      "type": "function"
    },
    {
      "inputs": [
        {
          "internalType": "address",
          "name": "from",
          "type": "address"
        },
        {
          "internalType": "address",
          "name": "to",
          "type": "address"
        },
        {
          "internalType": "uint256",
          "name": "tokenId",
          "type": "uint256"
        }
      ],
      "name": "transferFrom",
      "outputs": [],
      "stateMutability": "nonpayable",
      "type": "function"
    },
    {
      "inputs": [],
      "name": "withdraw",
      "outputs": [],
      "stateMutability": "nonpayable",
      "type": "function"
    }
  ],
  "bytecode": "0x6101406040523480156200001257600080fd5b50604051806040016040528060048152602001634e616d6560e01b815250604051806040016040528060058152602001640312e302e360dc1b8152506040518060400160405280600781526020016613185e9e53919560ca1b815250604051806040016040528060038152602001622620ad60e91b8152508160009080519060200190620000a292919062000156565b508051620000b890600190602084019062000156565b5050825160208085019190912083518483012060e08290526101008190524660a0818152604080517f8b73c3c69bb8fe3d512ecc4cf759cc79239f7b179b0ffacaa9a75d522b39400f81880181905281830187905260608201869052608082019490945230818401528151808203909301835260c0019052805194019390932091935091906080523060601b60c05261012052506200023992505050565b8280546200016490620001fc565b90600052602060002090601f016020900481019282620001885760008555620001d3565b82601f10620001a357805160ff1916838001178555620001d3565b82800160010185558215620001d3579182015b82811115620001d3578251825591602001919060010190620001b6565b50620001e1929150620001e5565b5090565b5b80821115620001e15760008155600101620001e6565b600181811c908216806200021157607f821691505b602082108114156200023357634e487b7160e01b600052602260045260246000fd5b50919050565b60805160a05160c05160601c60e051610100516101205161238e6200028c6000396000611bd301526000611c2201526000611bfd01526000611b5601526000611b8001526000611baa015261238e6000f3fe6080604052600436106101405760003560e01c80636352211e116100b6578063b88d4fde1161006f578063b88d4fde14610386578063c87b56dd146103a6578063d5391393146103c6578063d547741f146103fa578063e322ad2b1461041a578063e985e9c51461043c57600080fd5b80636352211e146102dc57806370a08231146102fc57806391d148541461031c57806395d89b411461033c578063a217fddf14610351578063a22cb4651461036657600080fd5b8063248a9ca311610108578063248a9ca3146102165780632f2ff15d1461025457806336568abe146102745780633ccfd60b146102945780633cf3e664146102a957806342842e0e146102bc57600080fd5b806301ffc9a71461014557806306fdde031461017a578063081812fc1461019c578063095ea7b3146101d457806323b872dd146101f6575b600080fd5b34801561015157600080fd5b50610165610160366004612000565b610485565b60405190151581526020015b60405180910390f35b34801561018657600080fd5b5061018f6104a5565b604051610171919061213b565b3480156101a857600080fd5b506101bc6101b7366004611fc6565b610537565b6040516001600160a01b039091168152602001610171565b3480156101e057600080fd5b506101f46101ef366004611f56565b6105d1565b005b34801561020257600080fd5b506101f4610211366004611e7b565b6106e7565b34801561022257600080fd5b50610246610231366004611fc6565b60009081526007602052604090206001015490565b604051908152602001610171565b34801561026057600080fd5b506101f461026f366004611fde565b610718565b34801561028057600080fd5b506101f461028f366004611fde565b61073e565b3480156102a057600080fd5b506101f46107bc565b6102466102b7366004611f7f565b6107ff565b3480156102c857600080fd5b506101f46102d7366004611e7b565b6108ae565b3480156102e857600080fd5b506101bc6102f7366004611fc6565b6108c9565b34801561030857600080fd5b50610246610317366004611e2f565b610940565b34801561032857600080fd5b50610165610337366004611fde565b6109c7565b34801561034857600080fd5b5061018f6109f2565b34801561035d57600080fd5b50610246600081565b34801561037257600080fd5b506101f4610381366004611f1c565b610a01565b34801561039257600080fd5b506101f46103a1366004611eb6565b610a0c565b3480156103b257600080fd5b5061018f6103c1366004611fc6565b610a44565b3480156103d257600080fd5b506102467f9f2df0fed2c77648de5860a4cc508cd0818c85b8b8a1ab4ceeef8d981c8956a681565b34801561040657600080fd5b506101f4610415366004611fde565b610bc3565b34801561042657600080fd5b5033600090815260086020526040902054610246565b34801561044857600080fd5b50610165610457366004611e49565b6001600160a01b03918216600090815260056020908152604080832093909416825291909152205460ff1690565b600061049082610be9565b8061049f575061049f82610c39565b92915050565b6060600080546104b490612296565b80601f01602080910402602001604051908101604052809291908181526020018280546104e090612296565b801561052d5780601f106105025761010080835404028352916020019161052d565b820191906000526020600020905b81548152906001019060200180831161051057829003601f168201915b5050505050905090565b6000818152600260205260408120546001600160a01b03166105b55760405162461bcd60e51b815260206004820152602c60248201527f4552433732313a20617070726f76656420717565727920666f72206e6f6e657860448201526b34b9ba32b73a103a37b5b2b760a11b60648201526084015b60405180910390fd5b506000908152600460205260409020546001600160a01b031690565b60006105dc826108c9565b9050806001600160a01b0316836001600160a01b0316141561064a5760405162461bcd60e51b815260206004820152602160248201527f4552433732313a20617070726f76616c20746f2063757272656e74206f776e656044820152603960f91b60648201526084016105ac565b336001600160a01b038216148061066657506106668133610457565b6106d85760405162461bcd60e51b815260206004820152603860248201527f4552433732313a20617070726f76652063616c6c6572206973206e6f74206f7760448201527f6e6572206e6f7220617070726f76656420666f7220616c6c000000000000000060648201526084016105ac565b6106e28383610c5e565b505050565b6106f13382610ccc565b61070d5760405162461bcd60e51b81526004016105ac906121a0565b6106e2838383610dbf565b6000828152600760205260409020600101546107348133610f5f565b6106e28383610fc3565b6001600160a01b03811633146107ae5760405162461bcd60e51b815260206004820152602f60248201527f416363657373436f6e74726f6c3a2063616e206f6e6c792072656e6f756e636560448201526e103937b632b9903337b91039b2b63360891b60648201526084016105ac565b6107b88282611049565b5050565b3360008181526008602052604080822080549083905590519091839183156108fc0291849190818181858888f193505050501580156106e2573d6000803e3d6000fd5b60008061080d8585856110b0565b90508334101561085f5760405162461bcd60e51b815260206004820152601c60248201527f496e73756666696369656e742066756e647320746f2072656465656d0000000060448201526064016105ac565b61086981866110d5565b610874818787610dbf565b6001600160a01b0381166000908152600860205260408120805434929061089c9084906121f1565b9091555085925050505b949350505050565b6106e283838360405180602001604052806000815250610a0c565b6000818152600260205260408120546001600160a01b03168061049f5760405162461bcd60e51b815260206004820152602960248201527f4552433732313a206f776e657220717565727920666f72206e6f6e657869737460448201526832b73a103a37b5b2b760b91b60648201526084016105ac565b60006001600160a01b0382166109ab5760405162461bcd60e51b815260206004820152602a60248201527f4552433732313a2062616c616e636520717565727920666f7220746865207a65604482015269726f206164647265737360b01b60648201526084016105ac565b506001600160a01b031660009081526003602052604090205490565b60009182526007602090815260408084206001600160a01b0393909316845291905290205460ff1690565b6060600180546104b490612296565b6107b8338383611217565b610a163383610ccc565b610a325760405162461bcd60e51b81526004016105ac906121a0565b610a3e848484846112e6565b50505050565b6000818152600260205260409020546060906001600160a01b0316610ac55760405162461bcd60e51b815260206004820152603160248201527f45524337323155524953746f726167653a2055524920717565727920666f72206044820152703737b732bc34b9ba32b73a103a37b5b2b760791b60648201526084016105ac565b60008281526006602052604081208054610ade90612296565b80601f0160208091040260200160405190810160405280929190818152602001828054610b0a90612296565b8015610b575780601f10610b2c57610100808354040283529160200191610b57565b820191906000526020600020905b815481529060010190602001808311610b3a57829003601f168201915b505050505090506000610b7560408051602081019091526000815290565b9050805160001415610b88575092915050565b815115610bba578082604051602001610ba2929190612064565b60405160208183030381529060405292505050919050565b6108a684611319565b600082815260076020526040902060010154610bdf8133610f5f565b6106e28383611049565b60006001600160e01b031982166380ac58cd60e01b1480610c1a57506001600160e01b03198216635b5e139f60e01b145b8061049f57506301ffc9a760e01b6001600160e01b031983161461049f565b60006001600160e01b03198216637965db0b60e01b148061049f575061049f82610be9565b600081815260046020526040902080546001600160a01b0319166001600160a01b0384169081179091558190610c93826108c9565b6001600160a01b03167f8c5be1e5ebec7d5bd14f71427d1e84f3dd0314c0f7b2291e5b200ac8c7c3b92560405160405180910390a45050565b6000818152600260205260408120546001600160a01b0316610d455760405162461bcd60e51b815260206004820152602c60248201527f4552433732313a206f70657261746f7220717565727920666f72206e6f6e657860448201526b34b9ba32b73a103a37b5b2b760a11b60648201526084016105ac565b6000610d50836108c9565b9050806001600160a01b0316846001600160a01b03161480610d8b5750836001600160a01b0316610d8084610537565b6001600160a01b0316145b806108a657506001600160a01b0380821660009081526005602090815260408083209388168352929052205460ff166108a6565b826001600160a01b0316610dd2826108c9565b6001600160a01b031614610e3a5760405162461bcd60e51b815260206004820152602960248201527f4552433732313a207472616e73666572206f6620746f6b656e2074686174206960448201526839903737ba1037bbb760b91b60648201526084016105ac565b6001600160a01b038216610e9c5760405162461bcd60e51b8152602060048201526024808201527f4552433732313a207472616e7366657220746f20746865207a65726f206164646044820152637265737360e01b60648201526084016105ac565b610ea7600082610c5e565b6001600160a01b0383166000908152600360205260408120805460019290610ed090849061223c565b90915550506001600160a01b0382166000908152600360205260408120805460019290610efe9084906121f1565b909155505060008181526002602052604080822080546001600160a01b0319166001600160a01b0386811691821790925591518493918716917fddf252ad1be2c89b69c2b068fc378daa952ba7f163c4a11628f55a4df523b3ef91a4505050565b610f6982826109c7565b6107b857610f81816001600160a01b03166014611401565b610f8c836020611401565b604051602001610f9d929190612093565b60408051601f198184030181529082905262461bcd60e51b82526105ac9160040161213b565b610fcd82826109c7565b6107b85760008281526007602090815260408083206001600160a01b03851684529091529020805460ff191660011790556110053390565b6001600160a01b0316816001600160a01b0316837f2f8788117e7eff1d82e926ec794901d17c78024a50270940304540a733656f0d60405160405180910390a45050565b61105382826109c7565b156107b85760008281526007602090815260408083206001600160a01b0385168085529252808320805460ff1916905551339285917ff6391f5c32d9c69d2a47ea670b442974b53935d1edc7fd64eb21e047a839171b9190a45050565b6000806110bd85856115e3565b905060006110cb828561163f565b9695505050505050565b6001600160a01b03821661112b5760405162461bcd60e51b815260206004820181905260248201527f4552433732313a206d696e7420746f20746865207a65726f206164647265737360448201526064016105ac565b6000818152600260205260409020546001600160a01b0316156111905760405162461bcd60e51b815260206004820152601c60248201527f4552433732313a20746f6b656e20616c7265616479206d696e7465640000000060448201526064016105ac565b6001600160a01b03821660009081526003602052604081208054600192906111b99084906121f1565b909155505060008181526002602052604080822080546001600160a01b0319166001600160a01b03861690811790915590518392907fddf252ad1be2c89b69c2b068fc378daa952ba7f163c4a11628f55a4df523b3ef908290a45050565b816001600160a01b0316836001600160a01b031614156112795760405162461bcd60e51b815260206004820152601960248201527f4552433732313a20617070726f766520746f2063616c6c65720000000000000060448201526064016105ac565b6001600160a01b03838116600081815260056020908152604080832094871680845294825291829020805460ff191686151590811790915591519182527f17307eab39ab6107e8899845ad3d59bd9653f200f220920489ca2b5937696c31910160405180910390a3505050565b6112f1848484610dbf565b6112fd84848484611663565b610a3e5760405162461bcd60e51b81526004016105ac9061214e565b6000818152600260205260409020546060906001600160a01b03166113985760405162461bcd60e51b815260206004820152602f60248201527f4552433732314d657461646174613a2055524920717565727920666f72206e6f60448201526e3732bc34b9ba32b73a103a37b5b2b760891b60648201526084016105ac565b60006113af60408051602081019091526000815290565b905060008151116113cf57604051806020016040528060008152506113fa565b806113d98461176d565b6040516020016113ea929190612064565b6040516020818303038152906040525b9392505050565b6060600061141083600261221d565b61141b9060026121f1565b67ffffffffffffffff81111561144157634e487b7160e01b600052604160045260246000fd5b6040519080825280601f01601f19166020018201604052801561146b576020820181803683370190505b509050600360fc1b8160008151811061149457634e487b7160e01b600052603260045260246000fd5b60200101906001600160f81b031916908160001a905350600f60fb1b816001815181106114d157634e487b7160e01b600052603260045260246000fd5b60200101906001600160f81b031916908160001a90535060006114f584600261221d565b6115009060016121f1565b90505b6001811115611594576f181899199a1a9b1b9c1cb0b131b232b360811b85600f166010811061154257634e487b7160e01b600052603260045260246000fd5b1a60f81b82828151811061156657634e487b7160e01b600052603260045260246000fd5b60200101906001600160f81b031916908160001a90535060049490941c9361158d8161227f565b9050611503565b5083156113fa5760405162461bcd60e51b815260206004820181905260248201527f537472696e67733a20686578206c656e67746820696e73756666696369656e7460448201526064016105ac565b604080517f27211f6b2204984b9d4b59060f8dd550a32eddbc2836cbff3290efe7c253da136020820152908101839052606081018290526000906113fa9060800160405160208183030381529060405280519060200120611887565b600080600061164e85856118d5565b9150915061165b81611945565b509392505050565b60006001600160a01b0384163b1561176557604051630a85bd0160e11b81526001600160a01b0385169063150b7a02906116a7903390899088908890600401612108565b602060405180830381600087803b1580156116c157600080fd5b505af19250505080156116f1575060408051601f3d908101601f191682019092526116ee9181019061201c565b60015b61174b573d80801561171f576040519150601f19603f3d011682016040523d82523d6000602084013e611724565b606091505b5080516117435760405162461bcd60e51b81526004016105ac9061214e565b805181602001fd5b6001600160e01b031916630a85bd0160e11b1490506108a6565b5060016108a6565b6060816117915750506040805180820190915260018152600360fc1b602082015290565b8160005b81156117bb57806117a5816122d1565b91506117b49050600a83612209565b9150611795565b60008167ffffffffffffffff8111156117e457634e487b7160e01b600052604160045260246000fd5b6040519080825280601f01601f19166020018201604052801561180e576020820181803683370190505b5090505b84156108a65761182360018361223c565b9150611830600a866122ec565b61183b9060306121f1565b60f81b81838151811061185e57634e487b7160e01b600052603260045260246000fd5b60200101906001600160f81b031916908160001a905350611880600a86612209565b9450611812565b600061049f611894611b49565b8360405161190160f01b6020820152602281018390526042810182905260009060620160405160208183030381529060405280519060200120905092915050565b60008082516041141561190c5760208301516040840151606085015160001a61190087828585611c70565b9450945050505061193e565b825160401415611936576020830151604084015161192b868383611d5d565b93509350505061193e565b506000905060025b9250929050565b600081600481111561196757634e487b7160e01b600052602160045260246000fd5b14156119705750565b600181600481111561199257634e487b7160e01b600052602160045260246000fd5b14156119e05760405162461bcd60e51b815260206004820152601860248201527f45434453413a20696e76616c6964207369676e6174757265000000000000000060448201526064016105ac565b6002816004811115611a0257634e487b7160e01b600052602160045260246000fd5b1415611a505760405162461bcd60e51b815260206004820152601f60248201527f45434453413a20696e76616c6964207369676e6174757265206c656e6774680060448201526064016105ac565b6003816004811115611a7257634e487b7160e01b600052602160045260246000fd5b1415611acb5760405162461bcd60e51b815260206004820152602260248201527f45434453413a20696e76616c6964207369676e6174757265202773272076616c604482015261756560f01b60648201526084016105ac565b6004816004811115611aed57634e487b7160e01b600052602160045260246000fd5b1415611b465760405162461bcd60e51b815260206004820152602260248201527f45434453413a20696e76616c6964207369676e6174757265202776272076616c604482015261756560f01b60648201526084016105ac565b50565b6000306001600160a01b037f000000000000000000000000000000000000000000000000000000000000000016148015611ba257507f000000000000000000000000000000000000000000000000000000000000000046145b15611bcc57507f000000000000000000000000000000000000000000000000000000000000000090565b50604080517f00000000000000000000000000000000000000000000000000000000000000006020808301919091527f0000000000000000000000000000000000000000000000000000000000000000828401527f000000000000000000000000000000000000000000000000000000000000000060608301524660808301523060a0808401919091528351808403909101815260c0909201909252805191012090565b6000807f7fffffffffffffffffffffffffffffff5d576e7357a4501ddfe92f46681b20a0831115611ca75750600090506003611d54565b8460ff16601b14158015611cbf57508460ff16601c14155b15611cd05750600090506004611d54565b6040805160008082526020820180845289905260ff881692820192909252606081018690526080810185905260019060a0016020604051602081039080840390855afa158015611d24573d6000803e3d6000fd5b5050604051601f1901519150506001600160a01b038116611d4d57600060019250925050611d54565b9150600090505b94509492505050565b6000806001600160ff1b03831660ff84901c601b01611d7e87828885611c70565b935093505050935093915050565b80356001600160a01b0381168114611da357600080fd5b919050565b600082601f830112611db8578081fd5b813567ffffffffffffffff80821115611dd357611dd361232c565b604051601f8301601f19908116603f01168101908282118183101715611dfb57611dfb61232c565b81604052838152866020858801011115611e13578485fd5b8360208701602083013792830160200193909352509392505050565b600060208284031215611e40578081fd5b6113fa82611d8c565b60008060408385031215611e5b578081fd5b611e6483611d8c565b9150611e7260208401611d8c565b90509250929050565b600080600060608486031215611e8f578081fd5b611e9884611d8c565b9250611ea660208501611d8c565b9150604084013590509250925092565b60008060008060808587031215611ecb578081fd5b611ed485611d8c565b9350611ee260208601611d8c565b925060408501359150606085013567ffffffffffffffff811115611f04578182fd5b611f1087828801611da8565b91505092959194509250565b60008060408385031215611f2e578182fd5b611f3783611d8c565b915060208301358015158114611f4b578182fd5b809150509250929050565b60008060408385031215611f68578182fd5b611f7183611d8c565b946020939093013593505050565b60008060008060808587031215611f94578384fd5b611f9d85611d8c565b93506020850135925060408501359150606085013567ffffffffffffffff811115611f04578182fd5b600060208284031215611fd7578081fd5b5035919050565b60008060408385031215611ff0578182fd5b82359150611e7260208401611d8c565b600060208284031215612011578081fd5b81356113fa81612342565b60006020828403121561202d578081fd5b81516113fa81612342565b60008151808452612050816020860160208601612253565b601f01601f19169290920160200192915050565b60008351612076818460208801612253565b83519083019061208a818360208801612253565b01949350505050565b7f416363657373436f6e74726f6c3a206163636f756e74200000000000000000008152600083516120cb816017850160208801612253565b7001034b99036b4b9b9b4b733903937b6329607d1b60179184019182015283516120fc816028840160208801612253565b01602801949350505050565b6001600160a01b03858116825284166020820152604081018390526080606082018190526000906110cb90830184612038565b6020815260006113fa6020830184612038565b60208082526032908201527f4552433732313a207472616e7366657220746f206e6f6e20455243373231526560408201527131b2b4bb32b91034b6b83632b6b2b73a32b960711b606082015260800190565b60208082526031908201527f4552433732313a207472616e736665722063616c6c6572206973206e6f74206f6040820152701ddb995c881b9bdc88185c1c1c9bdd9959607a1b606082015260800190565b6000821982111561220457612204612300565b500190565b60008261221857612218612316565b500490565b600081600019048311821515161561223757612237612300565b500290565b60008282101561224e5761224e612300565b500390565b60005b8381101561226e578181015183820152602001612256565b83811115610a3e5750506000910152565b60008161228e5761228e612300565b506000190190565b600181811c908216806122aa57607f821691505b602082108114156122cb57634e487b7160e01b600052602260045260246000fd5b50919050565b60006000198214156122e5576122e5612300565b5060010190565b6000826122fb576122fb612316565b500690565b634e487b7160e01b600052601160045260246000fd5b634e487b7160e01b600052601260045260246000fd5b634e487b7160e01b600052604160045260246000fd5b6001600160e01b031981168114611b4657600080fdfea26469706673582212209c8be5c10b0ea1147eca59d01534ff533c202a99245962fa48421ee34da7209164736f6c63430008040033",
  "linkReferences": {},
  "deployedLinkReferences": {}
}