{
  "_format": "hh-sol-artifact-1",
  "contractName": "Lazy",
  "sourceName": "contracts/Lazy.sol",
  "abi": [
    {
      "inputs": [],
      "stateMutability": "nonpayable",
      "type": "constructor"
    },
    {
      "anonymous": false,
      "inputs": [
        {
          "indexed": true,
          "internalType": "address",
          "name": "owner",
          "type": "address"
        },
        {
          "indexed": true,
          "internalType": "address",
          "name": "approved",
          "type": "address"
        },
        {
          "indexed": true,
          "internalType": "uint256",
          "name": "tokenId",
          "type": "uint256"
        }
      ],
      "name": "Approval",
      "type": "event"
    },
    {
      "anonymous": false,
      "inputs": [
        {
          "indexed": true,
          "internalType": "address",
          "name": "owner",
          "type": "address"
        },
        {
          "indexed": true,
          "internalType": "address",
          "name": "operator",
          "type": "address"
        },
        {
          "indexed": false,
          "internalType": "bool",
          "name": "approved",
          "type": "bool"
        }
      ],
      "name": "ApprovalForAll",
      "type": "event"
    },
    {
      "anonymous": false,
      "inputs": [
        {
          "indexed": true,
          "internalType": "address",
          "name": "from",
          "type": "address"
        },
        {
          "indexed": true,
          "internalType": "address",
          "name": "to",
          "type": "address"
        },
        {
          "indexed": true,
          "internalType": "uint256",
          "name": "tokenId",
          "type": "uint256"
        }
      ],
      "name": "Transfer",
      "type": "event"
    },
    {
      "inputs": [
        {
          "internalType": "address",
          "name": "to",
          "type": "address"
        },
        {
          "internalType": "uint256",
          "name": "tokenId",
          "type": "uint256"
        }
      ],
      "name": "approve",
      "outputs": [],
      "stateMutability": "nonpayable",
      "type": "function"
    },
    {
      "inputs": [],
      "name": "availableToWithdraw",
      "outputs": [
        {
          "internalType": "uint256",
          "name": "",
          "type": "uint256"
        }
      ],
      "stateMutability": "view",
      "type": "function"
    },
    {
      "inputs": [
        {
          "internalType": "address",
          "name": "owner",
          "type": "address"
        }
      ],
      "name": "balanceOf",
      "outputs": [
        {
          "internalType": "uint256",
          "name": "",
          "type": "uint256"
        }
      ],
      "stateMutability": "view",
      "type": "function"
    },
    {
      "inputs": [
        {
          "internalType": "uint256",
          "name": "tokenId",
          "type": "uint256"
        }
      ],
      "name": "getApproved",
      "outputs": [
        {
          "internalType": "address",
          "name": "",
          "type": "address"
        }
      ],
      "stateMutability": "view",
      "type": "function"
    },
    {
      "inputs": [
        {
          "internalType": "address",
          "name": "owner",
          "type": "address"
        },
        {
          "internalType": "address",
          "name": "operator",
          "type": "address"
        }
      ],
      "name": "isApprovedForAll",
      "outputs": [
        {
          "internalType": "bool",
          "name": "",
          "type": "bool"
        }
      ],
      "stateMutability": "view",
      "type": "function"
    },
    {
      "inputs": [
        {
          "internalType": "uint256",
          "name": "tokenId",
          "type": "uint256"
        },
        {
          "internalType": "string",
          "name": "url",
          "type": "string"
        }
      ],
      "name": "mint",
      "outputs": [],
      "stateMutability": "nonpayable",
      "type": "function"
    },
    {
      "inputs": [],
      "name": "name",
      "outputs": [
        {
          "internalType": "string",
          "name": "",
          "type": "string"
        }
      ],
      "stateMutability": "view",
      "type": "function"
    },
    {
      "inputs": [
        {
          "internalType": "uint256",
          "name": "tokenId",
          "type": "uint256"
        }
      ],
      "name": "ownerOf",
      "outputs": [
        {
          "internalType": "address",
          "name": "",
          "type": "address"
        }
      ],
      "stateMutability": "view",
      "type": "function"
    },
    {
      "inputs": [
        {
          "internalType": "address",
          "name": "redeemer",
          "type": "address"
        },
        {
          "components": [
            {
              "internalType": "uint256",
              "name": "tokenId",
              "type": "uint256"
            },
            {
              "internalType": "uint256",
              "name": "minPrice",
              "type": "uint256"
            },
            {
              "internalType": "string",
              "name": "uri",
              "type": "string"
            }
          ],
          "internalType": "struct Lazy.NFTVoucher",
          "name": "voucher",
          "type": "tuple"
        },
        {
          "internalType": "bytes",
          "name": "signature",
          "type": "bytes"
        }
      ],
      "name": "redeem",
      "outputs": [
        {
          "internalType": "uint256",
          "name": "",
          "type": "uint256"
        }
      ],
      "stateMutability": "payable",
      "type": "function"
    },
    {
      "inputs": [
        {
          "internalType": "address",
          "name": "from",
          "type": "address"
        },
        {
          "internalType": "address",
          "name": "to",
          "type": "address"
        },
        {
          "internalType": "uint256",
          "name": "tokenId",
          "type": "uint256"
        }
      ],
      "name": "safeTransferFrom",
      "outputs": [],
      "stateMutability": "nonpayable",
      "type": "function"
    },
    {
      "inputs": [
        {
          "internalType": "address",
          "name": "from",
          "type": "address"
        },
        {
          "internalType": "address",
          "name": "to",
          "type": "address"
        },
        {
          "internalType": "uint256",
          "name": "tokenId",
          "type": "uint256"
        },
        {
          "internalType": "bytes",
          "name": "_data",
          "type": "bytes"
        }
      ],
      "name": "safeTransferFrom",
      "outputs": [],
      "stateMutability": "nonpayable",
      "type": "function"
    },
    {
      "inputs": [
        {
          "internalType": "address",
          "name": "operator",
          "type": "address"
        },
        {
          "internalType": "bool",
          "name": "approved",
          "type": "bool"
        }
      ],
      "name": "setApprovalForAll",
      "outputs": [],
      "stateMutability": "nonpayable",
      "type": "function"
    },
    {
      "inputs": [
        {
          "internalType": "bytes4",
          "name": "interfaceId",
          "type": "bytes4"
        }
      ],
      "name": "supportsInterface",
      "outputs": [
        {
          "internalType": "bool",
          "name": "",
          "type": "bool"
        }
      ],
      "stateMutability": "view",
      "type": "function"
    },
    {
      "inputs": [],
      "name": "symbol",
      "outputs": [
        {
          "internalType": "string",
          "name": "",
          "type": "string"
        }
      ],
      "stateMutability": "view",
      "type": "function"
    },
    {
      "inputs": [
        {
          "internalType": "uint256",
          "name": "tokenId",
          "type": "uint256"
        }
      ],
      "name": "tokenURI",
      "outputs": [
        {
          "internalType": "string",
          "name": "",
          "type": "string"
        }
      ],
      "stateMutability": "view",
      "type": "function"
    },
    {
      "inputs": [
        {
          "internalType": "address",
          "name": "from",
          "type": "address"
        },
        {
          "internalType": "address",
          "name": "to",
          "type": "address"
        },
        {
          "internalType": "uint256",
          "name": "tokenId",
          "type": "uint256"
        }
      ],
      "name": "transferFrom",
      "outputs": [],
      "stateMutability": "nonpayable",
      "type": "function"
    },
    {
      "inputs": [],
      "name": "withdraw",
      "outputs": [],
      "stateMutability": "nonpayable",
      "type": "function"
    }
  ],
  "bytecode": "0x6101406040523480156200001257600080fd5b50604051806040016040528060048152602001634e616d6560e01b815250604051806040016040528060058152602001640312e302e360dc1b8152506040518060400160405280600781526020016613185e9e53919560ca1b815250604051806040016040528060038152602001622620ad60e91b8152508160009080519060200190620000a292919062000150565b508051620000b890600190602084019062000150565b5050825160209384012082519284019290922060e08390526101008190524660a0818152604080517f8b73c3c69bb8fe3d512ecc4cf759cc79239f7b179b0ffacaa9a75d522b39400f818901819052818301979097526060810194909452608080850193909352308483018190528151808603909301835260c094850190915281519190960120905292909252610120525062000233565b8280546200015e90620001f6565b90600052602060002090601f016020900481019282620001825760008555620001cd565b82601f106200019d57805160ff1916838001178555620001cd565b82800160010185558215620001cd579182015b82811115620001cd578251825591602001919060010190620001b0565b50620001db929150620001df565b5090565b5b80821115620001db5760008155600101620001e0565b600181811c908216806200020b57607f821691505b602082108114156200022d57634e487b7160e01b600052602260045260246000fd5b50919050565b60805160a05160c05160e0516101005161012051611fbb6200028360003960006116fd0152600061174c0152600061172701526000611680015260006116aa015260006116d40152611fbb6000f3fe6080604052600436106100fe5760003560e01c80636352211e11610095578063a22cb46511610064578063a22cb4651461029f578063b88d4fde146102bf578063c87b56dd146102df578063e322ad2b146102ff578063e985e9c51461032157600080fd5b80636352211e1461022a57806370a082311461024a57806377097fc81461026a57806395d89b411461028a57600080fd5b80631c098e90116100d15780631c098e90146101b457806323b872dd146101d55780633ccfd60b146101f557806342842e0e1461020a57600080fd5b806301ffc9a71461010357806306fdde0314610138578063081812fc1461015a578063095ea7b314610192575b600080fd5b34801561010f57600080fd5b5061012361011e366004611965565b61036a565b60405190151581526020015b60405180910390f35b34801561014457600080fd5b5061014d61037b565b60405161012f91906119da565b34801561016657600080fd5b5061017a6101753660046119ed565b61040d565b6040516001600160a01b03909116815260200161012f565b34801561019e57600080fd5b506101b26101ad366004611a22565b61049a565b005b6101c76101c2366004611af8565b6105b0565b60405190815260200161012f565b3480156101e157600080fd5b506101b26101f0366004611b74565b6106ad565b34801561020157600080fd5b506101b26106de565b34801561021657600080fd5b506101b2610225366004611b74565b610721565b34801561023657600080fd5b5061017a6102453660046119ed565b61073c565b34801561025657600080fd5b506101c7610265366004611bb0565b6107b3565b34801561027657600080fd5b506101b2610285366004611bcb565b61083a565b34801561029657600080fd5b5061014d610852565b3480156102ab57600080fd5b506101b26102ba366004611c26565b610861565b3480156102cb57600080fd5b506101b26102da366004611c62565b61086c565b3480156102eb57600080fd5b5061014d6102fa3660046119ed565b6108a4565b34801561030b57600080fd5b50336000908152600760205260409020546101c7565b34801561032d57600080fd5b5061012361033c366004611cca565b6001600160a01b03918216600090815260056020908152604080832093909416825291909152205460ff1690565b600061037582610a1b565b92915050565b60606000805461038a90611cfd565b80601f01602080910402602001604051908101604052809291908181526020018280546103b690611cfd565b80156104035780601f106103d857610100808354040283529160200191610403565b820191906000526020600020905b8154815290600101906020018083116103e657829003601f168201915b5050505050905090565b600061041882610a6b565b61047e5760405162461bcd60e51b815260206004820152602c60248201527f4552433732313a20617070726f76656420717565727920666f72206e6f6e657860448201526b34b9ba32b73a103a37b5b2b760a11b60648201526084015b60405180910390fd5b506000908152600460205260409020546001600160a01b031690565b60006104a58261073c565b9050806001600160a01b0316836001600160a01b031614156105135760405162461bcd60e51b815260206004820152602160248201527f4552433732313a20617070726f76616c20746f2063757272656e74206f776e656044820152603960f91b6064820152608401610475565b336001600160a01b038216148061052f575061052f813361033c565b6105a15760405162461bcd60e51b815260206004820152603860248201527f4552433732313a20617070726f76652063616c6c6572206973206e6f74206f7760448201527f6e6572206e6f7220617070726f76656420666f7220616c6c00000000000000006064820152608401610475565b6105ab8383610a88565b505050565b6000806105bd8484610af6565b905083602001353410156106135760405162461bcd60e51b815260206004820152601c60248201527f496e73756666696369656e742066756e647320746f2072656465656d000000006044820152606401610475565b61061e818535610b19565b61066a84356106306040870187611d38565b8080601f016020809104026020016040519081016040528093929190818152602001838380828437600092019190915250610c4c92505050565b61067681868635610cd7565b6001600160a01b0381166000908152600760205260408120805434929061069e908490611d95565b90915550509235949350505050565b6106b73382610e77565b6106d35760405162461bcd60e51b815260040161047590611dad565b6105ab838383610cd7565b3360008181526007602052604080822080549083905590519091839183156108fc0291849190818181858888f193505050501580156105ab573d6000803e3d6000fd5b6105ab8383836040518060200160405280600081525061086c565b6000818152600260205260408120546001600160a01b0316806103755760405162461bcd60e51b815260206004820152602960248201527f4552433732313a206f776e657220717565727920666f72206e6f6e657869737460448201526832b73a103a37b5b2b760b91b6064820152608401610475565b60006001600160a01b03821661081e5760405162461bcd60e51b815260206004820152602a60248201527f4552433732313a2062616c616e636520717565727920666f7220746865207a65604482015269726f206164647265737360b01b6064820152608401610475565b506001600160a01b031660009081526003602052604090205490565b6108443383610b19565b61084e8282610c4c565b5050565b60606001805461038a90611cfd565b61084e338383610f5d565b6108763383610e77565b6108925760405162461bcd60e51b815260040161047590611dad565b61089e8484848461102c565b50505050565b60606108af82610a6b565b6109155760405162461bcd60e51b815260206004820152603160248201527f45524337323155524953746f726167653a2055524920717565727920666f72206044820152703737b732bc34b9ba32b73a103a37b5b2b760791b6064820152608401610475565b6000828152600660205260408120805461092e90611cfd565b80601f016020809104026020016040519081016040528092919081815260200182805461095a90611cfd565b80156109a75780601f1061097c576101008083540402835291602001916109a7565b820191906000526020600020905b81548152906001019060200180831161098a57829003601f168201915b5050505050905060006109c560408051602081019091526000815290565b90508051600014156109d8575092915050565b815115610a0a5780826040516020016109f2929190611dfe565b60405160208183030381529060405292505050919050565b610a138461105f565b949350505050565b60006001600160e01b031982166380ac58cd60e01b1480610a4c57506001600160e01b03198216635b5e139f60e01b145b8061037557506301ffc9a760e01b6001600160e01b0319831614610375565b6000908152600260205260409020546001600160a01b0316151590565b600081815260046020526040902080546001600160a01b0319166001600160a01b0384169081179091558190610abd8261073c565b6001600160a01b03167f8c5be1e5ebec7d5bd14f71427d1e84f3dd0314c0f7b2291e5b200ac8c7c3b92560405160405180910390a45050565b600080610b0284611137565b90506000610b1082856111c8565b95945050505050565b6001600160a01b038216610b6f5760405162461bcd60e51b815260206004820181905260248201527f4552433732313a206d696e7420746f20746865207a65726f20616464726573736044820152606401610475565b610b7881610a6b565b15610bc55760405162461bcd60e51b815260206004820152601c60248201527f4552433732313a20746f6b656e20616c7265616479206d696e746564000000006044820152606401610475565b6001600160a01b0382166000908152600360205260408120805460019290610bee908490611d95565b909155505060008181526002602052604080822080546001600160a01b0319166001600160a01b03861690811790915590518392907fddf252ad1be2c89b69c2b068fc378daa952ba7f163c4a11628f55a4df523b3ef908290a45050565b610c5582610a6b565b610cb85760405162461bcd60e51b815260206004820152602e60248201527f45524337323155524953746f726167653a2055524920736574206f66206e6f6e60448201526d32bc34b9ba32b73a103a37b5b2b760911b6064820152608401610475565b600082815260066020908152604090912082516105ab928401906118b6565b826001600160a01b0316610cea8261073c565b6001600160a01b031614610d525760405162461bcd60e51b815260206004820152602960248201527f4552433732313a207472616e73666572206f6620746f6b656e2074686174206960448201526839903737ba1037bbb760b91b6064820152608401610475565b6001600160a01b038216610db45760405162461bcd60e51b8152602060048201526024808201527f4552433732313a207472616e7366657220746f20746865207a65726f206164646044820152637265737360e01b6064820152608401610475565b610dbf600082610a88565b6001600160a01b0383166000908152600360205260408120805460019290610de8908490611e2d565b90915550506001600160a01b0382166000908152600360205260408120805460019290610e16908490611d95565b909155505060008181526002602052604080822080546001600160a01b0319166001600160a01b0386811691821790925591518493918716917fddf252ad1be2c89b69c2b068fc378daa952ba7f163c4a11628f55a4df523b3ef91a4505050565b6000610e8282610a6b565b610ee35760405162461bcd60e51b815260206004820152602c60248201527f4552433732313a206f70657261746f7220717565727920666f72206e6f6e657860448201526b34b9ba32b73a103a37b5b2b760a11b6064820152608401610475565b6000610eee8361073c565b9050806001600160a01b0316846001600160a01b03161480610f295750836001600160a01b0316610f1e8461040d565b6001600160a01b0316145b80610a1357506001600160a01b0380821660009081526005602090815260408083209388168352929052205460ff16610a13565b816001600160a01b0316836001600160a01b03161415610fbf5760405162461bcd60e51b815260206004820152601960248201527f4552433732313a20617070726f766520746f2063616c6c6572000000000000006044820152606401610475565b6001600160a01b03838116600081815260056020908152604080832094871680845294825291829020805460ff191686151590811790915591519182527f17307eab39ab6107e8899845ad3d59bd9653f200f220920489ca2b5937696c31910160405180910390a3505050565b611037848484610cd7565b611043848484846111ec565b61089e5760405162461bcd60e51b815260040161047590611e44565b606061106a82610a6b565b6110ce5760405162461bcd60e51b815260206004820152602f60248201527f4552433732314d657461646174613a2055524920717565727920666f72206e6f60448201526e3732bc34b9ba32b73a103a37b5b2b760891b6064820152608401610475565b60006110e560408051602081019091526000815290565b905060008151116111055760405180602001604052806000815250611130565b8061110f846112f9565b604051602001611120929190611dfe565b6040516020818303038152906040525b9392505050565b60006103757f6316f9ddd4d59a364f3b95c26bab9d392c3380ace0fff15e91ed76f0d8bcd15a833560208501356111716040870187611d38565b60405161117f929190611e96565b6040519081900381206111ad9493929160200193845260208401929092526040830152606082015260800190565b604051602081830303815290604052805190602001206113f7565b60008060006111d78585611445565b915091506111e4816114b5565b509392505050565b60006001600160a01b0384163b156112ee57604051630a85bd0160e11b81526001600160a01b0385169063150b7a0290611230903390899088908890600401611ea6565b602060405180830381600087803b15801561124a57600080fd5b505af192505050801561127a575060408051601f3d908101601f1916820190925261127791810190611ee3565b60015b6112d4573d8080156112a8576040519150601f19603f3d011682016040523d82523d6000602084013e6112ad565b606091505b5080516112cc5760405162461bcd60e51b815260040161047590611e44565b805181602001fd5b6001600160e01b031916630a85bd0160e11b149050610a13565b506001949350505050565b60608161131d5750506040805180820190915260018152600360fc1b602082015290565b8160005b8115611347578061133181611f00565b91506113409050600a83611f31565b9150611321565b60008167ffffffffffffffff81111561136257611362611a4c565b6040519080825280601f01601f19166020018201604052801561138c576020820181803683370190505b5090505b8415610a13576113a1600183611e2d565b91506113ae600a86611f45565b6113b9906030611d95565b60f81b8183815181106113ce576113ce611f59565b60200101906001600160f81b031916908160001a9053506113f0600a86611f31565b9450611390565b6000610375611404611673565b8360405161190160f01b6020820152602281018390526042810182905260009060620160405160208183030381529060405280519060200120905092915050565b60008082516041141561147c5760208301516040840151606085015160001a6114708782858561179a565b945094505050506114ae565b8251604014156114a6576020830151604084015161149b868383611887565b9350935050506114ae565b506000905060025b9250929050565b60008160048111156114c9576114c9611f6f565b14156114d25750565b60018160048111156114e6576114e6611f6f565b14156115345760405162461bcd60e51b815260206004820152601860248201527f45434453413a20696e76616c6964207369676e617475726500000000000000006044820152606401610475565b600281600481111561154857611548611f6f565b14156115965760405162461bcd60e51b815260206004820152601f60248201527f45434453413a20696e76616c6964207369676e6174757265206c656e677468006044820152606401610475565b60038160048111156115aa576115aa611f6f565b14156116035760405162461bcd60e51b815260206004820152602260248201527f45434453413a20696e76616c6964207369676e6174757265202773272076616c604482015261756560f01b6064820152608401610475565b600481600481111561161757611617611f6f565b14156116705760405162461bcd60e51b815260206004820152602260248201527f45434453413a20696e76616c6964207369676e6174757265202776272076616c604482015261756560f01b6064820152608401610475565b50565b6000306001600160a01b037f0000000000000000000000000000000000000000000000000000000000000000161480156116cc57507f000000000000000000000000000000000000000000000000000000000000000046145b156116f657507f000000000000000000000000000000000000000000000000000000000000000090565b50604080517f00000000000000000000000000000000000000000000000000000000000000006020808301919091527f0000000000000000000000000000000000000000000000000000000000000000828401527f000000000000000000000000000000000000000000000000000000000000000060608301524660808301523060a0808401919091528351808403909101815260c0909201909252805191012090565b6000807f7fffffffffffffffffffffffffffffff5d576e7357a4501ddfe92f46681b20a08311156117d1575060009050600361187e565b8460ff16601b141580156117e957508460ff16601c14155b156117fa575060009050600461187e565b6040805160008082526020820180845289905260ff881692820192909252606081018690526080810185905260019060a0016020604051602081039080840390855afa15801561184e573d6000803e3d6000fd5b5050604051601f1901519150506001600160a01b0381166118775760006001925092505061187e565b9150600090505b94509492505050565b6000806001600160ff1b03831660ff84901c601b016118a88782888561179a565b935093505050935093915050565b8280546118c290611cfd565b90600052602060002090601f0160209004810192826118e4576000855561192a565b82601f106118fd57805160ff191683800117855561192a565b8280016001018555821561192a579182015b8281111561192a57825182559160200191906001019061190f565b5061193692915061193a565b5090565b5b80821115611936576000815560010161193b565b6001600160e01b03198116811461167057600080fd5b60006020828403121561197757600080fd5b81356111308161194f565b60005b8381101561199d578181015183820152602001611985565b8381111561089e5750506000910152565b600081518084526119c6816020860160208601611982565b601f01601f19169290920160200192915050565b60208152600061113060208301846119ae565b6000602082840312156119ff57600080fd5b5035919050565b80356001600160a01b0381168114611a1d57600080fd5b919050565b60008060408385031215611a3557600080fd5b611a3e83611a06565b946020939093013593505050565b634e487b7160e01b600052604160045260246000fd5b600067ffffffffffffffff80841115611a7d57611a7d611a4c565b604051601f8501601f19908116603f01168101908282118183101715611aa557611aa5611a4c565b81604052809350858152868686011115611abe57600080fd5b858560208301376000602087830101525050509392505050565b600082601f830112611ae957600080fd5b61113083833560208501611a62565b600080600060608486031215611b0d57600080fd5b611b1684611a06565b9250602084013567ffffffffffffffff80821115611b3357600080fd5b9085019060608288031215611b4757600080fd5b90925060408501359080821115611b5d57600080fd5b50611b6a86828701611ad8565b9150509250925092565b600080600060608486031215611b8957600080fd5b611b9284611a06565b9250611ba060208501611a06565b9150604084013590509250925092565b600060208284031215611bc257600080fd5b61113082611a06565b60008060408385031215611bde57600080fd5b82359150602083013567ffffffffffffffff811115611bfc57600080fd5b8301601f81018513611c0d57600080fd5b611c1c85823560208401611a62565b9150509250929050565b60008060408385031215611c3957600080fd5b611c4283611a06565b915060208301358015158114611c5757600080fd5b809150509250929050565b60008060008060808587031215611c7857600080fd5b611c8185611a06565b9350611c8f60208601611a06565b925060408501359150606085013567ffffffffffffffff811115611cb257600080fd5b611cbe87828801611ad8565b91505092959194509250565b60008060408385031215611cdd57600080fd5b611ce683611a06565b9150611cf460208401611a06565b90509250929050565b600181811c90821680611d1157607f821691505b60208210811415611d3257634e487b7160e01b600052602260045260246000fd5b50919050565b6000808335601e19843603018112611d4f57600080fd5b83018035915067ffffffffffffffff821115611d6a57600080fd5b6020019150368190038213156114ae57600080fd5b634e487b7160e01b600052601160045260246000fd5b60008219821115611da857611da8611d7f565b500190565b60208082526031908201527f4552433732313a207472616e736665722063616c6c6572206973206e6f74206f6040820152701ddb995c881b9bdc88185c1c1c9bdd9959607a1b606082015260800190565b60008351611e10818460208801611982565b835190830190611e24818360208801611982565b01949350505050565b600082821015611e3f57611e3f611d7f565b500390565b60208082526032908201527f4552433732313a207472616e7366657220746f206e6f6e20455243373231526560408201527131b2b4bb32b91034b6b83632b6b2b73a32b960711b606082015260800190565b8183823760009101908152919050565b6001600160a01b0385811682528416602082015260408101839052608060608201819052600090611ed9908301846119ae565b9695505050505050565b600060208284031215611ef557600080fd5b81516111308161194f565b6000600019821415611f1457611f14611d7f565b5060010190565b634e487b7160e01b600052601260045260246000fd5b600082611f4057611f40611f1b565b500490565b600082611f5457611f54611f1b565b500690565b634e487b7160e01b600052603260045260246000fd5b634e487b7160e01b600052602160045260246000fdfea26469706673582212203721cf16f59c9c79a4d74e302ef52ab3f387a6d79adc5ce9190c1cd1a23783c064736f6c63430008090033",
  "linkReferences": {},
  "deployedLinkReferences": {}
}