{
  "_format": "hh-sol-artifact-1",
  "contractName": "Lazy",
  "sourceName": "contracts/Lazy.sol",
  "abi": [
    {
      "inputs": [],
      "stateMutability": "nonpayable",
      "type": "constructor"
    },
    {
      "anonymous": false,
      "inputs": [
        {
          "indexed": true,
          "internalType": "address",
          "name": "owner",
          "type": "address"
        },
        {
          "indexed": true,
          "internalType": "address",
          "name": "approved",
          "type": "address"
        },
        {
          "indexed": true,
          "internalType": "uint256",
          "name": "tokenId",
          "type": "uint256"
        }
      ],
      "name": "Approval",
      "type": "event"
    },
    {
      "anonymous": false,
      "inputs": [
        {
          "indexed": true,
          "internalType": "address",
          "name": "owner",
          "type": "address"
        },
        {
          "indexed": true,
          "internalType": "address",
          "name": "operator",
          "type": "address"
        },
        {
          "indexed": false,
          "internalType": "bool",
          "name": "approved",
          "type": "bool"
        }
      ],
      "name": "ApprovalForAll",
      "type": "event"
    },
    {
      "anonymous": false,
      "inputs": [
        {
          "indexed": true,
          "internalType": "bytes32",
          "name": "role",
          "type": "bytes32"
        },
        {
          "indexed": true,
          "internalType": "bytes32",
          "name": "previousAdminRole",
          "type": "bytes32"
        },
        {
          "indexed": true,
          "internalType": "bytes32",
          "name": "newAdminRole",
          "type": "bytes32"
        }
      ],
      "name": "RoleAdminChanged",
      "type": "event"
    },
    {
      "anonymous": false,
      "inputs": [
        {
          "indexed": true,
          "internalType": "bytes32",
          "name": "role",
          "type": "bytes32"
        },
        {
          "indexed": true,
          "internalType": "address",
          "name": "account",
          "type": "address"
        },
        {
          "indexed": true,
          "internalType": "address",
          "name": "sender",
          "type": "address"
        }
      ],
      "name": "RoleGranted",
      "type": "event"
    },
    {
      "anonymous": false,
      "inputs": [
        {
          "indexed": true,
          "internalType": "bytes32",
          "name": "role",
          "type": "bytes32"
        },
        {
          "indexed": true,
          "internalType": "address",
          "name": "account",
          "type": "address"
        },
        {
          "indexed": true,
          "internalType": "address",
          "name": "sender",
          "type": "address"
        }
      ],
      "name": "RoleRevoked",
      "type": "event"
    },
    {
      "anonymous": false,
      "inputs": [
        {
          "indexed": true,
          "internalType": "address",
          "name": "from",
          "type": "address"
        },
        {
          "indexed": true,
          "internalType": "address",
          "name": "to",
          "type": "address"
        },
        {
          "indexed": true,
          "internalType": "uint256",
          "name": "tokenId",
          "type": "uint256"
        }
      ],
      "name": "Transfer",
      "type": "event"
    },
    {
      "inputs": [],
      "name": "DEFAULT_ADMIN_ROLE",
      "outputs": [
        {
          "internalType": "bytes32",
          "name": "",
          "type": "bytes32"
        }
      ],
      "stateMutability": "view",
      "type": "function"
    },
    {
      "inputs": [],
      "name": "MINTER_ROLE",
      "outputs": [
        {
          "internalType": "bytes32",
          "name": "",
          "type": "bytes32"
        }
      ],
      "stateMutability": "view",
      "type": "function"
    },
    {
      "inputs": [
        {
          "internalType": "address",
          "name": "to",
          "type": "address"
        },
        {
          "internalType": "uint256",
          "name": "tokenId",
          "type": "uint256"
        }
      ],
      "name": "approve",
      "outputs": [],
      "stateMutability": "nonpayable",
      "type": "function"
    },
    {
      "inputs": [],
      "name": "availableToWithdraw",
      "outputs": [
        {
          "internalType": "uint256",
          "name": "",
          "type": "uint256"
        }
      ],
      "stateMutability": "view",
      "type": "function"
    },
    {
      "inputs": [
        {
          "internalType": "address",
          "name": "owner",
          "type": "address"
        }
      ],
      "name": "balanceOf",
      "outputs": [
        {
          "internalType": "uint256",
          "name": "",
          "type": "uint256"
        }
      ],
      "stateMutability": "view",
      "type": "function"
    },
    {
      "inputs": [
        {
          "internalType": "uint256",
          "name": "tokenId",
          "type": "uint256"
        }
      ],
      "name": "getApproved",
      "outputs": [
        {
          "internalType": "address",
          "name": "",
          "type": "address"
        }
      ],
      "stateMutability": "view",
      "type": "function"
    },
    {
      "inputs": [
        {
          "internalType": "bytes32",
          "name": "role",
          "type": "bytes32"
        }
      ],
      "name": "getRoleAdmin",
      "outputs": [
        {
          "internalType": "bytes32",
          "name": "",
          "type": "bytes32"
        }
      ],
      "stateMutability": "view",
      "type": "function"
    },
    {
      "inputs": [
        {
          "internalType": "bytes32",
          "name": "role",
          "type": "bytes32"
        },
        {
          "internalType": "address",
          "name": "account",
          "type": "address"
        }
      ],
      "name": "grantRole",
      "outputs": [],
      "stateMutability": "nonpayable",
      "type": "function"
    },
    {
      "inputs": [
        {
          "internalType": "bytes32",
          "name": "role",
          "type": "bytes32"
        },
        {
          "internalType": "address",
          "name": "account",
          "type": "address"
        }
      ],
      "name": "hasRole",
      "outputs": [
        {
          "internalType": "bool",
          "name": "",
          "type": "bool"
        }
      ],
      "stateMutability": "view",
      "type": "function"
    },
    {
      "inputs": [
        {
          "internalType": "address",
          "name": "owner",
          "type": "address"
        },
        {
          "internalType": "address",
          "name": "operator",
          "type": "address"
        }
      ],
      "name": "isApprovedForAll",
      "outputs": [
        {
          "internalType": "bool",
          "name": "",
          "type": "bool"
        }
      ],
      "stateMutability": "view",
      "type": "function"
    },
    {
      "inputs": [],
      "name": "name",
      "outputs": [
        {
          "internalType": "string",
          "name": "",
          "type": "string"
        }
      ],
      "stateMutability": "view",
      "type": "function"
    },
    {
      "inputs": [
        {
          "internalType": "uint256",
          "name": "tokenId",
          "type": "uint256"
        }
      ],
      "name": "ownerOf",
      "outputs": [
        {
          "internalType": "address",
          "name": "",
          "type": "address"
        }
      ],
      "stateMutability": "view",
      "type": "function"
    },
    {
      "inputs": [
        {
          "internalType": "address",
          "name": "redeemer",
          "type": "address"
        },
        {
          "components": [
            {
              "internalType": "uint256",
              "name": "tokenId",
              "type": "uint256"
            },
            {
              "internalType": "uint256",
              "name": "minPrice",
              "type": "uint256"
            },
            {
              "internalType": "string",
              "name": "uri",
              "type": "string"
            }
          ],
          "internalType": "struct Lazy.NFTVoucher",
          "name": "voucher",
          "type": "tuple"
        },
        {
          "internalType": "bytes",
          "name": "signature",
          "type": "bytes"
        }
      ],
      "name": "redeem",
      "outputs": [
        {
          "internalType": "uint256",
          "name": "",
          "type": "uint256"
        }
      ],
      "stateMutability": "payable",
      "type": "function"
    },
    {
      "inputs": [
        {
          "internalType": "bytes32",
          "name": "role",
          "type": "bytes32"
        },
        {
          "internalType": "address",
          "name": "account",
          "type": "address"
        }
      ],
      "name": "renounceRole",
      "outputs": [],
      "stateMutability": "nonpayable",
      "type": "function"
    },
    {
      "inputs": [
        {
          "internalType": "bytes32",
          "name": "role",
          "type": "bytes32"
        },
        {
          "internalType": "address",
          "name": "account",
          "type": "address"
        }
      ],
      "name": "revokeRole",
      "outputs": [],
      "stateMutability": "nonpayable",
      "type": "function"
    },
    {
      "inputs": [
        {
          "internalType": "address",
          "name": "from",
          "type": "address"
        },
        {
          "internalType": "address",
          "name": "to",
          "type": "address"
        },
        {
          "internalType": "uint256",
          "name": "tokenId",
          "type": "uint256"
        }
      ],
      "name": "safeTransferFrom",
      "outputs": [],
      "stateMutability": "nonpayable",
      "type": "function"
    },
    {
      "inputs": [
        {
          "internalType": "address",
          "name": "from",
          "type": "address"
        },
        {
          "internalType": "address",
          "name": "to",
          "type": "address"
        },
        {
          "internalType": "uint256",
          "name": "tokenId",
          "type": "uint256"
        },
        {
          "internalType": "bytes",
          "name": "_data",
          "type": "bytes"
        }
      ],
      "name": "safeTransferFrom",
      "outputs": [],
      "stateMutability": "nonpayable",
      "type": "function"
    },
    {
      "inputs": [
        {
          "internalType": "address",
          "name": "operator",
          "type": "address"
        },
        {
          "internalType": "bool",
          "name": "approved",
          "type": "bool"
        }
      ],
      "name": "setApprovalForAll",
      "outputs": [],
      "stateMutability": "nonpayable",
      "type": "function"
    },
    {
      "inputs": [
        {
          "internalType": "bytes4",
          "name": "interfaceId",
          "type": "bytes4"
        }
      ],
      "name": "supportsInterface",
      "outputs": [
        {
          "internalType": "bool",
          "name": "",
          "type": "bool"
        }
      ],
      "stateMutability": "view",
      "type": "function"
    },
    {
      "inputs": [],
      "name": "symbol",
      "outputs": [
        {
          "internalType": "string",
          "name": "",
          "type": "string"
        }
      ],
      "stateMutability": "view",
      "type": "function"
    },
    {
      "inputs": [
        {
          "internalType": "uint256",
          "name": "tokenId",
          "type": "uint256"
        }
      ],
      "name": "tokenURI",
      "outputs": [
        {
          "internalType": "string",
          "name": "",
          "type": "string"
        }
      ],
      "stateMutability": "view",
      "type": "function"
    },
    {
      "inputs": [
        {
          "internalType": "address",
          "name": "from",
          "type": "address"
        },
        {
          "internalType": "address",
          "name": "to",
          "type": "address"
        },
        {
          "internalType": "uint256",
          "name": "tokenId",
          "type": "uint256"
        }
      ],
      "name": "transferFrom",
      "outputs": [],
      "stateMutability": "nonpayable",
      "type": "function"
    },
    {
      "inputs": [],
      "name": "withdraw",
      "outputs": [],
      "stateMutability": "nonpayable",
      "type": "function"
    }
  ],
  "bytecode": "0x6101406040523480156200001257600080fd5b50604051806040016040528060048152602001634e616d6560e01b815250604051806040016040528060058152602001640312e302e360dc1b8152506040518060400160405280600781526020016613185e9e53919560ca1b815250604051806040016040528060038152602001622620ad60e91b8152508160009080519060200190620000a292919062000156565b508051620000b890600190602084019062000156565b5050825160208085019190912083518483012060e08290526101008190524660a0818152604080517f8b73c3c69bb8fe3d512ecc4cf759cc79239f7b179b0ffacaa9a75d522b39400f81880181905281830187905260608201869052608082019490945230818401528151808203909301835260c0019052805194019390932091935091906080523060601b60c05261012052506200023992505050565b8280546200016490620001fc565b90600052602060002090601f016020900481019282620001885760008555620001d3565b82601f10620001a357805160ff1916838001178555620001d3565b82800160010185558215620001d3579182015b82811115620001d3578251825591602001919060010190620001b6565b50620001e1929150620001e5565b5090565b5b80821115620001e15760008155600101620001e6565b600181811c908216806200021157607f821691505b602082108114156200023357634e487b7160e01b600052602260045260246000fd5b50919050565b60805160a05160c05160601c60e05161010051610120516125a26200028c6000396000611cbe01526000611d0d01526000611ce801526000611c4101526000611c6b01526000611c9501526125a26000f3fe6080604052600436106101405760003560e01c80636352211e116100b6578063b88d4fde1161006f578063b88d4fde14610386578063c87b56dd146103a6578063d5391393146103c6578063d547741f146103fa578063e322ad2b1461041a578063e985e9c51461043c57600080fd5b80636352211e146102dc57806370a08231146102fc57806391d148541461031c57806395d89b411461033c578063a217fddf14610351578063a22cb4651461036657600080fd5b806323b872dd1161010857806323b872dd14610217578063248a9ca3146102375780632f2ff15d1461026757806336568abe146102875780633ccfd60b146102a757806342842e0e146102bc57600080fd5b806301ffc9a71461014557806306fdde031461017a578063081812fc1461019c578063095ea7b3146101d45780631c098e90146101f6575b600080fd5b34801561015157600080fd5b506101656101603660046121b5565b610485565b60405190151581526020015b60405180910390f35b34801561018657600080fd5b5061018f6104a5565b604051610171919061230a565b3480156101a857600080fd5b506101bc6101b736600461217b565b610537565b6040516001600160a01b039091168152602001610171565b3480156101e057600080fd5b506101f46101ef366004612152565b6105c4565b005b6102096102043660046120da565b6106da565b604051908152602001610171565b34801561022357600080fd5b506101f4610232366004611fff565b6107d7565b34801561024357600080fd5b5061020961025236600461217b565b60009081526007602052604090206001015490565b34801561027357600080fd5b506101f4610282366004612193565b610808565b34801561029357600080fd5b506101f46102a2366004612193565b61082e565b3480156102b357600080fd5b506101f46108ac565b3480156102c857600080fd5b506101f46102d7366004611fff565b6108ef565b3480156102e857600080fd5b506101bc6102f736600461217b565b61090a565b34801561030857600080fd5b50610209610317366004611fb3565b610981565b34801561032857600080fd5b50610165610337366004612193565b610a08565b34801561034857600080fd5b5061018f610a33565b34801561035d57600080fd5b50610209600081565b34801561037257600080fd5b506101f46103813660046120a0565b610a42565b34801561039257600080fd5b506101f46103a136600461203a565b610a4d565b3480156103b257600080fd5b5061018f6103c136600461217b565b610a85565b3480156103d257600080fd5b506102097f9f2df0fed2c77648de5860a4cc508cd0818c85b8b8a1ab4ceeef8d981c8956a681565b34801561040657600080fd5b506101f4610415366004612193565b610bfc565b34801561042657600080fd5b5033600090815260086020526040902054610209565b34801561044857600080fd5b50610165610457366004611fcd565b6001600160a01b03918216600090815260056020908152604080832093909416825291909152205460ff1690565b600061049082610c22565b8061049f575061049f82610c72565b92915050565b6060600080546104b4906124aa565b80601f01602080910402602001604051908101604052809291908181526020018280546104e0906124aa565b801561052d5780601f106105025761010080835404028352916020019161052d565b820191906000526020600020905b81548152906001019060200180831161051057829003601f168201915b5050505050905090565b600061054282610c97565b6105a85760405162461bcd60e51b815260206004820152602c60248201527f4552433732313a20617070726f76656420717565727920666f72206e6f6e657860448201526b34b9ba32b73a103a37b5b2b760a11b60648201526084015b60405180910390fd5b506000908152600460205260409020546001600160a01b031690565b60006105cf8261090a565b9050806001600160a01b0316836001600160a01b0316141561063d5760405162461bcd60e51b815260206004820152602160248201527f4552433732313a20617070726f76616c20746f2063757272656e74206f776e656044820152603960f91b606482015260840161059f565b336001600160a01b038216148061065957506106598133610457565b6106cb5760405162461bcd60e51b815260206004820152603860248201527f4552433732313a20617070726f76652063616c6c6572206973206e6f74206f7760448201527f6e6572206e6f7220617070726f76656420666f7220616c6c0000000000000000606482015260840161059f565b6106d58383610cb4565b505050565b6000806106e78484610d22565b9050836020013534101561073d5760405162461bcd60e51b815260206004820152601c60248201527f496e73756666696369656e742066756e647320746f2072656465656d00000000604482015260640161059f565b610748818535610d45565b610794843561075a60408701876123c0565b8080601f016020809104026020016040519081016040528093929190818152602001838380828437600092019190915250610e7892505050565b6107a081868635610f03565b6001600160a01b038116600090815260086020526040812080543492906107c8908490612405565b90915550509235949350505050565b6107e133826110a3565b6107fd5760405162461bcd60e51b815260040161059f9061236f565b6106d5838383610f03565b6000828152600760205260409020600101546108248133611189565b6106d583836111ed565b6001600160a01b038116331461089e5760405162461bcd60e51b815260206004820152602f60248201527f416363657373436f6e74726f6c3a2063616e206f6e6c792072656e6f756e636560448201526e103937b632b9903337b91039b2b63360891b606482015260840161059f565b6108a88282611273565b5050565b3360008181526008602052604080822080549083905590519091839183156108fc0291849190818181858888f193505050501580156106d5573d6000803e3d6000fd5b6106d583838360405180602001604052806000815250610a4d565b6000818152600260205260408120546001600160a01b03168061049f5760405162461bcd60e51b815260206004820152602960248201527f4552433732313a206f776e657220717565727920666f72206e6f6e657869737460448201526832b73a103a37b5b2b760b91b606482015260840161059f565b60006001600160a01b0382166109ec5760405162461bcd60e51b815260206004820152602a60248201527f4552433732313a2062616c616e636520717565727920666f7220746865207a65604482015269726f206164647265737360b01b606482015260840161059f565b506001600160a01b031660009081526003602052604090205490565b60009182526007602090815260408084206001600160a01b0393909316845291905290205460ff1690565b6060600180546104b4906124aa565b6108a83383836112da565b610a5733836110a3565b610a735760405162461bcd60e51b815260040161059f9061236f565b610a7f848484846113a9565b50505050565b6060610a9082610c97565b610af65760405162461bcd60e51b815260206004820152603160248201527f45524337323155524953746f726167653a2055524920717565727920666f72206044820152703737b732bc34b9ba32b73a103a37b5b2b760791b606482015260840161059f565b60008281526006602052604081208054610b0f906124aa565b80601f0160208091040260200160405190810160405280929190818152602001828054610b3b906124aa565b8015610b885780601f10610b5d57610100808354040283529160200191610b88565b820191906000526020600020905b815481529060010190602001808311610b6b57829003601f168201915b505050505090506000610ba660408051602081019091526000815290565b9050805160001415610bb9575092915050565b815115610beb578082604051602001610bd3929190612229565b60405160208183030381529060405292505050919050565b610bf4846113dc565b949350505050565b600082815260076020526040902060010154610c188133611189565b6106d58383611273565b60006001600160e01b031982166380ac58cd60e01b1480610c5357506001600160e01b03198216635b5e139f60e01b145b8061049f57506301ffc9a760e01b6001600160e01b031983161461049f565b60006001600160e01b03198216637965db0b60e01b148061049f575061049f82610c22565b6000908152600260205260409020546001600160a01b0316151590565b600081815260046020526040902080546001600160a01b0319166001600160a01b0384169081179091558190610ce98261090a565b6001600160a01b03167f8c5be1e5ebec7d5bd14f71427d1e84f3dd0314c0f7b2291e5b200ac8c7c3b92560405160405180910390a45050565b600080610d2e846114b4565b90506000610d3c8285611545565b95945050505050565b6001600160a01b038216610d9b5760405162461bcd60e51b815260206004820181905260248201527f4552433732313a206d696e7420746f20746865207a65726f2061646472657373604482015260640161059f565b610da481610c97565b15610df15760405162461bcd60e51b815260206004820152601c60248201527f4552433732313a20746f6b656e20616c7265616479206d696e74656400000000604482015260640161059f565b6001600160a01b0382166000908152600360205260408120805460019290610e1a908490612405565b909155505060008181526002602052604080822080546001600160a01b0319166001600160a01b03861690811790915590518392907fddf252ad1be2c89b69c2b068fc378daa952ba7f163c4a11628f55a4df523b3ef908290a45050565b610e8182610c97565b610ee45760405162461bcd60e51b815260206004820152602e60248201527f45524337323155524953746f726167653a2055524920736574206f66206e6f6e60448201526d32bc34b9ba32b73a103a37b5b2b760911b606482015260840161059f565b600082815260066020908152604090912082516106d592840190611e77565b826001600160a01b0316610f168261090a565b6001600160a01b031614610f7e5760405162461bcd60e51b815260206004820152602960248201527f4552433732313a207472616e73666572206f6620746f6b656e2074686174206960448201526839903737ba1037bbb760b91b606482015260840161059f565b6001600160a01b038216610fe05760405162461bcd60e51b8152602060048201526024808201527f4552433732313a207472616e7366657220746f20746865207a65726f206164646044820152637265737360e01b606482015260840161059f565b610feb600082610cb4565b6001600160a01b0383166000908152600360205260408120805460019290611014908490612450565b90915550506001600160a01b0382166000908152600360205260408120805460019290611042908490612405565b909155505060008181526002602052604080822080546001600160a01b0319166001600160a01b0386811691821790925591518493918716917fddf252ad1be2c89b69c2b068fc378daa952ba7f163c4a11628f55a4df523b3ef91a4505050565b60006110ae82610c97565b61110f5760405162461bcd60e51b815260206004820152602c60248201527f4552433732313a206f70657261746f7220717565727920666f72206e6f6e657860448201526b34b9ba32b73a103a37b5b2b760a11b606482015260840161059f565b600061111a8361090a565b9050806001600160a01b0316846001600160a01b031614806111555750836001600160a01b031661114a84610537565b6001600160a01b0316145b80610bf457506001600160a01b0380821660009081526005602090815260408083209388168352929052205460ff16610bf4565b6111938282610a08565b6108a8576111ab816001600160a01b03166014611569565b6111b6836020611569565b6040516020016111c7929190612258565b60408051601f198184030181529082905262461bcd60e51b825261059f9160040161230a565b6111f78282610a08565b6108a85760008281526007602090815260408083206001600160a01b03851684529091529020805460ff1916600117905561122f3390565b6001600160a01b0316816001600160a01b0316837f2f8788117e7eff1d82e926ec794901d17c78024a50270940304540a733656f0d60405160405180910390a45050565b61127d8282610a08565b156108a85760008281526007602090815260408083206001600160a01b0385168085529252808320805460ff1916905551339285917ff6391f5c32d9c69d2a47ea670b442974b53935d1edc7fd64eb21e047a839171b9190a45050565b816001600160a01b0316836001600160a01b0316141561133c5760405162461bcd60e51b815260206004820152601960248201527f4552433732313a20617070726f766520746f2063616c6c657200000000000000604482015260640161059f565b6001600160a01b03838116600081815260056020908152604080832094871680845294825291829020805460ff191686151590811790915591519182527f17307eab39ab6107e8899845ad3d59bd9653f200f220920489ca2b5937696c31910160405180910390a3505050565b6113b4848484610f03565b6113c08484848461174b565b610a7f5760405162461bcd60e51b815260040161059f9061231d565b60606113e782610c97565b61144b5760405162461bcd60e51b815260206004820152602f60248201527f4552433732314d657461646174613a2055524920717565727920666f72206e6f60448201526e3732bc34b9ba32b73a103a37b5b2b760891b606482015260840161059f565b600061146260408051602081019091526000815290565b9050600081511161148257604051806020016040528060008152506114ad565b8061148c84611858565b60405160200161149d929190612229565b6040516020818303038152906040525b9392505050565b600061049f7f6316f9ddd4d59a364f3b95c26bab9d392c3380ace0fff15e91ed76f0d8bcd15a833560208501356114ee60408701876123c0565b6040516114fc929190612219565b60405190819003812061152a9493929160200193845260208401929092526040830152606082015260800190565b60405160208183030381529060405280519060200120611972565b600080600061155485856119c0565b9150915061156181611a30565b509392505050565b60606000611578836002612431565b611583906002612405565b67ffffffffffffffff8111156115a957634e487b7160e01b600052604160045260246000fd5b6040519080825280601f01601f1916602001820160405280156115d3576020820181803683370190505b509050600360fc1b816000815181106115fc57634e487b7160e01b600052603260045260246000fd5b60200101906001600160f81b031916908160001a905350600f60fb1b8160018151811061163957634e487b7160e01b600052603260045260246000fd5b60200101906001600160f81b031916908160001a905350600061165d846002612431565b611668906001612405565b90505b60018111156116fc576f181899199a1a9b1b9c1cb0b131b232b360811b85600f16601081106116aa57634e487b7160e01b600052603260045260246000fd5b1a60f81b8282815181106116ce57634e487b7160e01b600052603260045260246000fd5b60200101906001600160f81b031916908160001a90535060049490941c936116f581612493565b905061166b565b5083156114ad5760405162461bcd60e51b815260206004820181905260248201527f537472696e67733a20686578206c656e67746820696e73756666696369656e74604482015260640161059f565b60006001600160a01b0384163b1561184d57604051630a85bd0160e11b81526001600160a01b0385169063150b7a029061178f9033908990889088906004016122cd565b602060405180830381600087803b1580156117a957600080fd5b505af19250505080156117d9575060408051601f3d908101601f191682019092526117d6918101906121d1565b60015b611833573d808015611807576040519150601f19603f3d011682016040523d82523d6000602084013e61180c565b606091505b50805161182b5760405162461bcd60e51b815260040161059f9061231d565b805181602001fd5b6001600160e01b031916630a85bd0160e11b149050610bf4565b506001949350505050565b60608161187c5750506040805180820190915260018152600360fc1b602082015290565b8160005b81156118a65780611890816124e5565b915061189f9050600a8361241d565b9150611880565b60008167ffffffffffffffff8111156118cf57634e487b7160e01b600052604160045260246000fd5b6040519080825280601f01601f1916602001820160405280156118f9576020820181803683370190505b5090505b8415610bf45761190e600183612450565b915061191b600a86612500565b611926906030612405565b60f81b81838151811061194957634e487b7160e01b600052603260045260246000fd5b60200101906001600160f81b031916908160001a90535061196b600a8661241d565b94506118fd565b600061049f61197f611c34565b8360405161190160f01b6020820152602281018390526042810182905260009060620160405160208183030381529060405280519060200120905092915050565b6000808251604114156119f75760208301516040840151606085015160001a6119eb87828585611d5b565b94509450505050611a29565b825160401415611a215760208301516040840151611a16868383611e48565b935093505050611a29565b506000905060025b9250929050565b6000816004811115611a5257634e487b7160e01b600052602160045260246000fd5b1415611a5b5750565b6001816004811115611a7d57634e487b7160e01b600052602160045260246000fd5b1415611acb5760405162461bcd60e51b815260206004820152601860248201527f45434453413a20696e76616c6964207369676e61747572650000000000000000604482015260640161059f565b6002816004811115611aed57634e487b7160e01b600052602160045260246000fd5b1415611b3b5760405162461bcd60e51b815260206004820152601f60248201527f45434453413a20696e76616c6964207369676e6174757265206c656e67746800604482015260640161059f565b6003816004811115611b5d57634e487b7160e01b600052602160045260246000fd5b1415611bb65760405162461bcd60e51b815260206004820152602260248201527f45434453413a20696e76616c6964207369676e6174757265202773272076616c604482015261756560f01b606482015260840161059f565b6004816004811115611bd857634e487b7160e01b600052602160045260246000fd5b1415611c315760405162461bcd60e51b815260206004820152602260248201527f45434453413a20696e76616c6964207369676e6174757265202776272076616c604482015261756560f01b606482015260840161059f565b50565b6000306001600160a01b037f000000000000000000000000000000000000000000000000000000000000000016148015611c8d57507f000000000000000000000000000000000000000000000000000000000000000046145b15611cb757507f000000000000000000000000000000000000000000000000000000000000000090565b50604080517f00000000000000000000000000000000000000000000000000000000000000006020808301919091527f0000000000000000000000000000000000000000000000000000000000000000828401527f000000000000000000000000000000000000000000000000000000000000000060608301524660808301523060a0808401919091528351808403909101815260c0909201909252805191012090565b6000807f7fffffffffffffffffffffffffffffff5d576e7357a4501ddfe92f46681b20a0831115611d925750600090506003611e3f565b8460ff16601b14158015611daa57508460ff16601c14155b15611dbb5750600090506004611e3f565b6040805160008082526020820180845289905260ff881692820192909252606081018690526080810185905260019060a0016020604051602081039080840390855afa158015611e0f573d6000803e3d6000fd5b5050604051601f1901519150506001600160a01b038116611e3857600060019250925050611e3f565b9150600090505b94509492505050565b6000806001600160ff1b03831660ff84901c601b01611e6987828885611d5b565b935093505050935093915050565b828054611e83906124aa565b90600052602060002090601f016020900481019282611ea55760008555611eeb565b82601f10611ebe57805160ff1916838001178555611eeb565b82800160010185558215611eeb579182015b82811115611eeb578251825591602001919060010190611ed0565b50611ef7929150611efb565b5090565b5b80821115611ef75760008155600101611efc565b80356001600160a01b0381168114611f2757600080fd5b919050565b600082601f830112611f3c578081fd5b813567ffffffffffffffff80821115611f5757611f57612540565b604051601f8301601f19908116603f01168101908282118183101715611f7f57611f7f612540565b81604052838152866020858801011115611f97578485fd5b8360208701602083013792830160200193909352509392505050565b600060208284031215611fc4578081fd5b6114ad82611f10565b60008060408385031215611fdf578081fd5b611fe883611f10565b9150611ff660208401611f10565b90509250929050565b600080600060608486031215612013578081fd5b61201c84611f10565b925061202a60208501611f10565b9150604084013590509250925092565b6000806000806080858703121561204f578081fd5b61205885611f10565b935061206660208601611f10565b925060408501359150606085013567ffffffffffffffff811115612088578182fd5b61209487828801611f2c565b91505092959194509250565b600080604083850312156120b2578182fd5b6120bb83611f10565b9150602083013580151581146120cf578182fd5b809150509250929050565b6000806000606084860312156120ee578283fd5b6120f784611f10565b9250602084013567ffffffffffffffff80821115612113578384fd5b9085019060608288031215612126578384fd5b9092506040850135908082111561213b578283fd5b5061214886828701611f2c565b9150509250925092565b60008060408385031215612164578182fd5b61216d83611f10565b946020939093013593505050565b60006020828403121561218c578081fd5b5035919050565b600080604083850312156121a5578182fd5b82359150611ff660208401611f10565b6000602082840312156121c6578081fd5b81356114ad81612556565b6000602082840312156121e2578081fd5b81516114ad81612556565b60008151808452612205816020860160208601612467565b601f01601f19169290920160200192915050565b8183823760009101908152919050565b6000835161223b818460208801612467565b83519083019061224f818360208801612467565b01949350505050565b7f416363657373436f6e74726f6c3a206163636f756e7420000000000000000000815260008351612290816017850160208801612467565b7001034b99036b4b9b9b4b733903937b6329607d1b60179184019182015283516122c1816028840160208801612467565b01602801949350505050565b6001600160a01b0385811682528416602082015260408101839052608060608201819052600090612300908301846121ed565b9695505050505050565b6020815260006114ad60208301846121ed565b60208082526032908201527f4552433732313a207472616e7366657220746f206e6f6e20455243373231526560408201527131b2b4bb32b91034b6b83632b6b2b73a32b960711b606082015260800190565b60208082526031908201527f4552433732313a207472616e736665722063616c6c6572206973206e6f74206f6040820152701ddb995c881b9bdc88185c1c1c9bdd9959607a1b606082015260800190565b6000808335601e198436030181126123d6578283fd5b83018035915067ffffffffffffffff8211156123f0578283fd5b602001915036819003821315611a2957600080fd5b6000821982111561241857612418612514565b500190565b60008261242c5761242c61252a565b500490565b600081600019048311821515161561244b5761244b612514565b500290565b60008282101561246257612462612514565b500390565b60005b8381101561248257818101518382015260200161246a565b83811115610a7f5750506000910152565b6000816124a2576124a2612514565b506000190190565b600181811c908216806124be57607f821691505b602082108114156124df57634e487b7160e01b600052602260045260246000fd5b50919050565b60006000198214156124f9576124f9612514565b5060010190565b60008261250f5761250f61252a565b500690565b634e487b7160e01b600052601160045260246000fd5b634e487b7160e01b600052601260045260246000fd5b634e487b7160e01b600052604160045260246000fd5b6001600160e01b031981168114611c3157600080fdfea2646970667358221220c16022bb63d5c0d7280a3d7a8f0f654ff82d4dd0945ad94eff6eda18734f3ed164736f6c63430008040033",
  "linkReferences": {},
  "deployedLinkReferences": {}
}