{
  "_format": "hh-sol-artifact-1",
  "contractName": "NewERC1155Market",
  "sourceName": "contracts/NewERC1155Market.sol",
  "abi": [
    {
      "inputs": [],
      "stateMutability": "nonpayable",
      "type": "constructor"
    },
    {
      "anonymous": false,
      "inputs": [
        {
          "indexed": true,
          "internalType": "uint256",
          "name": "itemId",
          "type": "uint256"
        },
        {
          "indexed": true,
          "internalType": "uint256",
          "name": "tokenId",
          "type": "uint256"
        },
        {
          "indexed": false,
          "internalType": "address",
          "name": "seller",
          "type": "address"
        },
        {
          "indexed": false,
          "internalType": "uint256",
          "name": "price",
          "type": "uint256"
        },
        {
          "indexed": false,
          "internalType": "uint256",
          "name": "timestamp",
          "type": "uint256"
        }
      ],
      "name": "MarketItemCreated",
      "type": "event"
    },
    {
      "anonymous": false,
      "inputs": [
        {
          "indexed": false,
          "internalType": "uint256",
          "name": "itemId",
          "type": "uint256"
        },
        {
          "indexed": false,
          "internalType": "uint256",
          "name": "newPrice",
          "type": "uint256"
        }
      ],
      "name": "MarketItemPriceChanged",
      "type": "event"
    },
    {
      "anonymous": false,
      "inputs": [
        {
          "indexed": true,
          "internalType": "uint256",
          "name": "itemId",
          "type": "uint256"
        },
        {
          "indexed": true,
          "internalType": "uint256",
          "name": "tokenId",
          "type": "uint256"
        },
        {
          "indexed": false,
          "internalType": "address",
          "name": "seller",
          "type": "address"
        },
        {
          "indexed": false,
          "internalType": "address",
          "name": "buyer",
          "type": "address"
        },
        {
          "indexed": false,
          "internalType": "uint256",
          "name": "amount",
          "type": "uint256"
        }
      ],
      "name": "MarketItemSold",
      "type": "event"
    },
    {
      "anonymous": false,
      "inputs": [
        {
          "indexed": false,
          "internalType": "address",
          "name": "from",
          "type": "address"
        },
        {
          "indexed": false,
          "internalType": "address",
          "name": "to",
          "type": "address"
        },
        {
          "indexed": false,
          "internalType": "uint256",
          "name": "amount",
          "type": "uint256"
        }
      ],
      "name": "MoneyTransferred",
      "type": "event"
    },
    {
      "anonymous": false,
      "inputs": [
        {
          "indexed": false,
          "internalType": "address",
          "name": "from",
          "type": "address"
        },
        {
          "indexed": false,
          "internalType": "address",
          "name": "to",
          "type": "address"
        },
        {
          "indexed": false,
          "internalType": "uint256",
          "name": "tokenId",
          "type": "uint256"
        },
        {
          "indexed": false,
          "internalType": "uint256",
          "name": "amount",
          "type": "uint256"
        }
      ],
      "name": "NFTTransferred",
      "type": "event"
    },
    {
      "anonymous": false,
      "inputs": [
        {
          "indexed": true,
          "internalType": "address",
          "name": "previousOwner",
          "type": "address"
        },
        {
          "indexed": true,
          "internalType": "address",
          "name": "newOwner",
          "type": "address"
        }
      ],
      "name": "OwnershipTransferred",
      "type": "event"
    },
    {
      "inputs": [
        {
          "components": [
            {
              "internalType": "uint256",
              "name": "tokenId",
              "type": "uint256"
            },
            {
              "internalType": "uint256",
              "name": "minPrice",
              "type": "uint256"
            },
            {
              "internalType": "uint256",
              "name": "amount",
              "type": "uint256"
            },
            {
              "internalType": "string",
              "name": "uri",
              "type": "string"
            },
            {
              "internalType": "uint256",
              "name": "royaltyPercentage",
              "type": "uint256"
            }
          ],
          "internalType": "struct NewERC1155lazy.NFTVoucher",
          "name": "voucher",
          "type": "tuple"
        },
        {
          "internalType": "bytes",
          "name": "signature",
          "type": "bytes"
        },
        {
          "internalType": "uint256",
          "name": "amount",
          "type": "uint256"
        }
      ],
      "name": "buylazyitem",
      "outputs": [],
      "stateMutability": "payable",
      "type": "function"
    },
    {
      "inputs": [
        {
          "internalType": "uint256",
          "name": "_itemId",
          "type": "uint256"
        },
        {
          "internalType": "uint256",
          "name": "_newPrice",
          "type": "uint256"
        }
      ],
      "name": "changeMarketItemPrice",
      "outputs": [],
      "stateMutability": "nonpayable",
      "type": "function"
    },
    {
      "inputs": [
        {
          "internalType": "uint8",
          "name": "_marketPlaceShare",
          "type": "uint8"
        }
      ],
      "name": "changeMarketPlaceShare",
      "outputs": [],
      "stateMutability": "nonpayable",
      "type": "function"
    },
    {
      "inputs": [
        {
          "internalType": "uint256[]",
          "name": "tokenIds",
          "type": "uint256[]"
        },
        {
          "internalType": "uint256[]",
          "name": "prices",
          "type": "uint256[]"
        },
        {
          "internalType": "uint256[]",
          "name": "amounts",
          "type": "uint256[]"
        },
        {
          "internalType": "bytes",
          "name": "data",
          "type": "bytes"
        }
      ],
      "name": "createBatchMarketItem",
      "outputs": [
        {
          "internalType": "uint256",
          "name": "",
          "type": "uint256"
        }
      ],
      "stateMutability": "payable",
      "type": "function"
    },
    {
      "inputs": [
        {
          "internalType": "uint256",
          "name": "tokenId",
          "type": "uint256"
        },
        {
          "internalType": "uint256",
          "name": "price",
          "type": "uint256"
        },
        {
          "internalType": "uint256",
          "name": "amount",
          "type": "uint256"
        }
      ],
      "name": "createMarketItem",
      "outputs": [
        {
          "internalType": "uint256",
          "name": "",
          "type": "uint256"
        }
      ],
      "stateMutability": "payable",
      "type": "function"
    },
    {
      "inputs": [
        {
          "internalType": "uint256",
          "name": "tokenId",
          "type": "uint256"
        },
        {
          "internalType": "uint256",
          "name": "price",
          "type": "uint256"
        },
        {
          "internalType": "uint256",
          "name": "amount",
          "type": "uint256"
        },
        {
          "internalType": "address",
          "name": "seller",
          "type": "address"
        }
      ],
      "name": "createMarketItemlazy",
      "outputs": [
        {
          "internalType": "uint256",
          "name": "",
          "type": "uint256"
        }
      ],
      "stateMutability": "payable",
      "type": "function"
    },
    {
      "inputs": [
        {
          "internalType": "uint256",
          "name": "itemId",
          "type": "uint256"
        },
        {
          "internalType": "uint256",
          "name": "amount",
          "type": "uint256"
        }
      ],
      "name": "createMarketSale",
      "outputs": [],
      "stateMutability": "payable",
      "type": "function"
    },
    {
      "inputs": [
        {
          "internalType": "uint256",
          "name": "_marketItemId",
          "type": "uint256"
        }
      ],
      "name": "getMarketItemPrice",
      "outputs": [
        {
          "internalType": "uint256",
          "name": "",
          "type": "uint256"
        }
      ],
      "stateMutability": "view",
      "type": "function"
    },
    {
      "inputs": [
        {
          "internalType": "address",
          "name": "_NFTationContract",
          "type": "address"
        },
        {
          "internalType": "uint8",
          "name": "marketPlaceSharePercentage",
          "type": "uint8"
        }
      ],
      "name": "initToken",
      "outputs": [],
      "stateMutability": "nonpayable",
      "type": "function"
    },
    {
      "inputs": [],
      "name": "name",
      "outputs": [
        {
          "internalType": "string",
          "name": "",
          "type": "string"
        }
      ],
      "stateMutability": "view",
      "type": "function"
    },
    {
      "inputs": [
        {
          "internalType": "address",
          "name": "",
          "type": "address"
        },
        {
          "internalType": "address",
          "name": "",
          "type": "address"
        },
        {
          "internalType": "uint256[]",
          "name": "",
          "type": "uint256[]"
        },
        {
          "internalType": "uint256[]",
          "name": "",
          "type": "uint256[]"
        },
        {
          "internalType": "bytes",
          "name": "",
          "type": "bytes"
        }
      ],
      "name": "onERC1155BatchReceived",
      "outputs": [
        {
          "internalType": "bytes4",
          "name": "",
          "type": "bytes4"
        }
      ],
      "stateMutability": "nonpayable",
      "type": "function"
    },
    {
      "inputs": [
        {
          "internalType": "address",
          "name": "",
          "type": "address"
        },
        {
          "internalType": "address",
          "name": "",
          "type": "address"
        },
        {
          "internalType": "uint256",
          "name": "",
          "type": "uint256"
        },
        {
          "internalType": "uint256",
          "name": "",
          "type": "uint256"
        },
        {
          "internalType": "bytes",
          "name": "",
          "type": "bytes"
        }
      ],
      "name": "onERC1155Received",
      "outputs": [
        {
          "internalType": "bytes4",
          "name": "",
          "type": "bytes4"
        }
      ],
      "stateMutability": "nonpayable",
      "type": "function"
    },
    {
      "inputs": [],
      "name": "owner",
      "outputs": [
        {
          "internalType": "address",
          "name": "",
          "type": "address"
        }
      ],
      "stateMutability": "view",
      "type": "function"
    },
    {
      "inputs": [],
      "name": "renounceOwnership",
      "outputs": [],
      "stateMutability": "nonpayable",
      "type": "function"
    },
    {
      "inputs": [
        {
          "internalType": "bytes4",
          "name": "interfaceId",
          "type": "bytes4"
        }
      ],
      "name": "supportsInterface",
      "outputs": [
        {
          "internalType": "bool",
          "name": "",
          "type": "bool"
        }
      ],
      "stateMutability": "view",
      "type": "function"
    },
    {
      "inputs": [],
      "name": "symbol",
      "outputs": [
        {
          "internalType": "string",
          "name": "",
          "type": "string"
        }
      ],
      "stateMutability": "view",
      "type": "function"
    },
    {
      "inputs": [
        {
          "internalType": "address",
          "name": "newOwner",
          "type": "address"
        }
      ],
      "name": "transferOwnership",
      "outputs": [],
      "stateMutability": "nonpayable",
      "type": "function"
    }
  ],
  "bytecode": "0x6101406040523480156200001257600080fd5b5060408051808201825260048152634e616d6560e01b602080830191909152825180840190935260058352640312e302e360dc1b908301526001600055906200005b336200014c565b815160208084019190912082518383012060e08290526101008190524660a0818152604080517f8b73c3c69bb8fe3d512ecc4cf759cc79239f7b179b0ffacaa9a75d522b39400f81880181905281830187905260608201869052608082019490945230818401528151808203909301835260c00190528051940193909320919290916080523060c052610120525050604080518082019091526003808252621b999d60ea1b6020909201918252620001189350600692506200019e565b50604080518082019091526003808252621b999d60ea1b602090920191825262000145916007916200019e565b5062000281565b600180546001600160a01b038381166001600160a01b0319831681179093556040519116919082907f8be0079c531659141344cd1fd0a4f28419497f9722a3daafe3b4186f6b6457e090600090a35050565b828054620001ac9062000244565b90600052602060002090601f016020900481019282620001d057600085556200021b565b82601f10620001eb57805160ff19168380011785556200021b565b828001600101855582156200021b579182015b828111156200021b578251825591602001919060010190620001fe565b50620002299291506200022d565b5090565b5b808211156200022957600081556001016200022e565b600181811c908216806200025957607f821691505b602082108114156200027b57634e487b7160e01b600052602260045260246000fd5b50919050565b60805160a05160c05160e0516101005161012051611bad620002bf600039600050506000505060005050600050506000505060005050611bad6000f3fe6080604052600436106100fe5760003560e01c80638da5cb5b11610095578063e3a6a68f11610064578063e3a6a68f1461029d578063f23a6e61146102b0578063f2fde38b146102dc578063f65ec500146102fc578063f7cb79da1461031c57600080fd5b80638da5cb5b1461020857806395d89b4114610230578063a1c11ca814610245578063bc197c811461025857600080fd5b80636e2a165a116100d15780636e2a165a1461019d578063715018a6146101b057806379d2ca79146101c55780637e9a08c6146101d857600080fd5b806301648be91461010357806301ffc9a71461012557806306fdde031461015a578063320343da1461017c575b600080fd5b34801561010f57600080fd5b5061012361011e36600461130f565b61033c565b005b34801561013157600080fd5b50610145610140366004611331565b61038f565b60405190151581526020015b60405180910390f35b34801561016657600080fd5b5061016f6103c6565b60405161015191906113a8565b61018f61018a3660046113bb565b610454565b604051908152602001610151565b6101236101ab36600461149e565b610643565b3480156101bc57600080fd5b506101236106f6565b61018f6101d3366004611593565b61072c565b3480156101e457600080fd5b5061018f6101f3366004611640565b60009081526005602052604090206003015490565b34801561021457600080fd5b506001546040516001600160a01b039091168152602001610151565b34801561023c57600080fd5b5061016f61099a565b610123610253366004611659565b6109a7565b34801561026457600080fd5b50610284610273366004611690565b63bc197c8160e01b95945050505050565b6040516001600160e01b03199091168152602001610151565b61018f6102ab36600461173e565b610e0e565b3480156102bc57600080fd5b506102846102cb36600461177f565b63f23a6e6160e01b95945050505050565b3480156102e857600080fd5b506101236102f73660046117e8565b610ff4565b34801561030857600080fd5b50610123610317366004611805565b61108f565b34801561032857600080fd5b50610123610337366004611659565b6110e8565b6001546001600160a01b0316331461036f5760405162461bcd60e51b81526004016103669061183a565b60405180910390fd5b6004805460ff909216600160a01b0260ff60a01b19909216919091179055565b60006001600160e01b03198216630271189760e51b14806103c057506301ffc9a760e01b6001600160e01b03198316145b92915050565b600680546103d39061186f565b80601f01602080910402602001604051908101604052809291908181526020018280546103ff9061186f565b801561044c5780601f106104215761010080835404028352916020019161044c565b820191906000526020600020905b81548152906001019060200180831161042f57829003601f168201915b505050505081565b6000600260005414156104795760405162461bcd60e51b8152600401610366906118aa565b6002600055826104cb5760405162461bcd60e51b815260206004820152601c60248201527f7072696365206d7573742062652067726561746572207468616e2030000000006044820152606401610366565b6104d9600280546001019055565b60006104e460025490565b6040805160e081018252828152602080820189815233838501818152606085018b8152600060808701818152600160a0890181815260c08a018f81528c85526005998a9052938b902099518a5596519089015592516002880180546001600160a01b0319166001600160a01b0392831617905591516003880155915160048088018054965161ffff1990971692151561ff00191692909217610100961515969096029590951790559051949093019390935580549351637921219560e11b815294955092169263f242432a926105c1929130918b918a91016118e1565b600060405180830381600087803b1580156105db57600080fd5b505af11580156105ef573d6000803e3d6000fd5b50506040805133815260208101889052428183015290518893508492507f117136b53832b5e8bbde1e9e2b7e283939a09b780c150657c0fb8f2d9fff21479181900360600190a36001600055949350505050565b60048054604051639858787760e01b815260009283926001600160a01b031691639858787791610677918991899101611942565b6040805180830381600087803b15801561069057600080fd5b505af11580156106a4573d6000803e3d6000fd5b505050506040513d601f19601f820116820180604052508101906106c891906119e1565b9150915060006106e2838760200135886040013585610e0e565b90506106ee81856109a7565b505050505050565b6001546001600160a01b031633146107205760405162461bcd60e51b81526004016103669061183a565b61072a60006111e6565b565b6000600260005414156107515760405162461bcd60e51b8152600401610366906118aa565b600260009081555b855181101561098857610770600280546001019055565b600061077b60025490565b90506040518060e001604052808281526020018884815181106107a0576107a0611a11565b60200260200101518152602001336001600160a01b031681526020018784815181106107ce576107ce611a11565b602002602001015181526020016000151581526020016001151581526020018684815181106107ff576107ff611a11565b6020908102919091018101519091526000838152600580835260409182902084518155928401516001840155838201516002840180546001600160a01b039283166001600160a01b03199091161790556060850151600385015560808501516004808601805460a089015115156101000261ff00199415159490941661ffff19909116179290921790915560c090950151939091019290925582549051631759616b60e11b8152911691632eb2c2d6916108c391339130918d918c918c9101611a62565b600060405180830381600087803b1580156108dd57600080fd5b505af11580156108f1573d6000803e3d6000fd5b5050505086828151811061090757610907611a11565b6020026020010151817f117136b53832b5e8bbde1e9e2b7e283939a09b780c150657c0fb8f2d9fff21473389868151811061094457610944611a11565b602090810291909101810151604080516001600160a01b03909416845291830152429082015260600160405180910390a3508061098081611ad6565b915050610759565b50600254600160005595945050505050565b600780546103d39061186f565b600260005414156109ca5760405162461bcd60e51b8152600401610366906118aa565b6002600090815582815260056020526040812060038101549091906109f0908490611af1565b90506000826001015490506000848460050154610a0d9190611b10565b905082341015610a705760405162461bcd60e51b815260206004820152602860248201527f596f752073686f756c6420696e636c75646520746865207072696365206f6620604482015267746865206974656d60c01b6064820152608401610366565b60028401546001600160a01b0316331415610ad85760405162461bcd60e51b815260206004820152602260248201527f73656c6c65722063616e206e6f742062757920697473206f776e656420746f6b60448201526132b760f11b6064820152608401610366565b6000806000610ae78587611238565b9250925092508360001415610b195760048701805461ffff19166001179055610b14600380546001019055565b610b2b565b60048701805461ffff19166101001790555b60048701805461ffff19166001179055610b49600380546001019055565b6000610b5d6001546001600160a01b031690565b6001600160a01b03168460405160006040518083038185875af1925050503d8060008114610ba7576040519150601f19603f3d011682016040523d82523d6000602084013e610bac565b606091505b50508091505080610bbc57600080fd5b8215610c20576040516001600160a01b038316908490600081818185875af1925050503d8060008114610c0b576040519150601f19603f3d011682016040523d82523d6000602084013e610c10565b606091505b50508091505080610c2057600080fd5b600083610c2d868a611b10565b610c379190611b10565b60028a01546040519192506001600160a01b0316908290600081818185875af1925050503d8060008114610c87576040519150601f19603f3d011682016040523d82523d6000602084013e610c8c565b606091505b50508092505081610c9c57600080fd5b600460009054906101000a90046001600160a01b03166001600160a01b031663f242432a30338a8e6040518563ffffffff1660e01b8152600401610ce394939291906118e1565b600060405180830381600087803b158015610cfd57600080fd5b505af1158015610d11573d6000803e3d6000fd5b505050506002890154604080513381526001600160a01b03909216602083015281018290527fa1d7584d99165acdda7faf8e4dd6f4a82d358341586d4d953060fb95c3f31e6f9060600160405180910390a160408051308152336020820152908101889052606081018b90527fe85924fec68775525e5b7f8646261563e26e6b838e6c46e8d053d0bc623b88159060800160405180910390a16002890154604080516001600160a01b03909216825233602083015281018b905287908c907f458478e87af2f8355f5200460431fb85259efefed716e75b487251ae55fe04e09060600160405180910390a350506001600055505050505050505050565b600060026000541415610e335760405162461bcd60e51b8152600401610366906118aa565b600260005583610e855760405162461bcd60e51b815260206004820152601c60248201527f7072696365206d7573742062652067726561746572207468616e2030000000006044820152606401610366565b610e93600280546001019055565b6000610e9e60025490565b90506040518060e00160405280828152602001878152602001846001600160a01b031681526020018681526020016000151581526020016001151581526020018581525060056000838152602001908152602001600020600082015181600001556020820151816001015560408201518160020160006101000a8154816001600160a01b0302191690836001600160a01b031602179055506060820151816003015560808201518160040160006101000a81548160ff02191690831515021790555060a08201518160040160016101000a81548160ff02191690831515021790555060c0820151816005015590505085817f117136b53832b5e8bbde1e9e2b7e283939a09b780c150657c0fb8f2d9fff2147338842604051610fde939291906001600160a01b039390931683526020830191909152604082015260600190565b60405180910390a3600160005595945050505050565b6001546001600160a01b0316331461101e5760405162461bcd60e51b81526004016103669061183a565b6001600160a01b0381166110835760405162461bcd60e51b815260206004820152602660248201527f4f776e61626c653a206e6577206f776e657220697320746865207a65726f206160448201526564647265737360d01b6064820152608401610366565b61108c816111e6565b50565b6001546001600160a01b031633146110b95760405162461bcd60e51b81526004016103669061183a565b6004805460ff909216600160a01b026001600160a81b03199092166001600160a01b0390931692909217179055565b60008281526005602052604090206004810154610100900460ff166111455760405162461bcd60e51b8152602060048201526013602482015272496e76616c6964206d61726b6574206974656d60681b6044820152606401610366565b60028101546001600160a01b031633146111a15760405162461bcd60e51b815260206004820152601c60248201527f4f6e6c792073656c6c65722063616e206368616e6765207072696365000000006044820152606401610366565b6003810182905560408051848152602081018490527f9f7f3a0d2cdebf77b88fd30cf39db6676ba7bbe894bd756831e2cb17a6a20740910160405180910390a1505050565b600180546001600160a01b038381166001600160a01b0319831681179093556040519116919082907f8be0079c531659141344cd1fd0a4f28419497f9722a3daafe3b4186f6b6457e090600090a35050565b6004546000908190819060649061125a908690600160a01b900460ff16611af1565b6112649190611b27565b6004805460405163152a902d60e11b81529295506001600160a01b031691632a55205a9161129f918991899101918252602082015260400190565b604080518083038186803b1580156112b657600080fd5b505afa1580156112ca573d6000803e3d6000fd5b505050506040513d601f19601f820116820180604052508101906112ee9190611b49565b925090509250925092565b803560ff8116811461130a57600080fd5b919050565b60006020828403121561132157600080fd5b61132a826112f9565b9392505050565b60006020828403121561134357600080fd5b81356001600160e01b03198116811461132a57600080fd5b6000815180845260005b8181101561138157602081850181015186830182015201611365565b81811115611393576000602083870101525b50601f01601f19169290920160200192915050565b60208152600061132a602083018461135b565b6000806000606084860312156113d057600080fd5b505081359360208301359350604090920135919050565b634e487b7160e01b600052604160045260246000fd5b604051601f8201601f1916810167ffffffffffffffff81118282101715611426576114266113e7565b604052919050565b600082601f83011261143f57600080fd5b813567ffffffffffffffff811115611459576114596113e7565b61146c601f8201601f19166020016113fd565b81815284602083860101111561148157600080fd5b816020850160208301376000918101602001919091529392505050565b6000806000606084860312156114b357600080fd5b833567ffffffffffffffff808211156114cb57600080fd5b9085019060a082880312156114df57600080fd5b909350602085013590808211156114f557600080fd5b506115028682870161142e565b925050604084013590509250925092565b600082601f83011261152457600080fd5b8135602067ffffffffffffffff821115611540576115406113e7565b8160051b61154f8282016113fd565b928352848101820192828101908785111561156957600080fd5b83870192505b848310156115885782358252918301919083019061156f565b979650505050505050565b600080600080608085870312156115a957600080fd5b843567ffffffffffffffff808211156115c157600080fd5b6115cd88838901611513565b955060208701359150808211156115e357600080fd5b6115ef88838901611513565b9450604087013591508082111561160557600080fd5b61161188838901611513565b9350606087013591508082111561162757600080fd5b506116348782880161142e565b91505092959194509250565b60006020828403121561165257600080fd5b5035919050565b6000806040838503121561166c57600080fd5b50508035926020909101359150565b6001600160a01b038116811461108c57600080fd5b600080600080600060a086880312156116a857600080fd5b85356116b38161167b565b945060208601356116c38161167b565b9350604086013567ffffffffffffffff808211156116e057600080fd5b6116ec89838a01611513565b9450606088013591508082111561170257600080fd5b61170e89838a01611513565b9350608088013591508082111561172457600080fd5b506117318882890161142e565b9150509295509295909350565b6000806000806080858703121561175457600080fd5b84359350602085013592506040850135915060608501356117748161167b565b939692955090935050565b600080600080600060a0868803121561179757600080fd5b85356117a28161167b565b945060208601356117b28161167b565b93506040860135925060608601359150608086013567ffffffffffffffff8111156117dc57600080fd5b6117318882890161142e565b6000602082840312156117fa57600080fd5b813561132a8161167b565b6000806040838503121561181857600080fd5b82356118238161167b565b9150611831602084016112f9565b90509250929050565b6020808252818101527f4f776e61626c653a2063616c6c6572206973206e6f7420746865206f776e6572604082015260600190565b600181811c9082168061188357607f821691505b602082108114156118a457634e487b7160e01b600052602260045260246000fd5b50919050565b6020808252601f908201527f5265656e7472616e637947756172643a207265656e7472616e742063616c6c00604082015260600190565b6001600160a01b0394851681529290931660208301526040820152606081019190915260a06080820181905260009082015260c00190565b81835281816020850137506000828201602090810191909152601f909101601f19169091010190565b6040815282356040820152602083013560608201526040830135608082015260006060840135601e1985360301811261197a57600080fd5b8401803567ffffffffffffffff81111561199357600080fd5b8036038613156119a257600080fd5b60a0808501526119b960e085018260208501611919565b915050608085013560c084015282810360208401526119d8818561135b565b95945050505050565b600080604083850312156119f457600080fd5b825191506020830151611a068161167b565b809150509250929050565b634e487b7160e01b600052603260045260246000fd5b600081518084526020808501945080840160005b83811015611a5757815187529582019590820190600101611a3b565b509495945050505050565b6001600160a01b0386811682528516602082015260a060408201819052600090611a8e90830186611a27565b8281036060840152611aa08186611a27565b90508281036080840152611ab4818561135b565b98975050505050505050565b634e487b7160e01b600052601160045260246000fd5b6000600019821415611aea57611aea611ac0565b5060010190565b6000816000190483118215151615611b0b57611b0b611ac0565b500290565b600082821015611b2257611b22611ac0565b500390565b600082611b4457634e487b7160e01b600052601260045260246000fd5b500490565b60008060408385031215611b5c57600080fd5b8251611b678161167b565b602093909301519294929350505056fea2646970667358221220f6e2a53333407a53c6eaa50e070b8130b2a47ce074ff4496d2601f0de59905c764736f6c63430008090033",
  "linkReferences": {},
  "deployedLinkReferences": {}
}