{
  "_format": "hh-sol-artifact-1",
  "contractName": "NewERC1155Market",
  "sourceName": "contracts/NewERC1155Market.sol",
  "abi": [
    {
      "inputs": [],
      "stateMutability": "nonpayable",
      "type": "constructor"
    },
    {
      "anonymous": false,
      "inputs": [
        {
          "indexed": true,
          "internalType": "uint256",
          "name": "itemId",
          "type": "uint256"
        },
        {
          "indexed": true,
          "internalType": "uint256",
          "name": "tokenId",
          "type": "uint256"
        },
        {
          "indexed": false,
          "internalType": "address",
          "name": "seller",
          "type": "address"
        },
        {
          "indexed": false,
          "internalType": "uint256",
          "name": "price",
          "type": "uint256"
        },
        {
          "indexed": false,
          "internalType": "uint256",
          "name": "timestamp",
          "type": "uint256"
        }
      ],
      "name": "MarketItemCreated",
      "type": "event"
    },
    {
      "anonymous": false,
      "inputs": [
        {
          "indexed": false,
          "internalType": "uint256",
          "name": "itemId",
          "type": "uint256"
        },
        {
          "indexed": false,
          "internalType": "uint256",
          "name": "newPrice",
          "type": "uint256"
        }
      ],
      "name": "MarketItemPriceChanged",
      "type": "event"
    },
    {
      "anonymous": false,
      "inputs": [
        {
          "indexed": true,
          "internalType": "uint256",
          "name": "itemId",
          "type": "uint256"
        },
        {
          "indexed": true,
          "internalType": "uint256",
          "name": "tokenId",
          "type": "uint256"
        },
        {
          "indexed": false,
          "internalType": "address",
          "name": "seller",
          "type": "address"
        },
        {
          "indexed": false,
          "internalType": "address",
          "name": "buyer",
          "type": "address"
        },
        {
          "indexed": false,
          "internalType": "uint256",
          "name": "amount",
          "type": "uint256"
        }
      ],
      "name": "MarketItemSold",
      "type": "event"
    },
    {
      "anonymous": false,
      "inputs": [
        {
          "indexed": false,
          "internalType": "address",
          "name": "from",
          "type": "address"
        },
        {
          "indexed": false,
          "internalType": "address",
          "name": "to",
          "type": "address"
        },
        {
          "indexed": false,
          "internalType": "uint256",
          "name": "amount",
          "type": "uint256"
        }
      ],
      "name": "MoneyTransferred",
      "type": "event"
    },
    {
      "anonymous": false,
      "inputs": [
        {
          "indexed": false,
          "internalType": "address",
          "name": "from",
          "type": "address"
        },
        {
          "indexed": false,
          "internalType": "address",
          "name": "to",
          "type": "address"
        },
        {
          "indexed": false,
          "internalType": "uint256",
          "name": "tokenId",
          "type": "uint256"
        },
        {
          "indexed": false,
          "internalType": "uint256",
          "name": "amount",
          "type": "uint256"
        }
      ],
      "name": "NFTTransferred",
      "type": "event"
    },
    {
      "anonymous": false,
      "inputs": [
        {
          "indexed": true,
          "internalType": "address",
          "name": "previousOwner",
          "type": "address"
        },
        {
          "indexed": true,
          "internalType": "address",
          "name": "newOwner",
          "type": "address"
        }
      ],
      "name": "OwnershipTransferred",
      "type": "event"
    },
    {
      "inputs": [
        {
          "internalType": "uint256",
          "name": "_itemId",
          "type": "uint256"
        },
        {
          "internalType": "uint256",
          "name": "_newPrice",
          "type": "uint256"
        }
      ],
      "name": "changeMarketItemPrice",
      "outputs": [],
      "stateMutability": "nonpayable",
      "type": "function"
    },
    {
      "inputs": [
        {
          "internalType": "uint8",
          "name": "_marketPlaceShare",
          "type": "uint8"
        }
      ],
      "name": "changeMarketPlaceShare",
      "outputs": [],
      "stateMutability": "nonpayable",
      "type": "function"
    },
    {
      "inputs": [
        {
          "internalType": "uint256[]",
          "name": "tokenIds",
          "type": "uint256[]"
        },
        {
          "internalType": "uint256[]",
          "name": "prices",
          "type": "uint256[]"
        },
        {
          "internalType": "uint256[]",
          "name": "amounts",
          "type": "uint256[]"
        },
        {
          "internalType": "bytes",
          "name": "data",
          "type": "bytes"
        }
      ],
      "name": "createBatchMarketItem",
      "outputs": [
        {
          "internalType": "uint256",
          "name": "",
          "type": "uint256"
        }
      ],
      "stateMutability": "payable",
      "type": "function"
    },
    {
      "inputs": [
        {
          "internalType": "uint256",
          "name": "tokenId",
          "type": "uint256"
        },
        {
          "internalType": "uint256",
          "name": "price",
          "type": "uint256"
        },
        {
          "internalType": "uint256",
          "name": "amount",
          "type": "uint256"
        }
      ],
      "name": "createMarketItem",
      "outputs": [
        {
          "internalType": "uint256",
          "name": "",
          "type": "uint256"
        }
      ],
      "stateMutability": "payable",
      "type": "function"
    },
    {
      "inputs": [
        {
          "internalType": "uint256",
          "name": "itemId",
          "type": "uint256"
        },
        {
          "internalType": "uint256",
          "name": "amount",
          "type": "uint256"
        },
        {
          "internalType": "bytes",
          "name": "data",
          "type": "bytes"
        }
      ],
      "name": "createMarketSale",
      "outputs": [],
      "stateMutability": "payable",
      "type": "function"
    },
    {
      "inputs": [
        {
          "internalType": "uint256",
          "name": "_marketItemId",
          "type": "uint256"
        }
      ],
      "name": "getMarketItemPrice",
      "outputs": [
        {
          "internalType": "uint256",
          "name": "",
          "type": "uint256"
        }
      ],
      "stateMutability": "view",
      "type": "function"
    },
    {
      "inputs": [
        {
          "internalType": "address",
          "name": "_NFTationContract",
          "type": "address"
        },
        {
          "internalType": "uint8",
          "name": "marketPlaceSharePercentage",
          "type": "uint8"
        }
      ],
      "name": "initToken",
      "outputs": [],
      "stateMutability": "nonpayable",
      "type": "function"
    },
    {
      "inputs": [],
      "name": "name",
      "outputs": [
        {
          "internalType": "string",
          "name": "",
          "type": "string"
        }
      ],
      "stateMutability": "view",
      "type": "function"
    },
    {
      "inputs": [
        {
          "internalType": "address",
          "name": "",
          "type": "address"
        },
        {
          "internalType": "address",
          "name": "",
          "type": "address"
        },
        {
          "internalType": "uint256[]",
          "name": "",
          "type": "uint256[]"
        },
        {
          "internalType": "uint256[]",
          "name": "",
          "type": "uint256[]"
        },
        {
          "internalType": "bytes",
          "name": "",
          "type": "bytes"
        }
      ],
      "name": "onERC1155BatchReceived",
      "outputs": [
        {
          "internalType": "bytes4",
          "name": "",
          "type": "bytes4"
        }
      ],
      "stateMutability": "nonpayable",
      "type": "function"
    },
    {
      "inputs": [
        {
          "internalType": "address",
          "name": "",
          "type": "address"
        },
        {
          "internalType": "address",
          "name": "",
          "type": "address"
        },
        {
          "internalType": "uint256",
          "name": "",
          "type": "uint256"
        },
        {
          "internalType": "uint256",
          "name": "",
          "type": "uint256"
        },
        {
          "internalType": "bytes",
          "name": "",
          "type": "bytes"
        }
      ],
      "name": "onERC1155Received",
      "outputs": [
        {
          "internalType": "bytes4",
          "name": "",
          "type": "bytes4"
        }
      ],
      "stateMutability": "nonpayable",
      "type": "function"
    },
    {
      "inputs": [],
      "name": "owner",
      "outputs": [
        {
          "internalType": "address",
          "name": "",
          "type": "address"
        }
      ],
      "stateMutability": "view",
      "type": "function"
    },
    {
      "inputs": [],
      "name": "renounceOwnership",
      "outputs": [],
      "stateMutability": "nonpayable",
      "type": "function"
    },
    {
      "inputs": [
        {
          "internalType": "bytes4",
          "name": "interfaceId",
          "type": "bytes4"
        }
      ],
      "name": "supportsInterface",
      "outputs": [
        {
          "internalType": "bool",
          "name": "",
          "type": "bool"
        }
      ],
      "stateMutability": "view",
      "type": "function"
    },
    {
      "inputs": [],
      "name": "symbol",
      "outputs": [
        {
          "internalType": "string",
          "name": "",
          "type": "string"
        }
      ],
      "stateMutability": "view",
      "type": "function"
    },
    {
      "inputs": [
        {
          "internalType": "address",
          "name": "newOwner",
          "type": "address"
        }
      ],
      "name": "transferOwnership",
      "outputs": [],
      "stateMutability": "nonpayable",
      "type": "function"
    }
  ],
  "bytecode": "0x6101406040523480156200001257600080fd5b5060408051808201825260048152634e616d6560e01b602080830191909152825180840190935260058352640312e302e360dc1b908301526001600055906200005b336200014c565b815160208084019190912082518383012060e08290526101008190524660a0818152604080517f8b73c3c69bb8fe3d512ecc4cf759cc79239f7b179b0ffacaa9a75d522b39400f81880181905281830187905260608201869052608082019490945230818401528151808203909301835260c00190528051940193909320919290916080523060c052610120525050604080518082019091526003808252621b999d60ea1b6020909201918252620001189350600692506200019e565b50604080518082019091526003808252621b999d60ea1b602090920191825262000145916007916200019e565b5062000281565b600180546001600160a01b038381166001600160a01b0319831681179093556040519116919082907f8be0079c531659141344cd1fd0a4f28419497f9722a3daafe3b4186f6b6457e090600090a35050565b828054620001ac9062000244565b90600052602060002090601f016020900481019282620001d057600085556200021b565b82601f10620001eb57805160ff19168380011785556200021b565b828001600101855582156200021b579182015b828111156200021b578251825591602001919060010190620001fe565b50620002299291506200022d565b5090565b5b808211156200022957600081556001016200022e565b600181811c908216806200025957607f821691505b602082108114156200027b57634e487b7160e01b600052602260045260246000fd5b50919050565b60805160a05160c05160e05161010051610120516117b3620002bf6000396000505060005050600050506000505060005050600050506117b36000f3fe6080604052600436106100e85760003560e01c80638da5cb5b1161008a578063f23a6e6111610059578063f23a6e6114610274578063f2fde38b146102a0578063f65ec500146102c0578063f7cb79da146102e057600080fd5b80638da5cb5b146101df57806395d89b411461020757806399540b511461021c578063bc197c811461022f57600080fd5b8063320343da116100c6578063320343da14610166578063715018a61461018757806379d2ca791461019c5780637e9a08c6146101af57600080fd5b806301648be9146100ed57806301ffc9a71461010f57806306fdde0314610144575b600080fd5b3480156100f957600080fd5b5061010d610108366004611071565b610300565b005b34801561011b57600080fd5b5061012f61012a366004611093565b610353565b60405190151581526020015b60405180910390f35b34801561015057600080fd5b5061015961038a565b60405161013b919061110a565b61017961017436600461111d565b610418565b60405190815260200161013b565b34801561019357600080fd5b5061010d61063c565b6101796101aa366004611280565b610672565b3480156101bb57600080fd5b506101796101ca36600461132d565b60009081526005602052604090206003015490565b3480156101eb57600080fd5b506001546040516001600160a01b03909116815260200161013b565b34801561021357600080fd5b506101596108e0565b61010d61022a366004611346565b6108ed565b34801561023b57600080fd5b5061025b61024a3660046113ab565b63bc197c8160e01b95945050505050565b6040516001600160e01b0319909116815260200161013b565b34801561028057600080fd5b5061025b61028f366004611459565b63f23a6e6160e01b95945050505050565b3480156102ac57600080fd5b5061010d6102bb3660046114c2565b610d56565b3480156102cc57600080fd5b5061010d6102db3660046114df565b610df1565b3480156102ec57600080fd5b5061010d6102fb366004611514565b610e4a565b6001546001600160a01b031633146103335760405162461bcd60e51b815260040161032a90611536565b60405180910390fd5b6004805460ff909216600160a01b0260ff60a01b19909216919091179055565b60006001600160e01b03198216630271189760e51b148061038457506301ffc9a760e01b6001600160e01b03198316145b92915050565b600680546103979061156b565b80601f01602080910402602001604051908101604052809291908181526020018280546103c39061156b565b80156104105780601f106103e557610100808354040283529160200191610410565b820191906000526020600020905b8154815290600101906020018083116103f357829003601f168201915b505050505081565b60006002600054141561043d5760405162461bcd60e51b815260040161032a906115a6565b60026000558261048f5760405162461bcd60e51b815260206004820152601c60248201527f7072696365206d7573742062652067726561746572207468616e203000000000604482015260640161032a565b61049d600280546001019055565b60006104a860025490565b6040805160e081018252828152602080820189815233838501818152606085018b8152600060808701818152600160a0890181815260c08a018f81528c85526005998a9052938b902099518a5596519089015592516002880180546001600160a01b039283166001600160a01b031990911617905591516003880155915160048088018054965115156101000261ff00199315159390931661ffff1990971696909617919091179094559051949093019390935580549351637921219560e11b815294955092169263f242432a926105ba929130918b918a91016001600160a01b0394851681529290931660208301526040820152606081019190915260a06080820181905260009082015260c00190565b600060405180830381600087803b1580156105d457600080fd5b505af11580156105e8573d6000803e3d6000fd5b50506040805133815260208101889052428183015290518893508492507f117136b53832b5e8bbde1e9e2b7e283939a09b780c150657c0fb8f2d9fff21479181900360600190a36001600055949350505050565b6001546001600160a01b031633146106665760405162461bcd60e51b815260040161032a90611536565b6106706000610f48565b565b6000600260005414156106975760405162461bcd60e51b815260040161032a906115a6565b600260009081555b85518110156108ce576106b6600280546001019055565b60006106c160025490565b90506040518060e001604052808281526020018884815181106106e6576106e66115dd565b60200260200101518152602001336001600160a01b03168152602001878481518110610714576107146115dd565b60200260200101518152602001600015158152602001600115158152602001868481518110610745576107456115dd565b6020908102919091018101519091526000838152600580835260409182902084518155928401516001840155838201516002840180546001600160a01b039283166001600160a01b03199091161790556060850151600385015560808501516004808601805460a089015115156101000261ff00199415159490941661ffff19909116179290921790915560c090950151939091019290925582549051631759616b60e11b8152911691632eb2c2d69161080991339130918d918c918c910161162e565b600060405180830381600087803b15801561082357600080fd5b505af1158015610837573d6000803e3d6000fd5b5050505086828151811061084d5761084d6115dd565b6020026020010151817f117136b53832b5e8bbde1e9e2b7e283939a09b780c150657c0fb8f2d9fff21473389868151811061088a5761088a6115dd565b602090810291909101810151604080516001600160a01b03909416845291830152429082015260600160405180910390a350806108c6816116a2565b91505061069f565b50600254600160005595945050505050565b600780546103979061156b565b600260005414156109105760405162461bcd60e51b815260040161032a906115a6565b6002600090815583815260056020526040812060038101549091906109369085906116bd565b9050600082600101549050600085846005015461095391906116dc565b90508234146109b55760405162461bcd60e51b815260206004820152602860248201527f596f752073686f756c6420696e636c75646520746865207072696365206f6620604482015267746865206974656d60c01b606482015260840161032a565b60028401546001600160a01b0316331415610a1d5760405162461bcd60e51b815260206004820152602260248201527f73656c6c65722063616e206e6f742062757920697473206f776e656420746f6b60448201526132b760f11b606482015260840161032a565b6000806000610a2c8587610f9a565b9250925092508360001415610a5e5760048701805461ffff19166001179055610a59600380546001019055565b610a70565b60048701805461ffff19166101001790555b60048701805461ffff19166001179055610a8e600380546001019055565b6000610aa26001546001600160a01b031690565b6001600160a01b03168460405160006040518083038185875af1925050503d8060008114610aec576040519150601f19603f3d011682016040523d82523d6000602084013e610af1565b606091505b50508091505080610b0157600080fd5b8215610b65576040516001600160a01b038316908490600081818185875af1925050503d8060008114610b50576040519150601f19603f3d011682016040523d82523d6000602084013e610b55565b606091505b50508091505080610b6557600080fd5b600083610b72868a6116dc565b610b7c91906116dc565b60028a01546040519192506001600160a01b0316908290600081818185875af1925050503d8060008114610bcc576040519150601f19603f3d011682016040523d82523d6000602084013e610bd1565b606091505b50508092505081610be157600080fd5b600460009054906101000a90046001600160a01b03166001600160a01b031663f242432a30338a8f8f6040518663ffffffff1660e01b8152600401610c2a9594939291906116f3565b600060405180830381600087803b158015610c4457600080fd5b505af1158015610c58573d6000803e3d6000fd5b505050506002890154604080513381526001600160a01b03909216602083015281018290527fa1d7584d99165acdda7faf8e4dd6f4a82d358341586d4d953060fb95c3f31e6f9060600160405180910390a160408051308152336020820152908101889052606081018c90527fe85924fec68775525e5b7f8646261563e26e6b838e6c46e8d053d0bc623b88159060800160405180910390a16002890154604080516001600160a01b03909216825233602083015281018c905287908d907f458478e87af2f8355f5200460431fb85259efefed716e75b487251ae55fe04e09060600160405180910390a35050600160005550505050505050505050565b6001546001600160a01b03163314610d805760405162461bcd60e51b815260040161032a90611536565b6001600160a01b038116610de55760405162461bcd60e51b815260206004820152602660248201527f4f776e61626c653a206e6577206f776e657220697320746865207a65726f206160448201526564647265737360d01b606482015260840161032a565b610dee81610f48565b50565b6001546001600160a01b03163314610e1b5760405162461bcd60e51b815260040161032a90611536565b6004805460ff909216600160a01b026001600160a81b03199092166001600160a01b0390931692909217179055565b60008281526005602052604090206004810154610100900460ff16610ea75760405162461bcd60e51b8152602060048201526013602482015272496e76616c6964206d61726b6574206974656d60681b604482015260640161032a565b60028101546001600160a01b03163314610f035760405162461bcd60e51b815260206004820152601c60248201527f4f6e6c792073656c6c65722063616e206368616e676520707269636500000000604482015260640161032a565b6003810182905560408051848152602081018490527f9f7f3a0d2cdebf77b88fd30cf39db6676ba7bbe894bd756831e2cb17a6a20740910160405180910390a1505050565b600180546001600160a01b038381166001600160a01b0319831681179093556040519116919082907f8be0079c531659141344cd1fd0a4f28419497f9722a3daafe3b4186f6b6457e090600090a35050565b60045460009081908190606490610fbc908690600160a01b900460ff166116bd565b610fc6919061172d565b6004805460405163152a902d60e11b81529295506001600160a01b031691632a55205a91611001918991899101918252602082015260400190565b604080518083038186803b15801561101857600080fd5b505afa15801561102c573d6000803e3d6000fd5b505050506040513d601f19601f82011682018060405250810190611050919061174f565b925090509250925092565b803560ff8116811461106c57600080fd5b919050565b60006020828403121561108357600080fd5b61108c8261105b565b9392505050565b6000602082840312156110a557600080fd5b81356001600160e01b03198116811461108c57600080fd5b6000815180845260005b818110156110e3576020818501810151868301820152016110c7565b818111156110f5576000602083870101525b50601f01601f19169290920160200192915050565b60208152600061108c60208301846110bd565b60008060006060848603121561113257600080fd5b505081359360208301359350604090920135919050565b634e487b7160e01b600052604160045260246000fd5b604051601f8201601f1916810167ffffffffffffffff8111828210171561118857611188611149565b604052919050565b600082601f8301126111a157600080fd5b8135602067ffffffffffffffff8211156111bd576111bd611149565b8160051b6111cc82820161115f565b92835284810182019282810190878511156111e657600080fd5b83870192505b84831015611205578235825291830191908301906111ec565b979650505050505050565b600082601f83011261122157600080fd5b813567ffffffffffffffff81111561123b5761123b611149565b61124e601f8201601f191660200161115f565b81815284602083860101111561126357600080fd5b816020850160208301376000918101602001919091529392505050565b6000806000806080858703121561129657600080fd5b843567ffffffffffffffff808211156112ae57600080fd5b6112ba88838901611190565b955060208701359150808211156112d057600080fd5b6112dc88838901611190565b945060408701359150808211156112f257600080fd5b6112fe88838901611190565b9350606087013591508082111561131457600080fd5b5061132187828801611210565b91505092959194509250565b60006020828403121561133f57600080fd5b5035919050565b60008060006060848603121561135b57600080fd5b8335925060208401359150604084013567ffffffffffffffff81111561138057600080fd5b61138c86828701611210565b9150509250925092565b6001600160a01b0381168114610dee57600080fd5b600080600080600060a086880312156113c357600080fd5b85356113ce81611396565b945060208601356113de81611396565b9350604086013567ffffffffffffffff808211156113fb57600080fd5b61140789838a01611190565b9450606088013591508082111561141d57600080fd5b61142989838a01611190565b9350608088013591508082111561143f57600080fd5b5061144c88828901611210565b9150509295509295909350565b600080600080600060a0868803121561147157600080fd5b853561147c81611396565b9450602086013561148c81611396565b93506040860135925060608601359150608086013567ffffffffffffffff8111156114b657600080fd5b61144c88828901611210565b6000602082840312156114d457600080fd5b813561108c81611396565b600080604083850312156114f257600080fd5b82356114fd81611396565b915061150b6020840161105b565b90509250929050565b6000806040838503121561152757600080fd5b50508035926020909101359150565b6020808252818101527f4f776e61626c653a2063616c6c6572206973206e6f7420746865206f776e6572604082015260600190565b600181811c9082168061157f57607f821691505b602082108114156115a057634e487b7160e01b600052602260045260246000fd5b50919050565b6020808252601f908201527f5265656e7472616e637947756172643a207265656e7472616e742063616c6c00604082015260600190565b634e487b7160e01b600052603260045260246000fd5b600081518084526020808501945080840160005b8381101561162357815187529582019590820190600101611607565b509495945050505050565b6001600160a01b0386811682528516602082015260a06040820181905260009061165a908301866115f3565b828103606084015261166c81866115f3565b9050828103608084015261168081856110bd565b98975050505050505050565b634e487b7160e01b600052601160045260246000fd5b60006000198214156116b6576116b661168c565b5060010190565b60008160001904831182151516156116d7576116d761168c565b500290565b6000828210156116ee576116ee61168c565b500390565b6001600160a01b03868116825285166020820152604081018490526060810183905260a060808201819052600090611205908301846110bd565b60008261174a57634e487b7160e01b600052601260045260246000fd5b500490565b6000806040838503121561176257600080fd5b825161176d81611396565b602093909301519294929350505056fea2646970667358221220d9562111890362105848225f215adaf7f851b30bae9d220e9f77c393b70ea51064736f6c63430008090033",
  "linkReferences": {},
  "deployedLinkReferences": {}
}