{
  "_format": "hh-sol-artifact-1",
  "contractName": "NewERC1155Market",
  "sourceName": "contracts/NewERC1155Market.sol",
  "abi": [
    {
      "inputs": [],
      "stateMutability": "nonpayable",
      "type": "constructor"
    },
    {
      "anonymous": false,
      "inputs": [
        {
          "indexed": true,
          "internalType": "uint256",
          "name": "itemId",
          "type": "uint256"
        },
        {
          "indexed": true,
          "internalType": "uint256",
          "name": "tokenId",
          "type": "uint256"
        },
        {
          "indexed": false,
          "internalType": "address",
          "name": "seller",
          "type": "address"
        },
        {
          "indexed": false,
          "internalType": "uint256",
          "name": "price",
          "type": "uint256"
        },
        {
          "indexed": false,
          "internalType": "uint256",
          "name": "timestamp",
          "type": "uint256"
        }
      ],
      "name": "MarketItemCreated",
      "type": "event"
    },
    {
      "anonymous": false,
      "inputs": [
        {
          "indexed": false,
          "internalType": "uint256",
          "name": "itemId",
          "type": "uint256"
        },
        {
          "indexed": false,
          "internalType": "uint256",
          "name": "newPrice",
          "type": "uint256"
        }
      ],
      "name": "MarketItemPriceChanged",
      "type": "event"
    },
    {
      "anonymous": false,
      "inputs": [
        {
          "indexed": true,
          "internalType": "uint256",
          "name": "itemId",
          "type": "uint256"
        },
        {
          "indexed": true,
          "internalType": "uint256",
          "name": "tokenId",
          "type": "uint256"
        },
        {
          "indexed": false,
          "internalType": "address",
          "name": "seller",
          "type": "address"
        },
        {
          "indexed": false,
          "internalType": "address",
          "name": "buyer",
          "type": "address"
        },
        {
          "indexed": false,
          "internalType": "uint256",
          "name": "amount",
          "type": "uint256"
        }
      ],
      "name": "MarketItemSold",
      "type": "event"
    },
    {
      "anonymous": false,
      "inputs": [
        {
          "indexed": false,
          "internalType": "address",
          "name": "from",
          "type": "address"
        },
        {
          "indexed": false,
          "internalType": "address",
          "name": "to",
          "type": "address"
        },
        {
          "indexed": false,
          "internalType": "uint256",
          "name": "amount",
          "type": "uint256"
        }
      ],
      "name": "MoneyTransferred",
      "type": "event"
    },
    {
      "anonymous": false,
      "inputs": [
        {
          "indexed": false,
          "internalType": "address",
          "name": "from",
          "type": "address"
        },
        {
          "indexed": false,
          "internalType": "address",
          "name": "to",
          "type": "address"
        },
        {
          "indexed": false,
          "internalType": "uint256",
          "name": "tokenId",
          "type": "uint256"
        },
        {
          "indexed": false,
          "internalType": "uint256",
          "name": "amount",
          "type": "uint256"
        }
      ],
      "name": "NFTTransferred",
      "type": "event"
    },
    {
      "anonymous": false,
      "inputs": [
        {
          "indexed": true,
          "internalType": "address",
          "name": "previousOwner",
          "type": "address"
        },
        {
          "indexed": true,
          "internalType": "address",
          "name": "newOwner",
          "type": "address"
        }
      ],
      "name": "OwnershipTransferred",
      "type": "event"
    },
    {
      "inputs": [
        {
          "components": [
            {
              "internalType": "uint256",
              "name": "tokenId",
              "type": "uint256"
            },
            {
              "internalType": "uint256",
              "name": "minPrice",
              "type": "uint256"
            },
            {
              "internalType": "uint256",
              "name": "amount",
              "type": "uint256"
            },
            {
              "internalType": "string",
              "name": "uri",
              "type": "string"
            },
            {
              "internalType": "uint256",
              "name": "royaltyPercentage",
              "type": "uint256"
            }
          ],
          "internalType": "struct NewERC1155lazy.NFTVoucher",
          "name": "voucher",
          "type": "tuple"
        },
        {
          "internalType": "bytes",
          "name": "signature",
          "type": "bytes"
        },
        {
          "internalType": "uint256",
          "name": "amount",
          "type": "uint256"
        }
      ],
      "name": "buylazyitem",
      "outputs": [],
      "stateMutability": "payable",
      "type": "function"
    },
    {
      "inputs": [
        {
          "internalType": "uint256",
          "name": "_itemId",
          "type": "uint256"
        },
        {
          "internalType": "uint256",
          "name": "_newPrice",
          "type": "uint256"
        }
      ],
      "name": "changeMarketItemPrice",
      "outputs": [],
      "stateMutability": "nonpayable",
      "type": "function"
    },
    {
      "inputs": [
        {
          "internalType": "uint8",
          "name": "_marketPlaceShare",
          "type": "uint8"
        }
      ],
      "name": "changeMarketPlaceShare",
      "outputs": [],
      "stateMutability": "nonpayable",
      "type": "function"
    },
    {
      "inputs": [
        {
          "internalType": "uint256[]",
          "name": "tokenIds",
          "type": "uint256[]"
        },
        {
          "internalType": "uint256[]",
          "name": "prices",
          "type": "uint256[]"
        },
        {
          "internalType": "uint256[]",
          "name": "amounts",
          "type": "uint256[]"
        },
        {
          "internalType": "bytes",
          "name": "data",
          "type": "bytes"
        }
      ],
      "name": "createBatchMarketItem",
      "outputs": [
        {
          "internalType": "uint256",
          "name": "",
          "type": "uint256"
        }
      ],
      "stateMutability": "payable",
      "type": "function"
    },
    {
      "inputs": [
        {
          "internalType": "uint256",
          "name": "tokenId",
          "type": "uint256"
        },
        {
          "internalType": "uint256",
          "name": "price",
          "type": "uint256"
        },
        {
          "internalType": "uint256",
          "name": "amount",
          "type": "uint256"
        }
      ],
      "name": "createMarketItem",
      "outputs": [
        {
          "internalType": "uint256",
          "name": "",
          "type": "uint256"
        }
      ],
      "stateMutability": "payable",
      "type": "function"
    },
    {
      "inputs": [
        {
          "internalType": "uint256",
          "name": "tokenId",
          "type": "uint256"
        },
        {
          "internalType": "uint256",
          "name": "price",
          "type": "uint256"
        },
        {
          "internalType": "uint256",
          "name": "amount",
          "type": "uint256"
        },
        {
          "internalType": "address",
          "name": "seller",
          "type": "address"
        }
      ],
      "name": "createMarketItemlazy",
      "outputs": [
        {
          "internalType": "uint256",
          "name": "",
          "type": "uint256"
        }
      ],
      "stateMutability": "payable",
      "type": "function"
    },
    {
      "inputs": [
        {
          "internalType": "uint256",
          "name": "itemId",
          "type": "uint256"
        },
        {
          "internalType": "uint256",
          "name": "amount",
          "type": "uint256"
        }
      ],
      "name": "createMarketSale",
      "outputs": [],
      "stateMutability": "payable",
      "type": "function"
    },
    {
      "inputs": [
        {
          "internalType": "uint256",
          "name": "_marketItemId",
          "type": "uint256"
        }
      ],
      "name": "getMarketItemPrice",
      "outputs": [
        {
          "internalType": "uint256",
          "name": "",
          "type": "uint256"
        }
      ],
      "stateMutability": "view",
      "type": "function"
    },
    {
      "inputs": [
        {
          "internalType": "address",
          "name": "_NFTationContract",
          "type": "address"
        },
        {
          "internalType": "uint8",
          "name": "marketPlaceSharePercentage",
          "type": "uint8"
        }
      ],
      "name": "initToken",
      "outputs": [],
      "stateMutability": "nonpayable",
      "type": "function"
    },
    {
      "inputs": [],
      "name": "name",
      "outputs": [
        {
          "internalType": "string",
          "name": "",
          "type": "string"
        }
      ],
      "stateMutability": "view",
      "type": "function"
    },
    {
      "inputs": [
        {
          "internalType": "address",
          "name": "",
          "type": "address"
        },
        {
          "internalType": "address",
          "name": "",
          "type": "address"
        },
        {
          "internalType": "uint256[]",
          "name": "",
          "type": "uint256[]"
        },
        {
          "internalType": "uint256[]",
          "name": "",
          "type": "uint256[]"
        },
        {
          "internalType": "bytes",
          "name": "",
          "type": "bytes"
        }
      ],
      "name": "onERC1155BatchReceived",
      "outputs": [
        {
          "internalType": "bytes4",
          "name": "",
          "type": "bytes4"
        }
      ],
      "stateMutability": "nonpayable",
      "type": "function"
    },
    {
      "inputs": [
        {
          "internalType": "address",
          "name": "",
          "type": "address"
        },
        {
          "internalType": "address",
          "name": "",
          "type": "address"
        },
        {
          "internalType": "uint256",
          "name": "",
          "type": "uint256"
        },
        {
          "internalType": "uint256",
          "name": "",
          "type": "uint256"
        },
        {
          "internalType": "bytes",
          "name": "",
          "type": "bytes"
        }
      ],
      "name": "onERC1155Received",
      "outputs": [
        {
          "internalType": "bytes4",
          "name": "",
          "type": "bytes4"
        }
      ],
      "stateMutability": "nonpayable",
      "type": "function"
    },
    {
      "inputs": [],
      "name": "owner",
      "outputs": [
        {
          "internalType": "address",
          "name": "",
          "type": "address"
        }
      ],
      "stateMutability": "view",
      "type": "function"
    },
    {
      "inputs": [],
      "name": "renounceOwnership",
      "outputs": [],
      "stateMutability": "nonpayable",
      "type": "function"
    },
    {
      "inputs": [
        {
          "internalType": "bytes4",
          "name": "interfaceId",
          "type": "bytes4"
        }
      ],
      "name": "supportsInterface",
      "outputs": [
        {
          "internalType": "bool",
          "name": "",
          "type": "bool"
        }
      ],
      "stateMutability": "view",
      "type": "function"
    },
    {
      "inputs": [],
      "name": "symbol",
      "outputs": [
        {
          "internalType": "string",
          "name": "",
          "type": "string"
        }
      ],
      "stateMutability": "view",
      "type": "function"
    },
    {
      "inputs": [
        {
          "internalType": "address",
          "name": "newOwner",
          "type": "address"
        }
      ],
      "name": "transferOwnership",
      "outputs": [],
      "stateMutability": "nonpayable",
      "type": "function"
    }
  ],
  "bytecode": "0x6101406040523480156200001257600080fd5b5060408051808201825260048152634e616d6560e01b602080830191909152825180840190935260058352640312e302e360dc1b908301526001600055906200005b336200014c565b815160208084019190912082518383012060e08290526101008190524660a0818152604080517f8b73c3c69bb8fe3d512ecc4cf759cc79239f7b179b0ffacaa9a75d522b39400f81880181905281830187905260608201869052608082019490945230818401528151808203909301835260c00190528051940193909320919290916080523060c052610120525050604080518082019091526003808252621b999d60ea1b6020909201918252620001189350600692506200019e565b50604080518082019091526003808252621b999d60ea1b602090920191825262000145916007916200019e565b5062000281565b600180546001600160a01b038381166001600160a01b0319831681179093556040519116919082907f8be0079c531659141344cd1fd0a4f28419497f9722a3daafe3b4186f6b6457e090600090a35050565b828054620001ac9062000244565b90600052602060002090601f016020900481019282620001d057600085556200021b565b82601f10620001eb57805160ff19168380011785556200021b565b828001600101855582156200021b579182015b828111156200021b578251825591602001919060010190620001fe565b50620002299291506200022d565b5090565b5b808211156200022957600081556001016200022e565b600181811c908216806200025957607f821691505b602082108114156200027b57634e487b7160e01b600052602260045260246000fd5b50919050565b60805160a05160c05160e0516101005161012051611c08620002bf600039600050506000505060005050600050506000505060005050611c086000f3fe6080604052600436106100fe5760003560e01c80638da5cb5b11610095578063e3a6a68f11610064578063e3a6a68f1461029d578063f23a6e61146102b0578063f2fde38b146102dc578063f65ec500146102fc578063f7cb79da1461031c57600080fd5b80638da5cb5b1461020857806395d89b4114610230578063a1c11ca814610245578063bc197c811461025857600080fd5b80636e2a165a116100d15780636e2a165a1461019d578063715018a6146101b057806379d2ca79146101c55780637e9a08c6146101d857600080fd5b806301648be91461010357806301ffc9a71461012557806306fdde031461015a578063320343da1461017c575b600080fd5b34801561010f57600080fd5b5061012361011e36600461136a565b61033c565b005b34801561013157600080fd5b5061014561014036600461138c565b61038f565b60405190151581526020015b60405180910390f35b34801561016657600080fd5b5061016f6103c6565b6040516101519190611403565b61018f61018a366004611416565b610454565b604051908152602001610151565b6101236101ab3660046114f9565b610643565b3480156101bc57600080fd5b50610123610752565b61018f6101d33660046115ee565b610788565b3480156101e457600080fd5b5061018f6101f336600461169b565b60009081526005602052604090206003015490565b34801561021457600080fd5b506001546040516001600160a01b039091168152602001610151565b34801561023c57600080fd5b5061016f6109f6565b6101236102533660046116b4565b610a03565b34801561026457600080fd5b506102846102733660046116eb565b63bc197c8160e01b95945050505050565b6040516001600160e01b03199091168152602001610151565b61018f6102ab366004611799565b610e69565b3480156102bc57600080fd5b506102846102cb3660046117da565b63f23a6e6160e01b95945050505050565b3480156102e857600080fd5b506101236102f7366004611843565b61104f565b34801561030857600080fd5b50610123610317366004611860565b6110ea565b34801561032857600080fd5b506101236103373660046116b4565b611143565b6001546001600160a01b0316331461036f5760405162461bcd60e51b815260040161036690611895565b60405180910390fd5b6004805460ff909216600160a01b0260ff60a01b19909216919091179055565b60006001600160e01b03198216630271189760e51b14806103c057506301ffc9a760e01b6001600160e01b03198316145b92915050565b600680546103d3906118ca565b80601f01602080910402602001604051908101604052809291908181526020018280546103ff906118ca565b801561044c5780601f106104215761010080835404028352916020019161044c565b820191906000526020600020905b81548152906001019060200180831161042f57829003601f168201915b505050505081565b6000600260005414156104795760405162461bcd60e51b815260040161036690611905565b6002600055826104cb5760405162461bcd60e51b815260206004820152601c60248201527f7072696365206d7573742062652067726561746572207468616e2030000000006044820152606401610366565b6104d9600280546001019055565b60006104e460025490565b6040805160e081018252828152602080820189815233838501818152606085018b8152600060808701818152600160a0890181815260c08a018f81528c85526005998a9052938b902099518a5596519089015592516002880180546001600160a01b0319166001600160a01b0392831617905591516003880155915160048088018054965161ffff1990971692151561ff00191692909217610100961515969096029590951790559051949093019390935580549351637921219560e11b815294955092169263f242432a926105c1929130918b918a910161193c565b600060405180830381600087803b1580156105db57600080fd5b505af11580156105ef573d6000803e3d6000fd5b50506040805133815260208101889052428183015290518893508492507f117136b53832b5e8bbde1e9e2b7e283939a09b780c150657c0fb8f2d9fff21479181900360600190a36001600055949350505050565b61065181602085013561198a565b341461069f5760405162461bcd60e51b815260206004820152601c60248201527f496e73756666696369656e742066756e647320746f2072656465656d000000006044820152606401610366565b60048054604051639858787760e01b815260009283926001600160a01b0316916398587877916106d39189918991016119d2565b6040805180830381600087803b1580156106ec57600080fd5b505af1158015610700573d6000803e3d6000fd5b505050506040513d601f19601f820116820180604052508101906107249190611a71565b91509150600061073e838760200135886040013585610e69565b905061074a8185610a03565b505050505050565b6001546001600160a01b0316331461077c5760405162461bcd60e51b815260040161036690611895565b6107866000611241565b565b6000600260005414156107ad5760405162461bcd60e51b815260040161036690611905565b600260009081555b85518110156109e4576107cc600280546001019055565b60006107d760025490565b90506040518060e001604052808281526020018884815181106107fc576107fc611aa1565b60200260200101518152602001336001600160a01b0316815260200187848151811061082a5761082a611aa1565b6020026020010151815260200160001515815260200160011515815260200186848151811061085b5761085b611aa1565b6020908102919091018101519091526000838152600580835260409182902084518155928401516001840155838201516002840180546001600160a01b039283166001600160a01b03199091161790556060850151600385015560808501516004808601805460a089015115156101000261ff00199415159490941661ffff19909116179290921790915560c090950151939091019290925582549051631759616b60e11b8152911691632eb2c2d69161091f91339130918d918c918c9101611af2565b600060405180830381600087803b15801561093957600080fd5b505af115801561094d573d6000803e3d6000fd5b5050505086828151811061096357610963611aa1565b6020026020010151817f117136b53832b5e8bbde1e9e2b7e283939a09b780c150657c0fb8f2d9fff2147338986815181106109a0576109a0611aa1565b602090810291909101810151604080516001600160a01b03909416845291830152429082015260600160405180910390a350806109dc81611b50565b9150506107b5565b50600254600160005595945050505050565b600780546103d3906118ca565b60026000541415610a265760405162461bcd60e51b815260040161036690611905565b600260009081558281526005602052604081206003810154909190610a4c90849061198a565b90506000826001015490506000848460050154610a699190611b6b565b9050823414610acb5760405162461bcd60e51b815260206004820152602860248201527f596f752073686f756c6420696e636c75646520746865207072696365206f6620604482015267746865206974656d60c01b6064820152608401610366565b60028401546001600160a01b0316331415610b335760405162461bcd60e51b815260206004820152602260248201527f73656c6c65722063616e206e6f742062757920697473206f776e656420746f6b60448201526132b760f11b6064820152608401610366565b6000806000610b428587611293565b9250925092508360001415610b745760048701805461ffff19166001179055610b6f600380546001019055565b610b86565b60048701805461ffff19166101001790555b60048701805461ffff19166001179055610ba4600380546001019055565b6000610bb86001546001600160a01b031690565b6001600160a01b03168460405160006040518083038185875af1925050503d8060008114610c02576040519150601f19603f3d011682016040523d82523d6000602084013e610c07565b606091505b50508091505080610c1757600080fd5b8215610c7b576040516001600160a01b038316908490600081818185875af1925050503d8060008114610c66576040519150601f19603f3d011682016040523d82523d6000602084013e610c6b565b606091505b50508091505080610c7b57600080fd5b600083610c88868a611b6b565b610c929190611b6b565b60028a01546040519192506001600160a01b0316908290600081818185875af1925050503d8060008114610ce2576040519150601f19603f3d011682016040523d82523d6000602084013e610ce7565b606091505b50508092505081610cf757600080fd5b600460009054906101000a90046001600160a01b03166001600160a01b031663f242432a30338a8e6040518563ffffffff1660e01b8152600401610d3e949392919061193c565b600060405180830381600087803b158015610d5857600080fd5b505af1158015610d6c573d6000803e3d6000fd5b505050506002890154604080513381526001600160a01b03909216602083015281018290527fa1d7584d99165acdda7faf8e4dd6f4a82d358341586d4d953060fb95c3f31e6f9060600160405180910390a160408051308152336020820152908101889052606081018b90527fe85924fec68775525e5b7f8646261563e26e6b838e6c46e8d053d0bc623b88159060800160405180910390a16002890154604080516001600160a01b03909216825233602083015281018b905287908c907f458478e87af2f8355f5200460431fb85259efefed716e75b487251ae55fe04e09060600160405180910390a350506001600055505050505050505050565b600060026000541415610e8e5760405162461bcd60e51b815260040161036690611905565b600260005583610ee05760405162461bcd60e51b815260206004820152601c60248201527f7072696365206d7573742062652067726561746572207468616e2030000000006044820152606401610366565b610eee600280546001019055565b6000610ef960025490565b90506040518060e00160405280828152602001878152602001846001600160a01b031681526020018681526020016000151581526020016001151581526020018581525060056000838152602001908152602001600020600082015181600001556020820151816001015560408201518160020160006101000a8154816001600160a01b0302191690836001600160a01b031602179055506060820151816003015560808201518160040160006101000a81548160ff02191690831515021790555060a08201518160040160016101000a81548160ff02191690831515021790555060c0820151816005015590505085817f117136b53832b5e8bbde1e9e2b7e283939a09b780c150657c0fb8f2d9fff2147338842604051611039939291906001600160a01b039390931683526020830191909152604082015260600190565b60405180910390a3600160005595945050505050565b6001546001600160a01b031633146110795760405162461bcd60e51b815260040161036690611895565b6001600160a01b0381166110de5760405162461bcd60e51b815260206004820152602660248201527f4f776e61626c653a206e6577206f776e657220697320746865207a65726f206160448201526564647265737360d01b6064820152608401610366565b6110e781611241565b50565b6001546001600160a01b031633146111145760405162461bcd60e51b815260040161036690611895565b6004805460ff909216600160a01b026001600160a81b03199092166001600160a01b0390931692909217179055565b60008281526005602052604090206004810154610100900460ff166111a05760405162461bcd60e51b8152602060048201526013602482015272496e76616c6964206d61726b6574206974656d60681b6044820152606401610366565b60028101546001600160a01b031633146111fc5760405162461bcd60e51b815260206004820152601c60248201527f4f6e6c792073656c6c65722063616e206368616e6765207072696365000000006044820152606401610366565b6003810182905560408051848152602081018490527f9f7f3a0d2cdebf77b88fd30cf39db6676ba7bbe894bd756831e2cb17a6a20740910160405180910390a1505050565b600180546001600160a01b038381166001600160a01b0319831681179093556040519116919082907f8be0079c531659141344cd1fd0a4f28419497f9722a3daafe3b4186f6b6457e090600090a35050565b600454600090819081906064906112b5908690600160a01b900460ff1661198a565b6112bf9190611b82565b6004805460405163152a902d60e11b81529295506001600160a01b031691632a55205a916112fa918991899101918252602082015260400190565b604080518083038186803b15801561131157600080fd5b505afa158015611325573d6000803e3d6000fd5b505050506040513d601f19601f820116820180604052508101906113499190611ba4565b925090509250925092565b803560ff8116811461136557600080fd5b919050565b60006020828403121561137c57600080fd5b61138582611354565b9392505050565b60006020828403121561139e57600080fd5b81356001600160e01b03198116811461138557600080fd5b6000815180845260005b818110156113dc576020818501810151868301820152016113c0565b818111156113ee576000602083870101525b50601f01601f19169290920160200192915050565b60208152600061138560208301846113b6565b60008060006060848603121561142b57600080fd5b505081359360208301359350604090920135919050565b634e487b7160e01b600052604160045260246000fd5b604051601f8201601f1916810167ffffffffffffffff8111828210171561148157611481611442565b604052919050565b600082601f83011261149a57600080fd5b813567ffffffffffffffff8111156114b4576114b4611442565b6114c7601f8201601f1916602001611458565b8181528460208386010111156114dc57600080fd5b816020850160208301376000918101602001919091529392505050565b60008060006060848603121561150e57600080fd5b833567ffffffffffffffff8082111561152657600080fd5b9085019060a0828803121561153a57600080fd5b9093506020850135908082111561155057600080fd5b5061155d86828701611489565b925050604084013590509250925092565b600082601f83011261157f57600080fd5b8135602067ffffffffffffffff82111561159b5761159b611442565b8160051b6115aa828201611458565b92835284810182019282810190878511156115c457600080fd5b83870192505b848310156115e3578235825291830191908301906115ca565b979650505050505050565b6000806000806080858703121561160457600080fd5b843567ffffffffffffffff8082111561161c57600080fd5b6116288883890161156e565b9550602087013591508082111561163e57600080fd5b61164a8883890161156e565b9450604087013591508082111561166057600080fd5b61166c8883890161156e565b9350606087013591508082111561168257600080fd5b5061168f87828801611489565b91505092959194509250565b6000602082840312156116ad57600080fd5b5035919050565b600080604083850312156116c757600080fd5b50508035926020909101359150565b6001600160a01b03811681146110e757600080fd5b600080600080600060a0868803121561170357600080fd5b853561170e816116d6565b9450602086013561171e816116d6565b9350604086013567ffffffffffffffff8082111561173b57600080fd5b61174789838a0161156e565b9450606088013591508082111561175d57600080fd5b61176989838a0161156e565b9350608088013591508082111561177f57600080fd5b5061178c88828901611489565b9150509295509295909350565b600080600080608085870312156117af57600080fd5b84359350602085013592506040850135915060608501356117cf816116d6565b939692955090935050565b600080600080600060a086880312156117f257600080fd5b85356117fd816116d6565b9450602086013561180d816116d6565b93506040860135925060608601359150608086013567ffffffffffffffff81111561183757600080fd5b61178c88828901611489565b60006020828403121561185557600080fd5b8135611385816116d6565b6000806040838503121561187357600080fd5b823561187e816116d6565b915061188c60208401611354565b90509250929050565b6020808252818101527f4f776e61626c653a2063616c6c6572206973206e6f7420746865206f776e6572604082015260600190565b600181811c908216806118de57607f821691505b602082108114156118ff57634e487b7160e01b600052602260045260246000fd5b50919050565b6020808252601f908201527f5265656e7472616e637947756172643a207265656e7472616e742063616c6c00604082015260600190565b6001600160a01b0394851681529290931660208301526040820152606081019190915260a06080820181905260009082015260c00190565b634e487b7160e01b600052601160045260246000fd5b60008160001904831182151516156119a4576119a4611974565b500290565b81835281816020850137506000828201602090810191909152601f909101601f19169091010190565b6040815282356040820152602083013560608201526040830135608082015260006060840135601e19853603018112611a0a57600080fd5b8401803567ffffffffffffffff811115611a2357600080fd5b803603861315611a3257600080fd5b60a080850152611a4960e0850182602085016119a9565b915050608085013560c08401528281036020840152611a6881856113b6565b95945050505050565b60008060408385031215611a8457600080fd5b825191506020830151611a96816116d6565b809150509250929050565b634e487b7160e01b600052603260045260246000fd5b600081518084526020808501945080840160005b83811015611ae757815187529582019590820190600101611acb565b509495945050505050565b6001600160a01b0386811682528516602082015260a060408201819052600090611b1e90830186611ab7565b8281036060840152611b308186611ab7565b90508281036080840152611b4481856113b6565b98975050505050505050565b6000600019821415611b6457611b64611974565b5060010190565b600082821015611b7d57611b7d611974565b500390565b600082611b9f57634e487b7160e01b600052601260045260246000fd5b500490565b60008060408385031215611bb757600080fd5b8251611bc2816116d6565b602093909301519294929350505056fea2646970667358221220fed29a4b26cec44cfc959d9e8f9ce5dbfce5f9f707d44d27fcf0c2bf9c36ce8064736f6c63430008090033",
  "linkReferences": {},
  "deployedLinkReferences": {}
}