{
  "_format": "hh-sol-artifact-1",
  "contractName": "NewERC1155Market",
  "sourceName": "contracts/NewERC1155Market.sol",
  "abi": [
    {
      "inputs": [],
      "stateMutability": "nonpayable",
      "type": "constructor"
    },
    {
      "anonymous": false,
      "inputs": [
        {
          "indexed": true,
          "internalType": "uint256",
          "name": "itemId",
          "type": "uint256"
        },
        {
          "indexed": true,
          "internalType": "uint256",
          "name": "tokenId",
          "type": "uint256"
        },
        {
          "indexed": false,
          "internalType": "address",
          "name": "seller",
          "type": "address"
        },
        {
          "indexed": false,
          "internalType": "uint256",
          "name": "price",
          "type": "uint256"
        },
        {
          "indexed": false,
          "internalType": "uint256",
          "name": "timestamp",
          "type": "uint256"
        }
      ],
      "name": "MarketItemCreated",
      "type": "event"
    },
    {
      "anonymous": false,
      "inputs": [
        {
          "indexed": false,
          "internalType": "uint256",
          "name": "itemId",
          "type": "uint256"
        },
        {
          "indexed": false,
          "internalType": "uint256",
          "name": "newPrice",
          "type": "uint256"
        }
      ],
      "name": "MarketItemPriceChanged",
      "type": "event"
    },
    {
      "anonymous": false,
      "inputs": [
        {
          "indexed": true,
          "internalType": "uint256",
          "name": "itemId",
          "type": "uint256"
        },
        {
          "indexed": true,
          "internalType": "uint256",
          "name": "tokenId",
          "type": "uint256"
        },
        {
          "indexed": false,
          "internalType": "address",
          "name": "seller",
          "type": "address"
        },
        {
          "indexed": false,
          "internalType": "address",
          "name": "buyer",
          "type": "address"
        },
        {
          "indexed": false,
          "internalType": "uint256",
          "name": "amount",
          "type": "uint256"
        }
      ],
      "name": "MarketItemSold",
      "type": "event"
    },
    {
      "anonymous": false,
      "inputs": [
        {
          "indexed": false,
          "internalType": "address",
          "name": "from",
          "type": "address"
        },
        {
          "indexed": false,
          "internalType": "address",
          "name": "to",
          "type": "address"
        },
        {
          "indexed": false,
          "internalType": "uint256",
          "name": "amount",
          "type": "uint256"
        }
      ],
      "name": "MoneyTransferred",
      "type": "event"
    },
    {
      "anonymous": false,
      "inputs": [
        {
          "indexed": false,
          "internalType": "address",
          "name": "from",
          "type": "address"
        },
        {
          "indexed": false,
          "internalType": "address",
          "name": "to",
          "type": "address"
        },
        {
          "indexed": false,
          "internalType": "uint256",
          "name": "tokenId",
          "type": "uint256"
        },
        {
          "indexed": false,
          "internalType": "uint256",
          "name": "amount",
          "type": "uint256"
        }
      ],
      "name": "NFTTransferred",
      "type": "event"
    },
    {
      "anonymous": false,
      "inputs": [
        {
          "indexed": true,
          "internalType": "address",
          "name": "previousOwner",
          "type": "address"
        },
        {
          "indexed": true,
          "internalType": "address",
          "name": "newOwner",
          "type": "address"
        }
      ],
      "name": "OwnershipTransferred",
      "type": "event"
    },
    {
      "inputs": [
        {
          "components": [
            {
              "internalType": "uint256",
              "name": "tokenId",
              "type": "uint256"
            },
            {
              "internalType": "uint256",
              "name": "minPrice",
              "type": "uint256"
            },
            {
              "internalType": "uint256",
              "name": "amount",
              "type": "uint256"
            },
            {
              "internalType": "string",
              "name": "uri",
              "type": "string"
            },
            {
              "internalType": "uint256",
              "name": "royaltyPercentage",
              "type": "uint256"
            }
          ],
          "internalType": "struct NewERC1155Lazy.NFTVoucher",
          "name": "voucher",
          "type": "tuple"
        },
        {
          "internalType": "bytes",
          "name": "signature",
          "type": "bytes"
        },
        {
          "internalType": "uint256",
          "name": "amount",
          "type": "uint256"
        }
      ],
      "name": "buyLazyItem",
      "outputs": [],
      "stateMutability": "payable",
      "type": "function"
    },
    {
      "inputs": [
        {
          "internalType": "uint256",
          "name": "_itemId",
          "type": "uint256"
        },
        {
          "internalType": "uint256",
          "name": "_newPrice",
          "type": "uint256"
        }
      ],
      "name": "changeMarketItemPrice",
      "outputs": [],
      "stateMutability": "nonpayable",
      "type": "function"
    },
    {
      "inputs": [
        {
          "internalType": "uint8",
          "name": "_marketPlaceShare",
          "type": "uint8"
        }
      ],
      "name": "changeMarketPlaceShare",
      "outputs": [],
      "stateMutability": "nonpayable",
      "type": "function"
    },
    {
      "inputs": [
        {
          "internalType": "uint256[]",
          "name": "tokenIds",
          "type": "uint256[]"
        },
        {
          "internalType": "uint256[]",
          "name": "prices",
          "type": "uint256[]"
        },
        {
          "internalType": "uint256[]",
          "name": "amounts",
          "type": "uint256[]"
        },
        {
          "internalType": "bytes",
          "name": "data",
          "type": "bytes"
        }
      ],
      "name": "createBatchMarketItem",
      "outputs": [
        {
          "internalType": "uint256",
          "name": "",
          "type": "uint256"
        }
      ],
      "stateMutability": "payable",
      "type": "function"
    },
    {
      "inputs": [
        {
          "internalType": "uint256",
          "name": "tokenId",
          "type": "uint256"
        },
        {
          "internalType": "uint256",
          "name": "price",
          "type": "uint256"
        },
        {
          "internalType": "uint256",
          "name": "amount",
          "type": "uint256"
        }
      ],
      "name": "createMarketItem",
      "outputs": [
        {
          "internalType": "uint256",
          "name": "",
          "type": "uint256"
        }
      ],
      "stateMutability": "payable",
      "type": "function"
    },
    {
      "inputs": [
        {
          "internalType": "uint256",
          "name": "tokenId",
          "type": "uint256"
        },
        {
          "internalType": "uint256",
          "name": "price",
          "type": "uint256"
        },
        {
          "internalType": "uint256",
          "name": "amount",
          "type": "uint256"
        },
        {
          "internalType": "address",
          "name": "seller",
          "type": "address"
        }
      ],
      "name": "createMarketItemlazy",
      "outputs": [
        {
          "internalType": "uint256",
          "name": "",
          "type": "uint256"
        }
      ],
      "stateMutability": "payable",
      "type": "function"
    },
    {
      "inputs": [
        {
          "internalType": "uint256",
          "name": "itemId",
          "type": "uint256"
        },
        {
          "internalType": "uint256",
          "name": "amount",
          "type": "uint256"
        }
      ],
      "name": "createMarketSale",
      "outputs": [],
      "stateMutability": "payable",
      "type": "function"
    },
    {
      "inputs": [
        {
          "internalType": "uint256",
          "name": "_marketItemId",
          "type": "uint256"
        }
      ],
      "name": "getMarketItemPrice",
      "outputs": [
        {
          "internalType": "uint256",
          "name": "",
          "type": "uint256"
        }
      ],
      "stateMutability": "view",
      "type": "function"
    },
    {
      "inputs": [
        {
          "internalType": "address",
          "name": "_NFTationContract",
          "type": "address"
        },
        {
          "internalType": "uint8",
          "name": "marketPlaceSharePercentage",
          "type": "uint8"
        }
      ],
      "name": "initToken",
      "outputs": [],
      "stateMutability": "nonpayable",
      "type": "function"
    },
    {
      "inputs": [],
      "name": "name",
      "outputs": [
        {
          "internalType": "string",
          "name": "",
          "type": "string"
        }
      ],
      "stateMutability": "view",
      "type": "function"
    },
    {
      "inputs": [
        {
          "internalType": "address",
          "name": "",
          "type": "address"
        },
        {
          "internalType": "address",
          "name": "",
          "type": "address"
        },
        {
          "internalType": "uint256[]",
          "name": "",
          "type": "uint256[]"
        },
        {
          "internalType": "uint256[]",
          "name": "",
          "type": "uint256[]"
        },
        {
          "internalType": "bytes",
          "name": "",
          "type": "bytes"
        }
      ],
      "name": "onERC1155BatchReceived",
      "outputs": [
        {
          "internalType": "bytes4",
          "name": "",
          "type": "bytes4"
        }
      ],
      "stateMutability": "nonpayable",
      "type": "function"
    },
    {
      "inputs": [
        {
          "internalType": "address",
          "name": "",
          "type": "address"
        },
        {
          "internalType": "address",
          "name": "",
          "type": "address"
        },
        {
          "internalType": "uint256",
          "name": "",
          "type": "uint256"
        },
        {
          "internalType": "uint256",
          "name": "",
          "type": "uint256"
        },
        {
          "internalType": "bytes",
          "name": "",
          "type": "bytes"
        }
      ],
      "name": "onERC1155Received",
      "outputs": [
        {
          "internalType": "bytes4",
          "name": "",
          "type": "bytes4"
        }
      ],
      "stateMutability": "nonpayable",
      "type": "function"
    },
    {
      "inputs": [],
      "name": "owner",
      "outputs": [
        {
          "internalType": "address",
          "name": "",
          "type": "address"
        }
      ],
      "stateMutability": "view",
      "type": "function"
    },
    {
      "inputs": [],
      "name": "renounceOwnership",
      "outputs": [],
      "stateMutability": "nonpayable",
      "type": "function"
    },
    {
      "inputs": [
        {
          "internalType": "bytes4",
          "name": "interfaceId",
          "type": "bytes4"
        }
      ],
      "name": "supportsInterface",
      "outputs": [
        {
          "internalType": "bool",
          "name": "",
          "type": "bool"
        }
      ],
      "stateMutability": "view",
      "type": "function"
    },
    {
      "inputs": [],
      "name": "symbol",
      "outputs": [
        {
          "internalType": "string",
          "name": "",
          "type": "string"
        }
      ],
      "stateMutability": "view",
      "type": "function"
    },
    {
      "inputs": [
        {
          "internalType": "address",
          "name": "newOwner",
          "type": "address"
        }
      ],
      "name": "transferOwnership",
      "outputs": [],
      "stateMutability": "nonpayable",
      "type": "function"
    }
  ],
  "bytecode": "0x6101406040523480156200001257600080fd5b5060408051808201825260048152634e616d6560e01b602080830191909152825180840190935260058352640312e302e360dc1b908301526001600055906200005b336200014c565b815160208084019190912082518383012060e08290526101008190524660a0818152604080517f8b73c3c69bb8fe3d512ecc4cf759cc79239f7b179b0ffacaa9a75d522b39400f81880181905281830187905260608201869052608082019490945230818401528151808203909301835260c00190528051940193909320919290916080523060c052610120525050604080518082019091526003808252621b999d60ea1b6020909201918252620001189350600692506200019e565b50604080518082019091526003808252621b999d60ea1b602090920191825262000145916007916200019e565b5062000281565b600180546001600160a01b038381166001600160a01b0319831681179093556040519116919082907f8be0079c531659141344cd1fd0a4f28419497f9722a3daafe3b4186f6b6457e090600090a35050565b828054620001ac9062000244565b90600052602060002090601f016020900481019282620001d057600085556200021b565b82601f10620001eb57805160ff19168380011785556200021b565b828001600101855582156200021b579182015b828111156200021b578251825591602001919060010190620001fe565b50620002299291506200022d565b5090565b5b808211156200022957600081556001016200022e565b600181811c908216806200025957607f821691505b602082108114156200027b57634e487b7160e01b600052602260045260246000fd5b50919050565b60805160a05160c05160e0516101005161012051611bad620002bf600039600050506000505060005050600050506000505060005050611bad6000f3fe6080604052600436106100fe5760003560e01c806395d89b4111610095578063f23a6e6111610064578063f23a6e611461029d578063f2fde38b146102c9578063f65ec500146102e9578063f7cb79da14610309578063fb90fe461461032957600080fd5b806395d89b411461021d578063a1c11ca814610232578063bc197c8114610245578063e3a6a68f1461028a57600080fd5b8063715018a6116100d1578063715018a61461019d57806379d2ca79146101b25780637e9a08c6146101c55780638da5cb5b146101f557600080fd5b806301648be91461010357806301ffc9a71461012557806306fdde031461015a578063320343da1461017c575b600080fd5b34801561010f57600080fd5b5061012361011e36600461130f565b61033c565b005b34801561013157600080fd5b50610145610140366004611331565b61038f565b60405190151581526020015b60405180910390f35b34801561016657600080fd5b5061016f6103c6565b60405161015191906113a8565b61018f61018a3660046113bb565b610454565b604051908152602001610151565b3480156101a957600080fd5b50610123610643565b61018f6101c036600461151e565b610679565b3480156101d157600080fd5b5061018f6101e03660046115cb565b60009081526005602052604090206003015490565b34801561020157600080fd5b506001546040516001600160a01b039091168152602001610151565b34801561022957600080fd5b5061016f6108e7565b6101236102403660046115e4565b6108f4565b34801561025157600080fd5b5061027161026036600461161b565b63bc197c8160e01b95945050505050565b6040516001600160e01b03199091168152602001610151565b61018f6102983660046116c9565b610d5b565b3480156102a957600080fd5b506102716102b836600461170a565b63f23a6e6160e01b95945050505050565b3480156102d557600080fd5b506101236102e4366004611773565b610f41565b3480156102f557600080fd5b50610123610304366004611790565b610fdc565b34801561031557600080fd5b506101236103243660046115e4565b611035565b6101236103373660046117c5565b611133565b6001546001600160a01b0316331461036f5760405162461bcd60e51b81526004016103669061183a565b60405180910390fd5b6004805460ff909216600160a01b0260ff60a01b19909216919091179055565b60006001600160e01b03198216630271189760e51b14806103c057506301ffc9a760e01b6001600160e01b03198316145b92915050565b600680546103d39061186f565b80601f01602080910402602001604051908101604052809291908181526020018280546103ff9061186f565b801561044c5780601f106104215761010080835404028352916020019161044c565b820191906000526020600020905b81548152906001019060200180831161042f57829003601f168201915b505050505081565b6000600260005414156104795760405162461bcd60e51b8152600401610366906118aa565b6002600055826104cb5760405162461bcd60e51b815260206004820152601c60248201527f7072696365206d7573742062652067726561746572207468616e2030000000006044820152606401610366565b6104d9600280546001019055565b60006104e460025490565b6040805160e081018252828152602080820189815233838501818152606085018b8152600060808701818152600160a0890181815260c08a018f81528c85526005998a9052938b902099518a5596519089015592516002880180546001600160a01b0319166001600160a01b0392831617905591516003880155915160048088018054965161ffff1990971692151561ff00191692909217610100961515969096029590951790559051949093019390935580549351637921219560e11b815294955092169263f242432a926105c1929130918b918a91016118e1565b600060405180830381600087803b1580156105db57600080fd5b505af11580156105ef573d6000803e3d6000fd5b50506040805133815260208101889052428183015290518893508492507f117136b53832b5e8bbde1e9e2b7e283939a09b780c150657c0fb8f2d9fff21479181900360600190a36001600055949350505050565b6001546001600160a01b0316331461066d5760405162461bcd60e51b81526004016103669061183a565b61067760006111e6565b565b60006002600054141561069e5760405162461bcd60e51b8152600401610366906118aa565b600260009081555b85518110156108d5576106bd600280546001019055565b60006106c860025490565b90506040518060e001604052808281526020018884815181106106ed576106ed611919565b60200260200101518152602001336001600160a01b0316815260200187848151811061071b5761071b611919565b6020026020010151815260200160001515815260200160011515815260200186848151811061074c5761074c611919565b6020908102919091018101519091526000838152600580835260409182902084518155928401516001840155838201516002840180546001600160a01b039283166001600160a01b03199091161790556060850151600385015560808501516004808601805460a089015115156101000261ff00199415159490941661ffff19909116179290921790915560c090950151939091019290925582549051631759616b60e11b8152911691632eb2c2d69161081091339130918d918c918c910161196a565b600060405180830381600087803b15801561082a57600080fd5b505af115801561083e573d6000803e3d6000fd5b5050505086828151811061085457610854611919565b6020026020010151817f117136b53832b5e8bbde1e9e2b7e283939a09b780c150657c0fb8f2d9fff21473389868151811061089157610891611919565b602090810291909101810151604080516001600160a01b03909416845291830152429082015260600160405180910390a350806108cd816119de565b9150506106a6565b50600254600160005595945050505050565b600780546103d39061186f565b600260005414156109175760405162461bcd60e51b8152600401610366906118aa565b60026000908155828152600560205260408120600381015490919061093d9084906119f9565b9050600082600101549050600084846005015461095a9190611a18565b9050823410156109bd5760405162461bcd60e51b815260206004820152602860248201527f596f752073686f756c6420696e636c75646520746865207072696365206f6620604482015267746865206974656d60c01b6064820152608401610366565b60028401546001600160a01b0316331415610a255760405162461bcd60e51b815260206004820152602260248201527f73656c6c65722063616e206e6f742062757920697473206f776e656420746f6b60448201526132b760f11b6064820152608401610366565b6000806000610a348587611238565b9250925092508360001415610a665760048701805461ffff19166001179055610a61600380546001019055565b610a78565b60048701805461ffff19166101001790555b60048701805461ffff19166001179055610a96600380546001019055565b6000610aaa6001546001600160a01b031690565b6001600160a01b03168460405160006040518083038185875af1925050503d8060008114610af4576040519150601f19603f3d011682016040523d82523d6000602084013e610af9565b606091505b50508091505080610b0957600080fd5b8215610b6d576040516001600160a01b038316908490600081818185875af1925050503d8060008114610b58576040519150601f19603f3d011682016040523d82523d6000602084013e610b5d565b606091505b50508091505080610b6d57600080fd5b600083610b7a868a611a18565b610b849190611a18565b60028a01546040519192506001600160a01b0316908290600081818185875af1925050503d8060008114610bd4576040519150601f19603f3d011682016040523d82523d6000602084013e610bd9565b606091505b50508092505081610be957600080fd5b600460009054906101000a90046001600160a01b03166001600160a01b031663f242432a30338a8e6040518563ffffffff1660e01b8152600401610c3094939291906118e1565b600060405180830381600087803b158015610c4a57600080fd5b505af1158015610c5e573d6000803e3d6000fd5b505050506002890154604080513381526001600160a01b03909216602083015281018290527fa1d7584d99165acdda7faf8e4dd6f4a82d358341586d4d953060fb95c3f31e6f9060600160405180910390a160408051308152336020820152908101889052606081018b90527fe85924fec68775525e5b7f8646261563e26e6b838e6c46e8d053d0bc623b88159060800160405180910390a16002890154604080516001600160a01b03909216825233602083015281018b905287908c907f458478e87af2f8355f5200460431fb85259efefed716e75b487251ae55fe04e09060600160405180910390a350506001600055505050505050505050565b600060026000541415610d805760405162461bcd60e51b8152600401610366906118aa565b600260005583610dd25760405162461bcd60e51b815260206004820152601c60248201527f7072696365206d7573742062652067726561746572207468616e2030000000006044820152606401610366565b610de0600280546001019055565b6000610deb60025490565b90506040518060e00160405280828152602001878152602001846001600160a01b031681526020018681526020016000151581526020016001151581526020018581525060056000838152602001908152602001600020600082015181600001556020820151816001015560408201518160020160006101000a8154816001600160a01b0302191690836001600160a01b031602179055506060820151816003015560808201518160040160006101000a81548160ff02191690831515021790555060a08201518160040160016101000a81548160ff02191690831515021790555060c0820151816005015590505085817f117136b53832b5e8bbde1e9e2b7e283939a09b780c150657c0fb8f2d9fff2147338842604051610f2b939291906001600160a01b039390931683526020830191909152604082015260600190565b60405180910390a3600160005595945050505050565b6001546001600160a01b03163314610f6b5760405162461bcd60e51b81526004016103669061183a565b6001600160a01b038116610fd05760405162461bcd60e51b815260206004820152602660248201527f4f776e61626c653a206e6577206f776e657220697320746865207a65726f206160448201526564647265737360d01b6064820152608401610366565b610fd9816111e6565b50565b6001546001600160a01b031633146110065760405162461bcd60e51b81526004016103669061183a565b6004805460ff909216600160a01b026001600160a81b03199092166001600160a01b0390931692909217179055565b60008281526005602052604090206004810154610100900460ff166110925760405162461bcd60e51b8152602060048201526013602482015272496e76616c6964206d61726b6574206974656d60681b6044820152606401610366565b60028101546001600160a01b031633146110ee5760405162461bcd60e51b815260206004820152601c60248201527f4f6e6c792073656c6c65722063616e206368616e6765207072696365000000006044820152606401610366565b6003810182905560408051848152602081018490527f9f7f3a0d2cdebf77b88fd30cf39db6676ba7bbe894bd756831e2cb17a6a20740910160405180910390a1505050565b600480546040516306f57ee160e11b815260009283926001600160a01b031691630deafdc291611167918991899101611a58565b6040805180830381600087803b15801561118057600080fd5b505af1158015611194573d6000803e3d6000fd5b505050506040513d601f19601f820116820180604052508101906111b89190611af7565b9150915060006111d2838760200135886040013585610d5b565b90506111de81856108f4565b505050505050565b600180546001600160a01b038381166001600160a01b0319831681179093556040519116919082907f8be0079c531659141344cd1fd0a4f28419497f9722a3daafe3b4186f6b6457e090600090a35050565b6004546000908190819060649061125a908690600160a01b900460ff166119f9565b6112649190611b27565b6004805460405163152a902d60e11b81529295506001600160a01b031691632a55205a9161129f918991899101918252602082015260400190565b604080518083038186803b1580156112b657600080fd5b505afa1580156112ca573d6000803e3d6000fd5b505050506040513d601f19601f820116820180604052508101906112ee9190611b49565b925090509250925092565b803560ff8116811461130a57600080fd5b919050565b60006020828403121561132157600080fd5b61132a826112f9565b9392505050565b60006020828403121561134357600080fd5b81356001600160e01b03198116811461132a57600080fd5b6000815180845260005b8181101561138157602081850181015186830182015201611365565b81811115611393576000602083870101525b50601f01601f19169290920160200192915050565b60208152600061132a602083018461135b565b6000806000606084860312156113d057600080fd5b505081359360208301359350604090920135919050565b634e487b7160e01b600052604160045260246000fd5b604051601f8201601f1916810167ffffffffffffffff81118282101715611426576114266113e7565b604052919050565b600082601f83011261143f57600080fd5b8135602067ffffffffffffffff82111561145b5761145b6113e7565b8160051b61146a8282016113fd565b928352848101820192828101908785111561148457600080fd5b83870192505b848310156114a35782358252918301919083019061148a565b979650505050505050565b600082601f8301126114bf57600080fd5b813567ffffffffffffffff8111156114d9576114d96113e7565b6114ec601f8201601f19166020016113fd565b81815284602083860101111561150157600080fd5b816020850160208301376000918101602001919091529392505050565b6000806000806080858703121561153457600080fd5b843567ffffffffffffffff8082111561154c57600080fd5b6115588883890161142e565b9550602087013591508082111561156e57600080fd5b61157a8883890161142e565b9450604087013591508082111561159057600080fd5b61159c8883890161142e565b935060608701359150808211156115b257600080fd5b506115bf878288016114ae565b91505092959194509250565b6000602082840312156115dd57600080fd5b5035919050565b600080604083850312156115f757600080fd5b50508035926020909101359150565b6001600160a01b0381168114610fd957600080fd5b600080600080600060a0868803121561163357600080fd5b853561163e81611606565b9450602086013561164e81611606565b9350604086013567ffffffffffffffff8082111561166b57600080fd5b61167789838a0161142e565b9450606088013591508082111561168d57600080fd5b61169989838a0161142e565b935060808801359150808211156116af57600080fd5b506116bc888289016114ae565b9150509295509295909350565b600080600080608085870312156116df57600080fd5b84359350602085013592506040850135915060608501356116ff81611606565b939692955090935050565b600080600080600060a0868803121561172257600080fd5b853561172d81611606565b9450602086013561173d81611606565b93506040860135925060608601359150608086013567ffffffffffffffff81111561176757600080fd5b6116bc888289016114ae565b60006020828403121561178557600080fd5b813561132a81611606565b600080604083850312156117a357600080fd5b82356117ae81611606565b91506117bc602084016112f9565b90509250929050565b6000806000606084860312156117da57600080fd5b833567ffffffffffffffff808211156117f257600080fd5b9085019060a0828803121561180657600080fd5b9093506020850135908082111561181c57600080fd5b50611829868287016114ae565b925050604084013590509250925092565b6020808252818101527f4f776e61626c653a2063616c6c6572206973206e6f7420746865206f776e6572604082015260600190565b600181811c9082168061188357607f821691505b602082108114156118a457634e487b7160e01b600052602260045260246000fd5b50919050565b6020808252601f908201527f5265656e7472616e637947756172643a207265656e7472616e742063616c6c00604082015260600190565b6001600160a01b0394851681529290931660208301526040820152606081019190915260a06080820181905260009082015260c00190565b634e487b7160e01b600052603260045260246000fd5b600081518084526020808501945080840160005b8381101561195f57815187529582019590820190600101611943565b509495945050505050565b6001600160a01b0386811682528516602082015260a0604082018190526000906119969083018661192f565b82810360608401526119a8818661192f565b905082810360808401526119bc818561135b565b98975050505050505050565b634e487b7160e01b600052601160045260246000fd5b60006000198214156119f2576119f26119c8565b5060010190565b6000816000190483118215151615611a1357611a136119c8565b500290565b600082821015611a2a57611a2a6119c8565b500390565b81835281816020850137506000828201602090810191909152601f909101601f19169091010190565b6040815282356040820152602083013560608201526040830135608082015260006060840135601e19853603018112611a9057600080fd5b8401803567ffffffffffffffff811115611aa957600080fd5b803603861315611ab857600080fd5b60a080850152611acf60e085018260208501611a2f565b915050608085013560c08401528281036020840152611aee818561135b565b95945050505050565b60008060408385031215611b0a57600080fd5b825191506020830151611b1c81611606565b809150509250929050565b600082611b4457634e487b7160e01b600052601260045260246000fd5b500490565b60008060408385031215611b5c57600080fd5b8251611b6781611606565b602093909301519294929350505056fea2646970667358221220da77e997c3c30abc4ef29251549608bc0f16b389ca55e2ba8be53581975b853164736f6c63430008090033",
  "linkReferences": {},
  "deployedLinkReferences": {}
}