{
    "contractName": "Lazy",
    "abi": [
        {
            "inputs": [],
            "stateMutability": "nonpayable",
            "type": "constructor"
        },
        {
            "anonymous": false,
            "inputs": [
                {
                    "indexed": true,
                    "internalType": "address",
                    "name": "owner",
                    "type": "address"
                },
                {
                    "indexed": true,
                    "internalType": "address",
                    "name": "approved",
                    "type": "address"
                },
                {
                    "indexed": true,
                    "internalType": "uint256",
                    "name": "tokenId",
                    "type": "uint256"
                }
            ],
            "name": "Approval",
            "type": "event"
        },
        {
            "anonymous": false,
            "inputs": [
                {
                    "indexed": true,
                    "internalType": "address",
                    "name": "owner",
                    "type": "address"
                },
                {
                    "indexed": true,
                    "internalType": "address",
                    "name": "operator",
                    "type": "address"
                },
                {
                    "indexed": false,
                    "internalType": "bool",
                    "name": "approved",
                    "type": "bool"
                }
            ],
            "name": "ApprovalForAll",
            "type": "event"
        },
        {
            "anonymous": false,
            "inputs": [
                {
                    "indexed": true,
                    "internalType": "bytes32",
                    "name": "role",
                    "type": "bytes32"
                },
                {
                    "indexed": true,
                    "internalType": "bytes32",
                    "name": "previousAdminRole",
                    "type": "bytes32"
                },
                {
                    "indexed": true,
                    "internalType": "bytes32",
                    "name": "newAdminRole",
                    "type": "bytes32"
                }
            ],
            "name": "RoleAdminChanged",
            "type": "event"
        },
        {
            "anonymous": false,
            "inputs": [
                {
                    "indexed": true,
                    "internalType": "bytes32",
                    "name": "role",
                    "type": "bytes32"
                },
                {
                    "indexed": true,
                    "internalType": "address",
                    "name": "account",
                    "type": "address"
                },
                {
                    "indexed": true,
                    "internalType": "address",
                    "name": "sender",
                    "type": "address"
                }
            ],
            "name": "RoleGranted",
            "type": "event"
        },
        {
            "anonymous": false,
            "inputs": [
                {
                    "indexed": true,
                    "internalType": "bytes32",
                    "name": "role",
                    "type": "bytes32"
                },
                {
                    "indexed": true,
                    "internalType": "address",
                    "name": "account",
                    "type": "address"
                },
                {
                    "indexed": true,
                    "internalType": "address",
                    "name": "sender",
                    "type": "address"
                }
            ],
            "name": "RoleRevoked",
            "type": "event"
        },
        {
            "anonymous": false,
            "inputs": [
                {
                    "indexed": true,
                    "internalType": "address",
                    "name": "from",
                    "type": "address"
                },
                {
                    "indexed": true,
                    "internalType": "address",
                    "name": "to",
                    "type": "address"
                },
                {
                    "indexed": true,
                    "internalType": "uint256",
                    "name": "tokenId",
                    "type": "uint256"
                }
            ],
            "name": "Transfer",
            "type": "event"
        },
        {
            "inputs": [],
            "name": "DEFAULT_ADMIN_ROLE",
            "outputs": [
                {
                    "internalType": "bytes32",
                    "name": "",
                    "type": "bytes32"
                }
            ],
            "stateMutability": "view",
            "type": "function"
        },
        {
            "inputs": [],
            "name": "MINTER_ROLE",
            "outputs": [
                {
                    "internalType": "bytes32",
                    "name": "",
                    "type": "bytes32"
                }
            ],
            "stateMutability": "view",
            "type": "function"
        },
        {
            "inputs": [
                {
                    "internalType": "address",
                    "name": "to",
                    "type": "address"
                },
                {
                    "internalType": "uint256",
                    "name": "tokenId",
                    "type": "uint256"
                }
            ],
            "name": "approve",
            "outputs": [],
            "stateMutability": "nonpayable",
            "type": "function"
        },
        {
            "inputs": [],
            "name": "availableToWithdraw",
            "outputs": [
                {
                    "internalType": "uint256",
                    "name": "",
                    "type": "uint256"
                }
            ],
            "stateMutability": "view",
            "type": "function"
        },
        {
            "inputs": [
                {
                    "internalType": "address",
                    "name": "owner",
                    "type": "address"
                }
            ],
            "name": "balanceOf",
            "outputs": [
                {
                    "internalType": "uint256",
                    "name": "",
                    "type": "uint256"
                }
            ],
            "stateMutability": "view",
            "type": "function"
        },
        {
            "inputs": [
                {
                    "internalType": "uint256",
                    "name": "tokenId",
                    "type": "uint256"
                }
            ],
            "name": "getApproved",
            "outputs": [
                {
                    "internalType": "address",
                    "name": "",
                    "type": "address"
                }
            ],
            "stateMutability": "view",
            "type": "function"
        },
        {
            "inputs": [
                {
                    "internalType": "bytes32",
                    "name": "role",
                    "type": "bytes32"
                }
            ],
            "name": "getRoleAdmin",
            "outputs": [
                {
                    "internalType": "bytes32",
                    "name": "",
                    "type": "bytes32"
                }
            ],
            "stateMutability": "view",
            "type": "function"
        },
        {
            "inputs": [
                {
                    "internalType": "bytes32",
                    "name": "role",
                    "type": "bytes32"
                },
                {
                    "internalType": "address",
                    "name": "account",
                    "type": "address"
                }
            ],
            "name": "grantRole",
            "outputs": [],
            "stateMutability": "nonpayable",
            "type": "function"
        },
        {
            "inputs": [
                {
                    "internalType": "bytes32",
                    "name": "role",
                    "type": "bytes32"
                },
                {
                    "internalType": "address",
                    "name": "account",
                    "type": "address"
                }
            ],
            "name": "hasRole",
            "outputs": [
                {
                    "internalType": "bool",
                    "name": "",
                    "type": "bool"
                }
            ],
            "stateMutability": "view",
            "type": "function"
        },
        {
            "inputs": [
                {
                    "internalType": "address",
                    "name": "owner",
                    "type": "address"
                },
                {
                    "internalType": "address",
                    "name": "operator",
                    "type": "address"
                }
            ],
            "name": "isApprovedForAll",
            "outputs": [
                {
                    "internalType": "bool",
                    "name": "",
                    "type": "bool"
                }
            ],
            "stateMutability": "view",
            "type": "function"
        },
        {
            "inputs": [],
            "name": "name",
            "outputs": [
                {
                    "internalType": "string",
                    "name": "",
                    "type": "string"
                }
            ],
            "stateMutability": "view",
            "type": "function"
        },
        {
            "inputs": [
                {
                    "internalType": "uint256",
                    "name": "tokenId",
                    "type": "uint256"
                }
            ],
            "name": "ownerOf",
            "outputs": [
                {
                    "internalType": "address",
                    "name": "",
                    "type": "address"
                }
            ],
            "stateMutability": "view",
            "type": "function"
        },
        {
            "inputs": [
                {
                    "internalType": "address",
                    "name": "redeemer",
                    "type": "address"
                },
                {
                    "components": [
                        {
                            "internalType": "uint256",
                            "name": "tokenId",
                            "type": "uint256"
                        },
                        {
                            "internalType": "uint256",
                            "name": "minPrice",
                            "type": "uint256"
                        },
                        {
                            "internalType": "string",
                            "name": "uri",
                            "type": "string"
                        }
                    ],
                    "internalType": "struct Lazy.NFTVoucher",
                    "name": "voucher",
                    "type": "tuple"
                },
                {
                    "internalType": "bytes",
                    "name": "signature",
                    "type": "bytes"
                }
            ],
            "name": "redeem",
            "outputs": [
                {
                    "internalType": "uint256",
                    "name": "",
                    "type": "uint256"
                }
            ],
            "stateMutability": "payable",
            "type": "function"
        },
        {
            "inputs": [
                {
                    "internalType": "bytes32",
                    "name": "role",
                    "type": "bytes32"
                },
                {
                    "internalType": "address",
                    "name": "account",
                    "type": "address"
                }
            ],
            "name": "renounceRole",
            "outputs": [],
            "stateMutability": "nonpayable",
            "type": "function"
        },
        {
            "inputs": [
                {
                    "internalType": "bytes32",
                    "name": "role",
                    "type": "bytes32"
                },
                {
                    "internalType": "address",
                    "name": "account",
                    "type": "address"
                }
            ],
            "name": "revokeRole",
            "outputs": [],
            "stateMutability": "nonpayable",
            "type": "function"
        },
        {
            "inputs": [
                {
                    "internalType": "address",
                    "name": "from",
                    "type": "address"
                },
                {
                    "internalType": "address",
                    "name": "to",
                    "type": "address"
                },
                {
                    "internalType": "uint256",
                    "name": "tokenId",
                    "type": "uint256"
                }
            ],
            "name": "safeTransferFrom",
            "outputs": [],
            "stateMutability": "nonpayable",
            "type": "function"
        },
        {
            "inputs": [
                {
                    "internalType": "address",
                    "name": "from",
                    "type": "address"
                },
                {
                    "internalType": "address",
                    "name": "to",
                    "type": "address"
                },
                {
                    "internalType": "uint256",
                    "name": "tokenId",
                    "type": "uint256"
                },
                {
                    "internalType": "bytes",
                    "name": "_data",
                    "type": "bytes"
                }
            ],
            "name": "safeTransferFrom",
            "outputs": [],
            "stateMutability": "nonpayable",
            "type": "function"
        },
        {
            "inputs": [
                {
                    "internalType": "address",
                    "name": "operator",
                    "type": "address"
                },
                {
                    "internalType": "bool",
                    "name": "approved",
                    "type": "bool"
                }
            ],
            "name": "setApprovalForAll",
            "outputs": [],
            "stateMutability": "nonpayable",
            "type": "function"
        },
        {
            "inputs": [
                {
                    "internalType": "bytes4",
                    "name": "interfaceId",
                    "type": "bytes4"
                }
            ],
            "name": "supportsInterface",
            "outputs": [
                {
                    "internalType": "bool",
                    "name": "",
                    "type": "bool"
                }
            ],
            "stateMutability": "view",
            "type": "function"
        },
        {
            "inputs": [],
            "name": "symbol",
            "outputs": [
                {
                    "internalType": "string",
                    "name": "",
                    "type": "string"
                }
            ],
            "stateMutability": "view",
            "type": "function"
        },
        {
            "inputs": [
                {
                    "internalType": "uint256",
                    "name": "tokenId",
                    "type": "uint256"
                }
            ],
            "name": "tokenURI",
            "outputs": [
                {
                    "internalType": "string",
                    "name": "",
                    "type": "string"
                }
            ],
            "stateMutability": "view",
            "type": "function"
        },
        {
            "inputs": [
                {
                    "internalType": "address",
                    "name": "from",
                    "type": "address"
                },
                {
                    "internalType": "address",
                    "name": "to",
                    "type": "address"
                },
                {
                    "internalType": "uint256",
                    "name": "tokenId",
                    "type": "uint256"
                }
            ],
            "name": "transferFrom",
            "outputs": [],
            "stateMutability": "nonpayable",
            "type": "function"
        },
        {
            "inputs": [],
            "name": "withdraw",
            "outputs": [],
            "stateMutability": "nonpayable",
            "type": "function"
        }
    ],
    "bytecode": "6101406040523480156200001257600080fd5b50604051806040016040528060048152602001634e616d6560e01b815250604051806040016040528060058152602001640312e302e360dc1b8152506040518060400160405280600781526020016613185e9e53919560ca1b815250604051806040016040528060038152602001622620ad60e91b8152508160009080519060200190620000a292919062000150565b508051620000b890600190602084019062000150565b5050825160209384012082519284019290922060e08390526101008190524660a0818152604080517f8b73c3c69bb8fe3d512ecc4cf759cc79239f7b179b0ffacaa9a75d522b39400f818901819052818301979097526060810194909452608080850193909352308483018190528151808603909301835260c094850190915281519190960120905292909252610120525062000233565b8280546200015e90620001f6565b90600052602060002090601f016020900481019282620001825760008555620001cd565b82601f106200019d57805160ff1916838001178555620001cd565b82800160010185558215620001cd579182015b82811115620001cd578251825591602001919060010190620001b0565b50620001db929150620001df565b5090565b5b80821115620001db5760008155600101620001e0565b600181811c908216806200020b57607f821691505b602082108114156200022d57634e487b7160e01b600052602260045260246000fd5b50919050565b60805160a05160c05160e051610100516101205161257b620002836000396000611c5301526000611ca201526000611c7d01526000611bd601526000611c0001526000611c2a015261257b6000f3fe6080604052600436106101405760003560e01c80636352211e116100b6578063b88d4fde1161006f578063b88d4fde14610386578063c87b56dd146103a6578063d5391393146103c6578063d547741f146103fa578063e322ad2b1461041a578063e985e9c51461043c57600080fd5b80636352211e146102dc57806370a08231146102fc57806391d148541461031c57806395d89b411461033c578063a217fddf14610351578063a22cb4651461036657600080fd5b806323b872dd1161010857806323b872dd14610217578063248a9ca3146102375780632f2ff15d1461026757806336568abe146102875780633ccfd60b146102a757806342842e0e146102bc57600080fd5b806301ffc9a71461014557806306fdde031461017a578063081812fc1461019c578063095ea7b3146101d45780631c098e90146101f6575b600080fd5b34801561015157600080fd5b50610165610160366004611ebb565b610485565b60405190151581526020015b60405180910390f35b34801561018657600080fd5b5061018f6104a5565b6040516101719190611f30565b3480156101a857600080fd5b506101bc6101b7366004611f43565b610537565b6040516001600160a01b039091168152602001610171565b3480156101e057600080fd5b506101f46101ef366004611f78565b6105c4565b005b610209610204366004612045565b6106da565b604051908152602001610171565b34801561022357600080fd5b506101f46102323660046120c1565b6107d7565b34801561024357600080fd5b50610209610252366004611f43565b60009081526007602052604090206001015490565b34801561027357600080fd5b506101f46102823660046120fd565b610808565b34801561029357600080fd5b506101f46102a23660046120fd565b61082e565b3480156102b357600080fd5b506101f46108ac565b3480156102c857600080fd5b506101f46102d73660046120c1565b6108ef565b3480156102e857600080fd5b506101bc6102f7366004611f43565b61090a565b34801561030857600080fd5b50610209610317366004612129565b610981565b34801561032857600080fd5b506101656103373660046120fd565b610a08565b34801561034857600080fd5b5061018f610a33565b34801561035d57600080fd5b50610209600081565b34801561037257600080fd5b506101f4610381366004612144565b610a42565b34801561039257600080fd5b506101f46103a1366004612180565b610a4d565b3480156103b257600080fd5b5061018f6103c1366004611f43565b610a85565b3480156103d257600080fd5b506102097f9f2df0fed2c77648de5860a4cc508cd0818c85b8b8a1ab4ceeef8d981c8956a681565b34801561040657600080fd5b506101f46104153660046120fd565b610bfc565b34801561042657600080fd5b5033600090815260086020526040902054610209565b34801561044857600080fd5b506101656104573660046121e8565b6001600160a01b03918216600090815260056020908152604080832093909416825291909152205460ff1690565b600061049082610c22565b8061049f575061049f82610c72565b92915050565b6060600080546104b490612212565b80601f01602080910402602001604051908101604052809291908181526020018280546104e090612212565b801561052d5780601f106105025761010080835404028352916020019161052d565b820191906000526020600020905b81548152906001019060200180831161051057829003601f168201915b5050505050905090565b600061054282610c97565b6105a85760405162461bcd60e51b815260206004820152602c60248201527f4552433732313a20617070726f76656420717565727920666f72206e6f6e657860448201526b34b9ba32b73a103a37b5b2b760a11b60648201526084015b60405180910390fd5b506000908152600460205260409020546001600160a01b031690565b60006105cf8261090a565b9050806001600160a01b0316836001600160a01b0316141561063d5760405162461bcd60e51b815260206004820152602160248201527f4552433732313a20617070726f76616c20746f2063757272656e74206f776e656044820152603960f91b606482015260840161059f565b336001600160a01b038216148061065957506106598133610457565b6106cb5760405162461bcd60e51b815260206004820152603860248201527f4552433732313a20617070726f76652063616c6c6572206973206e6f74206f7760448201527f6e6572206e6f7220617070726f76656420666f7220616c6c0000000000000000606482015260840161059f565b6106d58383610cb4565b505050565b6000806106e78484610d22565b9050836020013534101561073d5760405162461bcd60e51b815260206004820152601c60248201527f496e73756666696369656e742066756e647320746f2072656465656d00000000604482015260640161059f565b610748818535610d91565b610794843561075a604087018761224d565b8080601f016020809104026020016040519081016040528093929190818152602001838380828437600092019190915250610ec492505050565b6107a081868635610f4f565b6001600160a01b038116600090815260086020526040812080543492906107c89084906122aa565b90915550509235949350505050565b6107e133826110ef565b6107fd5760405162461bcd60e51b815260040161059f906122c2565b6106d5838383610f4f565b60008281526007602052604090206001015461082481336111d5565b6106d58383611239565b6001600160a01b038116331461089e5760405162461bcd60e51b815260206004820152602f60248201527f416363657373436f6e74726f6c3a2063616e206f6e6c792072656e6f756e636560448201526e103937b632b9903337b91039b2b63360891b606482015260840161059f565b6108a882826112bf565b5050565b3360008181526008602052604080822080549083905590519091839183156108fc0291849190818181858888f193505050501580156106d5573d6000803e3d6000fd5b6106d583838360405180602001604052806000815250610a4d565b6000818152600260205260408120546001600160a01b03168061049f5760405162461bcd60e51b815260206004820152602960248201527f4552433732313a206f776e657220717565727920666f72206e6f6e657869737460448201526832b73a103a37b5b2b760b91b606482015260840161059f565b60006001600160a01b0382166109ec5760405162461bcd60e51b815260206004820152602a60248201527f4552433732313a2062616c616e636520717565727920666f7220746865207a65604482015269726f206164647265737360b01b606482015260840161059f565b506001600160a01b031660009081526003602052604090205490565b60009182526007602090815260408084206001600160a01b0393909316845291905290205460ff1690565b6060600180546104b490612212565b6108a8338383611326565b610a5733836110ef565b610a735760405162461bcd60e51b815260040161059f906122c2565b610a7f848484846113f5565b50505050565b6060610a9082610c97565b610af65760405162461bcd60e51b815260206004820152603160248201527f45524337323155524953746f726167653a2055524920717565727920666f72206044820152703737b732bc34b9ba32b73a103a37b5b2b760791b606482015260840161059f565b60008281526006602052604081208054610b0f90612212565b80601f0160208091040260200160405190810160405280929190818152602001828054610b3b90612212565b8015610b885780601f10610b5d57610100808354040283529160200191610b88565b820191906000526020600020905b815481529060010190602001808311610b6b57829003601f168201915b505050505090506000610ba660408051602081019091526000815290565b9050805160001415610bb9575092915050565b815115610beb578082604051602001610bd3929190612313565b60405160208183030381529060405292505050919050565b610bf484611428565b949350505050565b600082815260076020526040902060010154610c1881336111d5565b6106d583836112bf565b60006001600160e01b031982166380ac58cd60e01b1480610c5357506001600160e01b03198216635b5e139f60e01b145b8061049f57506301ffc9a760e01b6001600160e01b031983161461049f565b60006001600160e01b03198216637965db0b60e01b148061049f575061049f82610c22565b6000908152600260205260409020546001600160a01b0316151590565b600081815260046020526040902080546001600160a01b0319166001600160a01b0384169081179091558190610ce98261090a565b6001600160a01b03167f8c5be1e5ebec7d5bd14f71427d1e84f3dd0314c0f7b2291e5b200ac8c7c3b92560405160405180910390a45050565b600080610d2e84611500565b9050610bf483610d8b836040517f19457468657265756d205369676e6564204d6573736167653a0a3332000000006020820152603c8101829052600090605c01604051602081830303815290604052805190602001209050919050565b90611591565b6001600160a01b038216610de75760405162461bcd60e51b815260206004820181905260248201527f4552433732313a206d696e7420746f20746865207a65726f2061646472657373604482015260640161059f565b610df081610c97565b15610e3d5760405162461bcd60e51b815260206004820152601c60248201527f4552433732313a20746f6b656e20616c7265616479206d696e74656400000000604482015260640161059f565b6001600160a01b0382166000908152600360205260408120805460019290610e669084906122aa565b909155505060008181526002602052604080822080546001600160a01b0319166001600160a01b03861690811790915590518392907fddf252ad1be2c89b69c2b068fc378daa952ba7f163c4a11628f55a4df523b3ef908290a45050565b610ecd82610c97565b610f305760405162461bcd60e51b815260206004820152602e60248201527f45524337323155524953746f726167653a2055524920736574206f66206e6f6e60448201526d32bc34b9ba32b73a103a37b5b2b760911b606482015260840161059f565b600082815260066020908152604090912082516106d592840190611e0c565b826001600160a01b0316610f628261090a565b6001600160a01b031614610fca5760405162461bcd60e51b815260206004820152602960248201527f4552433732313a207472616e73666572206f6620746f6b656e2074686174206960448201526839903737ba1037bbb760b91b606482015260840161059f565b6001600160a01b03821661102c5760405162461bcd60e51b8152602060048201526024808201527f4552433732313a207472616e7366657220746f20746865207a65726f206164646044820152637265737360e01b606482015260840161059f565b611037600082610cb4565b6001600160a01b0383166000908152600360205260408120805460019290611060908490612342565b90915550506001600160a01b038216600090815260036020526040812080546001929061108e9084906122aa565b909155505060008181526002602052604080822080546001600160a01b0319166001600160a01b0386811691821790925591518493918716917fddf252ad1be2c89b69c2b068fc378daa952ba7f163c4a11628f55a4df523b3ef91a4505050565b60006110fa82610c97565b61115b5760405162461bcd60e51b815260206004820152602c60248201527f4552433732313a206f70657261746f7220717565727920666f72206e6f6e657860448201526b34b9ba32b73a103a37b5b2b760a11b606482015260840161059f565b60006111668361090a565b9050806001600160a01b0316846001600160a01b031614806111a15750836001600160a01b031661119684610537565b6001600160a01b0316145b80610bf457506001600160a01b0380821660009081526005602090815260408083209388168352929052205460ff16610bf4565b6111df8282610a08565b6108a8576111f7816001600160a01b031660146115b5565b6112028360206115b5565b604051602001611213929190612359565b60408051601f198184030181529082905262461bcd60e51b825261059f91600401611f30565b6112438282610a08565b6108a85760008281526007602090815260408083206001600160a01b03851684529091529020805460ff1916600117905561127b3390565b6001600160a01b0316816001600160a01b0316837f2f8788117e7eff1d82e926ec794901d17c78024a50270940304540a733656f0d60405160405180910390a45050565b6112c98282610a08565b156108a85760008281526007602090815260408083206001600160a01b0385168085529252808320805460ff1916905551339285917ff6391f5c32d9c69d2a47ea670b442974b53935d1edc7fd64eb21e047a839171b9190a45050565b816001600160a01b0316836001600160a01b031614156113885760405162461bcd60e51b815260206004820152601960248201527f4552433732313a20617070726f766520746f2063616c6c657200000000000000604482015260640161059f565b6001600160a01b03838116600081815260056020908152604080832094871680845294825291829020805460ff191686151590811790915591519182527f17307eab39ab6107e8899845ad3d59bd9653f200f220920489ca2b5937696c31910160405180910390a3505050565b611400848484610f4f565b61140c84848484611751565b610a7f5760405162461bcd60e51b815260040161059f906123ce565b606061143382610c97565b6114975760405162461bcd60e51b815260206004820152602f60248201527f4552433732314d657461646174613a2055524920717565727920666f72206e6f60448201526e3732bc34b9ba32b73a103a37b5b2b760891b606482015260840161059f565b60006114ae60408051602081019091526000815290565b905060008151116114ce57604051806020016040528060008152506114f9565b806114d88461184f565b6040516020016114e9929190612313565b6040516020818303038152906040525b9392505050565b600061049f7f6316f9ddd4d59a364f3b95c26bab9d392c3380ace0fff15e91ed76f0d8bcd15a8335602085013561153a604087018761224d565b604051611548929190612420565b6040519081900381206115769493929160200193845260208401929092526040830152606082015260800190565b6040516020818303038152906040528051906020012061194d565b60008060006115a0858561199b565b915091506115ad81611a0b565b509392505050565b606060006115c4836002612430565b6115cf9060026122aa565b67ffffffffffffffff8111156115e7576115e7611fa2565b6040519080825280601f01601f191660200182016040528015611611576020820181803683370190505b509050600360fc1b8160008151811061162c5761162c61244f565b60200101906001600160f81b031916908160001a905350600f60fb1b8160018151811061165b5761165b61244f565b60200101906001600160f81b031916908160001a905350600061167f846002612430565b61168a9060016122aa565b90505b6001811115611702576f181899199a1a9b1b9c1cb0b131b232b360811b85600f16601081106116be576116be61244f565b1a60f81b8282815181106116d4576116d461244f565b60200101906001600160f81b031916908160001a90535060049490941c936116fb81612465565b905061168d565b5083156114f95760405162461bcd60e51b815260206004820181905260248201527f537472696e67733a20686578206c656e67746820696e73756666696369656e74604482015260640161059f565b60006001600160a01b0384163b1561184457604051630a85bd0160e11b81526001600160a01b0385169063150b7a029061179590339089908890889060040161247c565b6020604051808303816000875af19250505080156117d0575060408051601f3d908101601f191682019092526117cd918101906124b9565b60015b61182a573d8080156117fe576040519150601f19603f3d011682016040523d82523d6000602084013e611803565b606091505b5080516118225760405162461bcd60e51b815260040161059f906123ce565b805181602001fd5b6001600160e01b031916630a85bd0160e11b149050610bf4565b506001949350505050565b6060816118735750506040805180820190915260018152600360fc1b602082015290565b8160005b811561189d5780611887816124d6565b91506118969050600a83612507565b9150611877565b60008167ffffffffffffffff8111156118b8576118b8611fa2565b6040519080825280601f01601f1916602001820160405280156118e2576020820181803683370190505b5090505b8415610bf4576118f7600183612342565b9150611904600a8661251b565b61190f9060306122aa565b60f81b8183815181106119245761192461244f565b60200101906001600160f81b031916908160001a905350611946600a86612507565b94506118e6565b600061049f61195a611bc9565b8360405161190160f01b6020820152602281018390526042810182905260009060620160405160208183030381529060405280519060200120905092915050565b6000808251604114156119d25760208301516040840151606085015160001a6119c687828585611cf0565b94509450505050611a04565b8251604014156119fc57602083015160408401516119f1868383611ddd565b935093505050611a04565b506000905060025b9250929050565b6000816004811115611a1f57611a1f61252f565b1415611a285750565b6001816004811115611a3c57611a3c61252f565b1415611a8a5760405162461bcd60e51b815260206004820152601860248201527f45434453413a20696e76616c6964207369676e61747572650000000000000000604482015260640161059f565b6002816004811115611a9e57611a9e61252f565b1415611aec5760405162461bcd60e51b815260206004820152601f60248201527f45434453413a20696e76616c6964207369676e6174757265206c656e67746800604482015260640161059f565b6003816004811115611b0057611b0061252f565b1415611b595760405162461bcd60e51b815260206004820152602260248201527f45434453413a20696e76616c6964207369676e6174757265202773272076616c604482015261756560f01b606482015260840161059f565b6004816004811115611b6d57611b6d61252f565b1415611bc65760405162461bcd60e51b815260206004820152602260248201527f45434453413a20696e76616c6964207369676e6174757265202776272076616c604482015261756560f01b606482015260840161059f565b50565b6000306001600160a01b037f000000000000000000000000000000000000000000000000000000000000000016148015611c2257507f000000000000000000000000000000000000000000000000000000000000000046145b15611c4c57507f000000000000000000000000000000000000000000000000000000000000000090565b50604080517f00000000000000000000000000000000000000000000000000000000000000006020808301919091527f0000000000000000000000000000000000000000000000000000000000000000828401527f000000000000000000000000000000000000000000000000000000000000000060608301524660808301523060a0808401919091528351808403909101815260c0909201909252805191012090565b6000807f7fffffffffffffffffffffffffffffff5d576e7357a4501ddfe92f46681b20a0831115611d275750600090506003611dd4565b8460ff16601b14158015611d3f57508460ff16601c14155b15611d505750600090506004611dd4565b6040805160008082526020820180845289905260ff881692820192909252606081018690526080810185905260019060a0016020604051602081039080840390855afa158015611da4573d6000803e3d6000fd5b5050604051601f1901519150506001600160a01b038116611dcd57600060019250925050611dd4565b9150600090505b94509492505050565b6000806001600160ff1b03831660ff84901c601b01611dfe87828885611cf0565b935093505050935093915050565b828054611e1890612212565b90600052602060002090601f016020900481019282611e3a5760008555611e80565b82601f10611e5357805160ff1916838001178555611e80565b82800160010185558215611e80579182015b82811115611e80578251825591602001919060010190611e65565b50611e8c929150611e90565b5090565b5b80821115611e8c5760008155600101611e91565b6001600160e01b031981168114611bc657600080fd5b600060208284031215611ecd57600080fd5b81356114f981611ea5565b60005b83811015611ef3578181015183820152602001611edb565b83811115610a7f5750506000910152565b60008151808452611f1c816020860160208601611ed8565b601f01601f19169290920160200192915050565b6020815260006114f96020830184611f04565b600060208284031215611f5557600080fd5b5035919050565b80356001600160a01b0381168114611f7357600080fd5b919050565b60008060408385031215611f8b57600080fd5b611f9483611f5c565b946020939093013593505050565b634e487b7160e01b600052604160045260246000fd5b600082601f830112611fc957600080fd5b813567ffffffffffffffff80821115611fe457611fe4611fa2565b604051601f8301601f19908116603f0116810190828211818310171561200c5761200c611fa2565b8160405283815286602085880101111561202557600080fd5b836020870160208301376000602085830101528094505050505092915050565b60008060006060848603121561205a57600080fd5b61206384611f5c565b9250602084013567ffffffffffffffff8082111561208057600080fd5b908501906060828803121561209457600080fd5b909250604085013590808211156120aa57600080fd5b506120b786828701611fb8565b9150509250925092565b6000806000606084860312156120d657600080fd5b6120df84611f5c565b92506120ed60208501611f5c565b9150604084013590509250925092565b6000806040838503121561211057600080fd5b8235915061212060208401611f5c565b90509250929050565b60006020828403121561213b57600080fd5b6114f982611f5c565b6000806040838503121561215757600080fd5b61216083611f5c565b91506020830135801515811461217557600080fd5b809150509250929050565b6000806000806080858703121561219657600080fd5b61219f85611f5c565b93506121ad60208601611f5c565b925060408501359150606085013567ffffffffffffffff8111156121d057600080fd5b6121dc87828801611fb8565b91505092959194509250565b600080604083850312156121fb57600080fd5b61220483611f5c565b915061212060208401611f5c565b600181811c9082168061222657607f821691505b6020821081141561224757634e487b7160e01b600052602260045260246000fd5b50919050565b6000808335601e1984360301811261226457600080fd5b83018035915067ffffffffffffffff82111561227f57600080fd5b602001915036819003821315611a0457600080fd5b634e487b7160e01b600052601160045260246000fd5b600082198211156122bd576122bd612294565b500190565b60208082526031908201527f4552433732313a207472616e736665722063616c6c6572206973206e6f74206f6040820152701ddb995c881b9bdc88185c1c1c9bdd9959607a1b606082015260800190565b60008351612325818460208801611ed8565b835190830190612339818360208801611ed8565b01949350505050565b60008282101561235457612354612294565b500390565b7f416363657373436f6e74726f6c3a206163636f756e7420000000000000000000815260008351612391816017850160208801611ed8565b7001034b99036b4b9b9b4b733903937b6329607d1b60179184019182015283516123c2816028840160208801611ed8565b01602801949350505050565b60208082526032908201527f4552433732313a207472616e7366657220746f206e6f6e20455243373231526560408201527131b2b4bb32b91034b6b83632b6b2b73a32b960711b606082015260800190565b8183823760009101908152919050565b600081600019048311821515161561244a5761244a612294565b500290565b634e487b7160e01b600052603260045260246000fd5b60008161247457612474612294565b506000190190565b6001600160a01b03858116825284166020820152604081018390526080606082018190526000906124af90830184611f04565b9695505050505050565b6000602082840312156124cb57600080fd5b81516114f981611ea5565b60006000198214156124ea576124ea612294565b5060010190565b634e487b7160e01b600052601260045260246000fd5b600082612516576125166124f1565b500490565b60008261252a5761252a6124f1565b500690565b634e487b7160e01b600052602160045260246000fdfea2646970667358221220480bb9e1b29bbcd964db3a3f3f133f0808a8f8e0c777823664146bf99ba924c864736f6c634300080c0033",
    "sourcePath": "/home/faeze/workspace2/polygon-ethereum-nextjs-marketplace/contracts/Lazy.sol",
    "compiler": {
        "name": "solc",
        "version": "0.8.12+commit.f00d7308"
    },
    "functionHashes": {
        "DEFAULT_ADMIN_ROLE()": "a217fddf",
        "MINTER_ROLE()": "d5391393",
        "approve(address,uint256)": "095ea7b3",
        "availableToWithdraw()": "e322ad2b",
        "balanceOf(address)": "70a08231",
        "getApproved(uint256)": "081812fc",
        "getRoleAdmin(bytes32)": "248a9ca3",
        "grantRole(bytes32,address)": "2f2ff15d",
        "hasRole(bytes32,address)": "91d14854",
        "isApprovedForAll(address,address)": "e985e9c5",
        "name()": "06fdde03",
        "ownerOf(uint256)": "6352211e",
        "redeem(address,(uint256,uint256,string),bytes)": "1c098e90",
        "renounceRole(bytes32,address)": "36568abe",
        "revokeRole(bytes32,address)": "d547741f",
        "safeTransferFrom(address,address,uint256)": "42842e0e",
        "safeTransferFrom(address,address,uint256,bytes)": "b88d4fde",
        "setApprovalForAll(address,bool)": "a22cb465",
        "supportsInterface(bytes4)": "01ffc9a7",
        "symbol()": "95d89b41",
        "tokenURI(uint256)": "c87b56dd",
        "transferFrom(address,address,uint256)": "23b872dd",
        "withdraw()": "3ccfd60b"
    },
    "gasEstimates": {
        "creation": {
            "codeDepositCost": "1919000",
            "executionCost": "infinite",
            "totalCost": "infinite"
        },
        "external": {
            "DEFAULT_ADMIN_ROLE()": "306",
            "MINTER_ROLE()": "261",
            "approve(address,uint256)": "infinite",
            "availableToWithdraw()": "2470",
            "balanceOf(address)": "2634",
            "getApproved(uint256)": "4799",
            "getRoleAdmin(bytes32)": "2489",
            "grantRole(bytes32,address)": "infinite",
            "hasRole(bytes32,address)": "2721",
            "isApprovedForAll(address,address)": "infinite",
            "name()": "infinite",
            "ownerOf(uint256)": "2579",
            "redeem(address,(uint256,uint256,string),bytes)": "infinite",
            "renounceRole(bytes32,address)": "29090",
            "revokeRole(bytes32,address)": "infinite",
            "safeTransferFrom(address,address,uint256)": "infinite",
            "safeTransferFrom(address,address,uint256,bytes)": "infinite",
            "setApprovalForAll(address,bool)": "26819",
            "supportsInterface(bytes4)": "infinite",
            "symbol()": "infinite",
            "tokenURI(uint256)": "infinite",
            "transferFrom(address,address,uint256)": "infinite",
            "withdraw()": "infinite"
        },
        "internal": {
            "_hash(struct Lazy.NFTVoucher calldata)": "infinite",
            "_verify(struct Lazy.NFTVoucher calldata,bytes memory)": "infinite"
        }
    }
}