{
  "_format": "hh-sol-artifact-1",
  "contractName": "NewERC1155lazy",
  "sourceName": "contracts/NewERC1155lazy.sol",
  "abi": [
    {
      "inputs": [],
      "stateMutability": "nonpayable",
      "type": "constructor"
    },
    {
      "anonymous": false,
      "inputs": [
        {
          "indexed": true,
          "internalType": "address",
          "name": "account",
          "type": "address"
        },
        {
          "indexed": true,
          "internalType": "address",
          "name": "operator",
          "type": "address"
        },
        {
          "indexed": false,
          "internalType": "bool",
          "name": "approved",
          "type": "bool"
        }
      ],
      "name": "ApprovalForAll",
      "type": "event"
    },
    {
      "anonymous": false,
      "inputs": [
        {
          "indexed": true,
          "internalType": "address",
          "name": "previousOwner",
          "type": "address"
        },
        {
          "indexed": true,
          "internalType": "address",
          "name": "newOwner",
          "type": "address"
        }
      ],
      "name": "OwnershipTransferred",
      "type": "event"
    },
    {
      "anonymous": false,
      "inputs": [
        {
          "indexed": false,
          "internalType": "address",
          "name": "owner",
          "type": "address"
        },
        {
          "indexed": false,
          "internalType": "uint256[]",
          "name": "tokenIds",
          "type": "uint256[]"
        },
        {
          "indexed": false,
          "internalType": "string[]",
          "name": "tokenURIs",
          "type": "string[]"
        },
        {
          "indexed": false,
          "internalType": "uint256[]",
          "name": "amounts",
          "type": "uint256[]"
        },
        {
          "indexed": false,
          "internalType": "uint256[]",
          "name": "royalty",
          "type": "uint256[]"
        }
      ],
      "name": "TokenBatchCreated",
      "type": "event"
    },
    {
      "anonymous": false,
      "inputs": [
        {
          "indexed": false,
          "internalType": "address",
          "name": "account",
          "type": "address"
        },
        {
          "indexed": false,
          "internalType": "uint256",
          "name": "tokenId",
          "type": "uint256"
        },
        {
          "indexed": false,
          "internalType": "uint256",
          "name": "amount",
          "type": "uint256"
        }
      ],
      "name": "TokenBurnt",
      "type": "event"
    },
    {
      "anonymous": false,
      "inputs": [
        {
          "indexed": false,
          "internalType": "address",
          "name": "account",
          "type": "address"
        },
        {
          "indexed": false,
          "internalType": "uint256[]",
          "name": "tokenIds",
          "type": "uint256[]"
        },
        {
          "indexed": false,
          "internalType": "uint256[]",
          "name": "amounts",
          "type": "uint256[]"
        }
      ],
      "name": "TokenBurntBatch",
      "type": "event"
    },
    {
      "anonymous": false,
      "inputs": [
        {
          "indexed": false,
          "internalType": "address",
          "name": "owner",
          "type": "address"
        },
        {
          "indexed": false,
          "internalType": "uint256",
          "name": "tokenId",
          "type": "uint256"
        },
        {
          "indexed": false,
          "internalType": "string",
          "name": "tokenURI",
          "type": "string"
        },
        {
          "indexed": false,
          "internalType": "uint256",
          "name": "amount",
          "type": "uint256"
        },
        {
          "indexed": false,
          "internalType": "uint256",
          "name": "royalty",
          "type": "uint256"
        }
      ],
      "name": "TokenCreated",
      "type": "event"
    },
    {
      "anonymous": false,
      "inputs": [
        {
          "indexed": true,
          "internalType": "address",
          "name": "operator",
          "type": "address"
        },
        {
          "indexed": true,
          "internalType": "address",
          "name": "from",
          "type": "address"
        },
        {
          "indexed": true,
          "internalType": "address",
          "name": "to",
          "type": "address"
        },
        {
          "indexed": false,
          "internalType": "uint256[]",
          "name": "ids",
          "type": "uint256[]"
        },
        {
          "indexed": false,
          "internalType": "uint256[]",
          "name": "values",
          "type": "uint256[]"
        }
      ],
      "name": "TransferBatch",
      "type": "event"
    },
    {
      "anonymous": false,
      "inputs": [
        {
          "indexed": true,
          "internalType": "address",
          "name": "operator",
          "type": "address"
        },
        {
          "indexed": true,
          "internalType": "address",
          "name": "from",
          "type": "address"
        },
        {
          "indexed": true,
          "internalType": "address",
          "name": "to",
          "type": "address"
        },
        {
          "indexed": false,
          "internalType": "uint256",
          "name": "id",
          "type": "uint256"
        },
        {
          "indexed": false,
          "internalType": "uint256",
          "name": "value",
          "type": "uint256"
        }
      ],
      "name": "TransferSingle",
      "type": "event"
    },
    {
      "anonymous": false,
      "inputs": [
        {
          "indexed": false,
          "internalType": "string",
          "name": "value",
          "type": "string"
        },
        {
          "indexed": true,
          "internalType": "uint256",
          "name": "id",
          "type": "uint256"
        }
      ],
      "name": "URI",
      "type": "event"
    },
    {
      "inputs": [],
      "name": "aprovalMarketPlacesForAccount",
      "outputs": [],
      "stateMutability": "nonpayable",
      "type": "function"
    },
    {
      "inputs": [
        {
          "internalType": "address",
          "name": "account",
          "type": "address"
        },
        {
          "internalType": "uint256",
          "name": "id",
          "type": "uint256"
        }
      ],
      "name": "balanceOf",
      "outputs": [
        {
          "internalType": "uint256",
          "name": "",
          "type": "uint256"
        }
      ],
      "stateMutability": "view",
      "type": "function"
    },
    {
      "inputs": [
        {
          "internalType": "address[]",
          "name": "accounts",
          "type": "address[]"
        },
        {
          "internalType": "uint256[]",
          "name": "ids",
          "type": "uint256[]"
        }
      ],
      "name": "balanceOfBatch",
      "outputs": [
        {
          "internalType": "uint256[]",
          "name": "",
          "type": "uint256[]"
        }
      ],
      "stateMutability": "view",
      "type": "function"
    },
    {
      "inputs": [
        {
          "internalType": "address",
          "name": "account",
          "type": "address"
        },
        {
          "internalType": "uint256",
          "name": "_tokenId",
          "type": "uint256"
        },
        {
          "internalType": "uint256",
          "name": "amount",
          "type": "uint256"
        }
      ],
      "name": "burn",
      "outputs": [],
      "stateMutability": "nonpayable",
      "type": "function"
    },
    {
      "inputs": [
        {
          "internalType": "address",
          "name": "account",
          "type": "address"
        },
        {
          "internalType": "uint256[]",
          "name": "ids",
          "type": "uint256[]"
        },
        {
          "internalType": "uint256[]",
          "name": "values",
          "type": "uint256[]"
        }
      ],
      "name": "burnBatch",
      "outputs": [],
      "stateMutability": "nonpayable",
      "type": "function"
    },
    {
      "inputs": [
        {
          "internalType": "uint256",
          "name": "_tokenId",
          "type": "uint256"
        }
      ],
      "name": "getRoyaltyPercentage",
      "outputs": [
        {
          "internalType": "uint256",
          "name": "",
          "type": "uint256"
        }
      ],
      "stateMutability": "view",
      "type": "function"
    },
    {
      "inputs": [
        {
          "internalType": "address",
          "name": "market",
          "type": "address"
        }
      ],
      "name": "initMarket",
      "outputs": [],
      "stateMutability": "nonpayable",
      "type": "function"
    },
    {
      "inputs": [
        {
          "internalType": "address",
          "name": "account",
          "type": "address"
        },
        {
          "internalType": "address",
          "name": "operator",
          "type": "address"
        }
      ],
      "name": "isApprovedForAll",
      "outputs": [
        {
          "internalType": "bool",
          "name": "",
          "type": "bool"
        }
      ],
      "stateMutability": "view",
      "type": "function"
    },
    {
      "inputs": [],
      "name": "isMArketPlaceActiveForAccount",
      "outputs": [
        {
          "internalType": "bool",
          "name": "",
          "type": "bool"
        }
      ],
      "stateMutability": "view",
      "type": "function"
    },
    {
      "inputs": [
        {
          "internalType": "uint256",
          "name": "amount",
          "type": "uint256"
        },
        {
          "internalType": "string",
          "name": "url",
          "type": "string"
        },
        {
          "internalType": "uint256",
          "name": "royaltyPercentage",
          "type": "uint256"
        }
      ],
      "name": "mint",
      "outputs": [],
      "stateMutability": "nonpayable",
      "type": "function"
    },
    {
      "inputs": [
        {
          "internalType": "uint256[]",
          "name": "ids",
          "type": "uint256[]"
        },
        {
          "internalType": "uint256[]",
          "name": "amounts",
          "type": "uint256[]"
        },
        {
          "internalType": "bytes",
          "name": "data",
          "type": "bytes"
        },
        {
          "internalType": "string[]",
          "name": "urls",
          "type": "string[]"
        },
        {
          "internalType": "uint256[]",
          "name": "royaltyPercentage",
          "type": "uint256[]"
        }
      ],
      "name": "mintBatch",
      "outputs": [],
      "stateMutability": "nonpayable",
      "type": "function"
    },
    {
      "inputs": [
        {
          "components": [
            {
              "internalType": "uint256",
              "name": "tokenId",
              "type": "uint256"
            },
            {
              "internalType": "uint256",
              "name": "minPrice",
              "type": "uint256"
            },
            {
              "internalType": "uint256",
              "name": "amount",
              "type": "uint256"
            },
            {
              "internalType": "string",
              "name": "uri",
              "type": "string"
            },
            {
              "internalType": "uint256",
              "name": "royaltyPercentage",
              "type": "uint256"
            }
          ],
          "internalType": "struct NewERC1155lazy.NFTVoucher",
          "name": "voucher",
          "type": "tuple"
        },
        {
          "internalType": "bytes",
          "name": "signature",
          "type": "bytes"
        }
      ],
      "name": "mintandApproveMarket",
      "outputs": [
        {
          "internalType": "uint256",
          "name": "",
          "type": "uint256"
        },
        {
          "internalType": "address",
          "name": "",
          "type": "address"
        }
      ],
      "stateMutability": "nonpayable",
      "type": "function"
    },
    {
      "inputs": [],
      "name": "name",
      "outputs": [
        {
          "internalType": "string",
          "name": "",
          "type": "string"
        }
      ],
      "stateMutability": "view",
      "type": "function"
    },
    {
      "inputs": [],
      "name": "owner",
      "outputs": [
        {
          "internalType": "address",
          "name": "",
          "type": "address"
        }
      ],
      "stateMutability": "view",
      "type": "function"
    },
    {
      "inputs": [],
      "name": "renounceOwnership",
      "outputs": [],
      "stateMutability": "nonpayable",
      "type": "function"
    },
    {
      "inputs": [
        {
          "internalType": "uint256",
          "name": "_tokenId",
          "type": "uint256"
        },
        {
          "internalType": "uint256",
          "name": "_salePrice",
          "type": "uint256"
        }
      ],
      "name": "royaltyInfo",
      "outputs": [
        {
          "internalType": "address",
          "name": "receiver",
          "type": "address"
        },
        {
          "internalType": "uint256",
          "name": "royaltyAmount",
          "type": "uint256"
        }
      ],
      "stateMutability": "view",
      "type": "function"
    },
    {
      "inputs": [
        {
          "internalType": "address",
          "name": "from",
          "type": "address"
        },
        {
          "internalType": "address",
          "name": "to",
          "type": "address"
        },
        {
          "internalType": "uint256[]",
          "name": "ids",
          "type": "uint256[]"
        },
        {
          "internalType": "uint256[]",
          "name": "amounts",
          "type": "uint256[]"
        },
        {
          "internalType": "bytes",
          "name": "data",
          "type": "bytes"
        }
      ],
      "name": "safeBatchTransferFrom",
      "outputs": [],
      "stateMutability": "nonpayable",
      "type": "function"
    },
    {
      "inputs": [
        {
          "internalType": "address",
          "name": "from",
          "type": "address"
        },
        {
          "internalType": "address",
          "name": "to",
          "type": "address"
        },
        {
          "internalType": "uint256",
          "name": "id",
          "type": "uint256"
        },
        {
          "internalType": "uint256",
          "name": "amount",
          "type": "uint256"
        },
        {
          "internalType": "bytes",
          "name": "data",
          "type": "bytes"
        }
      ],
      "name": "safeTransferFrom",
      "outputs": [],
      "stateMutability": "nonpayable",
      "type": "function"
    },
    {
      "inputs": [
        {
          "internalType": "address",
          "name": "operator",
          "type": "address"
        },
        {
          "internalType": "bool",
          "name": "approved",
          "type": "bool"
        }
      ],
      "name": "setApprovalForAll",
      "outputs": [],
      "stateMutability": "nonpayable",
      "type": "function"
    },
    {
      "inputs": [
        {
          "internalType": "bytes4",
          "name": "interfaceId",
          "type": "bytes4"
        }
      ],
      "name": "supportsInterface",
      "outputs": [
        {
          "internalType": "bool",
          "name": "",
          "type": "bool"
        }
      ],
      "stateMutability": "view",
      "type": "function"
    },
    {
      "inputs": [],
      "name": "symbol",
      "outputs": [
        {
          "internalType": "string",
          "name": "",
          "type": "string"
        }
      ],
      "stateMutability": "view",
      "type": "function"
    },
    {
      "inputs": [
        {
          "internalType": "uint256",
          "name": "",
          "type": "uint256"
        }
      ],
      "name": "tokenURI",
      "outputs": [
        {
          "internalType": "string",
          "name": "",
          "type": "string"
        }
      ],
      "stateMutability": "view",
      "type": "function"
    },
    {
      "inputs": [
        {
          "internalType": "address",
          "name": "newOwner",
          "type": "address"
        }
      ],
      "name": "transferOwnership",
      "outputs": [],
      "stateMutability": "nonpayable",
      "type": "function"
    },
    {
      "inputs": [
        {
          "internalType": "uint256",
          "name": "_id",
          "type": "uint256"
        }
      ],
      "name": "uri",
      "outputs": [
        {
          "internalType": "string",
          "name": "",
          "type": "string"
        }
      ],
      "stateMutability": "view",
      "type": "function"
    }
  ],
  "bytecode": "0x6101406040523480156200001257600080fd5b50604051806040016040528060048152602001634e616d6560e01b815250604051806040016040528060058152602001640312e302e360dc1b8152506040518060200160405280600081525062000078620000726200017560201b60201c565b62000179565b6200008381620001c9565b50815160208084019190912082518383012060e08290526101008190524660a0818152604080517f8b73c3c69bb8fe3d512ecc4cf759cc79239f7b179b0ffacaa9a75d522b39400f81880181905281830187905260608201869052608082019490945230818401528151808203909301835260c00190528051940193909320919290916080523060c052610120525050604080518082019091526003808252621b999d60ea1b602090920191825262000141935060049250620001e2565b50604080518082019091526003808252621b999d60ea1b60209092019182526200016e91600591620001e2565b50620002c5565b3390565b600080546001600160a01b038381166001600160a01b0319831681178455604051919092169283917f8be0079c531659141344cd1fd0a4f28419497f9722a3daafe3b4186f6b6457e09190a35050565b8051620001de906003906020840190620001e2565b5050565b828054620001f09062000288565b90600052602060002090601f0160209004810192826200021457600085556200025f565b82601f106200022f57805160ff19168380011785556200025f565b828001600101855582156200025f579182015b828111156200025f57825182559160200191906001019062000242565b506200026d92915062000271565b5090565b5b808211156200026d576000815560010162000272565b600181811c908216806200029d57607f821691505b60208210811415620002bf57634e487b7160e01b600052602260045260246000fd5b50919050565b60805160a05160c05160e0516101005161012051612e35620003156000396000611ce001526000611d2f01526000611d0a01526000611c6301526000611c8d01526000611cb70152612e356000f3fe608060405234801561001057600080fd5b50600436106101575760003560e01c806376a17510116100c3578063c87b56dd1161007c578063c87b56dd14610319578063e985e9c51461032c578063f242432a14610368578063f2fde38b1461037b578063f5298aca1461038e578063fd079bb4146103a157600080fd5b806376a175101461027d5780638da5cb5b146102a057806395d89b41146102bb57806398587877146102c3578063a22cb465146102f3578063acca6b311461030657600080fd5b80632a55205a116101155780632a55205a146101ea5780632eb2c2d61461021c57806334a556111461022f5780634e1273f4146102425780636b20c45414610262578063715018a61461027557600080fd5b8062fdd58e1461015c57806301ffc9a71461018257806306fdde03146101a55780630af0847e146101ba5780630e89341c146101cf5780632458252a146101e2575b600080fd5b61016f61016a366004611fc5565b6103a9565b6040519081526020015b60405180910390f35b610195610190366004612005565b610442565b6040519015158152602001610179565b6101ad610474565b6040516101799190612076565b6101cd6101c836600461225c565b610502565b005b6101ad6101dd36600461232d565b610610565b6101cd6106b2565b6101fd6101f8366004612346565b6106cb565b604080516001600160a01b039093168352602083019190915201610179565b6101cd61022a366004612368565b61070e565b6101cd61023d366004612404565b6107a5565b61025561025036600461241f565b6107f1565b6040516101799190612524565b6101cd610270366004612537565b61091a565b6101cd61099d565b61016f61028b36600461232d565b60009081526008602052604090206001015490565b6000546040516001600160a01b039091168152602001610179565b6101ad6109d1565b6102d66102d13660046125aa565b6109de565b604080519283526001600160a01b03909116602083015201610179565b6101cd61030136600461260b565b610aed565b6101cd610314366004612647565b610afc565b6101ad61032736600461232d565b610ba2565b61019561033a366004612696565b6001600160a01b03918216600090815260026020908152604080832093909416825291909152205460ff1690565b6101cd6103763660046126c0565b610bbb565b6101cd610389366004612404565b610c00565b6101cd61039c366004612724565b610c9b565b610195610ce4565b60006001600160a01b03831661041a5760405162461bcd60e51b815260206004820152602b60248201527f455243313135353a2062616c616e636520717565727920666f7220746865207a60448201526a65726f206164647265737360a81b60648201526084015b60405180910390fd5b5060009081526001602090815260408083206001600160a01b03949094168352929052205490565b60006001600160e01b0319821663152a902d60e11b141561046557506001919050565b61046e82610d03565b92915050565b6004805461048190612757565b80601f01602080910402602001604051908101604052809291908181526020018280546104ad90612757565b80156104fa5780601f106104cf576101008083540402835291602001916104fa565b820191906000526020600020905b8154815290600101906020018083116104dd57829003601f168201915b505050505081565b61050e33868686610d53565b60005b85518110156105c95782818151811061052c5761052c612792565b60200260200101516009600088848151811061054a5761054a612792565b602002602001015181526020019081526020016000209080519060200190610573929190611e9c565b506105b786828151811061058957610589612792565b60200260200101516105983390565b8484815181106105aa576105aa612792565b6020026020010151610e9f565b806105c1816127be565b915050610511565b507f3eb746064700abaa2ae35011e04e8ff5f6cac0d519b29974f8a7a293650eb88633868487856040516106019594939291906127d9565b60405180910390a15050505050565b600081815260096020526040902080546060919061062d90612757565b80601f016020809104026020016040519081016040528092919081815260200182805461065990612757565b80156106a65780601f1061067b576101008083540402835291602001916106a6565b820191906000526020600020905b81548152906001019060200180831161068957829003601f168201915b50505050509050919050565b6007546106c9906001600160a01b03166001610aed565b565b600082815260086020526040812080546001909101546001600160a01b0390911691906064906106fb9085612884565b61070591906128a3565b90509250929050565b6001600160a01b03851633148061072a575061072a853361033a565b6107915760405162461bcd60e51b815260206004820152603260248201527f455243313135353a207472616e736665722063616c6c6572206973206e6f74206044820152711bdddb995c881b9bdc88185c1c1c9bdd995960721b6064820152608401610411565b61079e8585858585610ee7565b5050505050565b6000546001600160a01b031633146107cf5760405162461bcd60e51b8152600401610411906128c5565b600780546001600160a01b0319166001600160a01b0392909216919091179055565b606081518351146108565760405162461bcd60e51b815260206004820152602960248201527f455243313135353a206163636f756e747320616e6420696473206c656e677468604482015268040dad2e6dac2e8c6d60bb1b6064820152608401610411565b600083516001600160401b0381111561087157610871612089565b60405190808252806020026020018201604052801561089a578160200160208202803683370190505b50905060005b8451811015610912576108e58582815181106108be576108be612792565b60200260200101518583815181106108d8576108d8612792565b60200260200101516103a9565b8282815181106108f7576108f7612792565b602090810291909101015261090b816127be565b90506108a0565b509392505050565b6001600160a01b0383163314806109365750610936833361033a565b6109525760405162461bcd60e51b8152600401610411906128fa565b61095d838383611086565b7f7f42cb686777629a13dc5c6d42e5088f6fbf634653c259bc1d89e90998d56b9c33838360405161099093929190612943565b60405180910390a1505050565b6000546001600160a01b031633146109c75760405162461bcd60e51b8152600401610411906128c5565b6106c96000611205565b6005805461048190612757565b60008060006109ed8585611255565b90506109fd600680546001019055565b6000610a0860065490565b9050610a298282886040013560405180602001604052806000815250611278565b610a366060870187612983565b6000838152600960205260409020610a4f929091611f20565b50610a5f81838860800135610e9f565b7f65a173628f7ccd4dd3d275afad7b23b03041797a4ae34964e959dfc2405872423382610a8f60608a018a612983565b8a604001358b60800135604051610aab969594939291906129c9565b60405180910390a16007546040805160208101825260008152610ae19285926001600160a01b039091169185918b01359061134a565b925090505b9250929050565b610af833838361146b565b5050565b610b0a600680546001019055565b6000610b1560065490565b9050610b3233828660405180602001604052806000815250611278565b60008181526009602090815260409091208451610b5192860190611e9c565b50610b5d813384610e9f565b7f65a173628f7ccd4dd3d275afad7b23b03041797a4ae34964e959dfc2405872423382858786604051610b94959493929190612a22565b60405180910390a150505050565b6009602052600090815260409020805461048190612757565b6001600160a01b038516331480610bd75750610bd7853361033a565b610bf35760405162461bcd60e51b8152600401610411906128fa565b61079e858585858561134a565b6000546001600160a01b03163314610c2a5760405162461bcd60e51b8152600401610411906128c5565b6001600160a01b038116610c8f5760405162461bcd60e51b815260206004820152602660248201527f4f776e61626c653a206e6577206f776e657220697320746865207a65726f206160448201526564647265737360d01b6064820152608401610411565b610c9881611205565b50565b610ca683838361154c565b60408051338152602081018490529081018290527f40ec41b547e3a769f863d660b593350eb4ce5d779b1c4e3f112eefc40c8e81d890606001610990565b600754600090610cfe9033906001600160a01b031661033a565b905090565b60006001600160e01b03198216636cdb3d1360e11b1480610d3457506001600160e01b031982166303a24d0760e21b145b8061046e57506301ffc9a760e01b6001600160e01b031983161461046e565b6001600160a01b038416610d795760405162461bcd60e51b815260040161041190612a5d565b8151835114610d9a5760405162461bcd60e51b815260040161041190612a9e565b3360005b8451811015610e3757838181518110610db957610db9612792565b602002602001015160016000878481518110610dd757610dd7612792565b602002602001015181526020019081526020016000206000886001600160a01b03166001600160a01b031681526020019081526020016000206000828254610e1f9190612ae6565b90915550819050610e2f816127be565b915050610d9e565b50846001600160a01b031660006001600160a01b0316826001600160a01b03167f4a39dc06d4c0dbc64b70af90fd698a233a518aa5d07e595d983b8c0526c8f7fb8787604051610e88929190612afe565b60405180910390a461079e81600087878787611594565b6040805180820182526001600160a01b03938416815260208082019384526000958652600890529320925183546001600160a01b031916921691909117825551600190910155565b8151835114610f085760405162461bcd60e51b815260040161041190612a9e565b6001600160a01b038416610f2e5760405162461bcd60e51b815260040161041190612b23565b3360005b8451811015611018576000858281518110610f4f57610f4f612792565b602002602001015190506000858381518110610f6d57610f6d612792565b60209081029190910181015160008481526001835260408082206001600160a01b038e168352909352919091205490915081811015610fbe5760405162461bcd60e51b815260040161041190612b68565b60008381526001602090815260408083206001600160a01b038e8116855292528083208585039055908b16825281208054849290610ffd908490612ae6565b9250508190555050505080611011906127be565b9050610f32565b50846001600160a01b0316866001600160a01b0316826001600160a01b03167f4a39dc06d4c0dbc64b70af90fd698a233a518aa5d07e595d983b8c0526c8f7fb8787604051611068929190612afe565b60405180910390a461107e818787878787611594565b505050505050565b6001600160a01b0383166110ac5760405162461bcd60e51b815260040161041190612bb2565b80518251146110cd5760405162461bcd60e51b815260040161041190612a9e565b604080516020810190915260009081905233905b83518110156111a65760008482815181106110fe576110fe612792565b60200260200101519050600084838151811061111c5761111c612792565b60209081029190910181015160008481526001835260408082206001600160a01b038c16835290935291909120549091508181101561116d5760405162461bcd60e51b815260040161041190612bf5565b60009283526001602090815260408085206001600160a01b038b168652909152909220910390558061119e816127be565b9150506110e1565b5060006001600160a01b0316846001600160a01b0316826001600160a01b03167f4a39dc06d4c0dbc64b70af90fd698a233a518aa5d07e595d983b8c0526c8f7fb86866040516111f7929190612afe565b60405180910390a450505050565b600080546001600160a01b038381166001600160a01b0319831681178455604051919092169283917f8be0079c531659141344cd1fd0a4f28419497f9722a3daafe3b4186f6b6457e09190a35050565b600080611261846116ff565b9050600061126f82856117a9565b95945050505050565b6001600160a01b03841661129e5760405162461bcd60e51b815260040161041190612a5d565b336112b8816000876112af886117c5565b61079e886117c5565b60008481526001602090815260408083206001600160a01b0389168452909152812080548592906112ea908490612ae6565b909155505060408051858152602081018590526001600160a01b0380881692600092918516917fc3d58168c5ae7397731d063d5bbf3d657854427343f4c083240f7aacaa2d0f62910160405180910390a461079e81600087878787611810565b6001600160a01b0384166113705760405162461bcd60e51b815260040161041190612b23565b336113808187876112af886117c5565b60008481526001602090815260408083206001600160a01b038a168452909152902054838110156113c35760405162461bcd60e51b815260040161041190612b68565b60008581526001602090815260408083206001600160a01b038b8116855292528083208785039055908816825281208054869290611402908490612ae6565b909155505060408051868152602081018690526001600160a01b03808916928a821692918616917fc3d58168c5ae7397731d063d5bbf3d657854427343f4c083240f7aacaa2d0f62910160405180910390a4611462828888888888611810565b50505050505050565b816001600160a01b0316836001600160a01b031614156114df5760405162461bcd60e51b815260206004820152602960248201527f455243313135353a2073657474696e6720617070726f76616c20737461747573604482015268103337b91039b2b63360b91b6064820152608401610411565b6001600160a01b03838116600081815260026020908152604080832094871680845294825291829020805460ff191686151590811790915591519182527f17307eab39ab6107e8899845ad3d59bd9653f200f220920489ca2b5937696c31910160405180910390a3505050565b6001600160a01b0383163314806115685750611568833361033a565b6115845760405162461bcd60e51b8152600401610411906128fa565b61158f8383836118da565b505050565b6001600160a01b0384163b1561107e5760405163bc197c8160e01b81526001600160a01b0385169063bc197c81906115d89089908990889088908890600401612c39565b602060405180830381600087803b1580156115f257600080fd5b505af1925050508015611622575060408051601f3d908101601f1916820190925261161f91810190612c8b565b60015b6116cf5761162e612ca8565b806308c379a014156116685750611643612cc3565b8061164e575061166a565b8060405162461bcd60e51b81526004016104119190612076565b505b60405162461bcd60e51b815260206004820152603460248201527f455243313135353a207472616e7366657220746f206e6f6e20455243313135356044820152732932b1b2b4bb32b91034b6b83632b6b2b73a32b960611b6064820152608401610411565b6001600160e01b0319811663bc197c8160e01b146114625760405162461bcd60e51b815260040161041190612d4c565b600061046e7fbc7d9cea8920f0df576796cb2413bcc9e1aa9cc8a2df3485877037ee7459f98183356020850135604086013561173e6060880188612983565b60405161174c929190612d94565b60405190819003812061178e959493929160808a013590602001958652602086019490945260408501929092526060840152608083015260a082015260c00190565b604051602081830303815290604052805190602001206119e0565b60008060006117b88585611a2e565b9150915061091281611a9b565b604080516001808252818301909252606091600091906020808301908036833701905050905082816000815181106117ff576117ff612792565b602090810291909101015292915050565b6001600160a01b0384163b1561107e5760405163f23a6e6160e01b81526001600160a01b0385169063f23a6e61906118549089908990889088908890600401612da4565b602060405180830381600087803b15801561186e57600080fd5b505af192505050801561189e575060408051601f3d908101601f1916820190925261189b91810190612c8b565b60015b6118aa5761162e612ca8565b6001600160e01b0319811663f23a6e6160e01b146114625760405162461bcd60e51b815260040161041190612d4c565b6001600160a01b0383166119005760405162461bcd60e51b815260040161041190612bb2565b3361193081856000611911876117c5565b61191a876117c5565b5050604080516020810190915260009052505050565b60008381526001602090815260408083206001600160a01b0388168452909152902054828110156119735760405162461bcd60e51b815260040161041190612bf5565b60008481526001602090815260408083206001600160a01b03898116808652918452828520888703905582518981529384018890529092908616917fc3d58168c5ae7397731d063d5bbf3d657854427343f4c083240f7aacaa2d0f62910160405180910390a45050505050565b600061046e6119ed611c56565b8360405161190160f01b6020820152602281018390526042810182905260009060620160405160208183030381529060405280519060200120905092915050565b600080825160411415611a655760208301516040840151606085015160001a611a5987828585611d80565b94509450505050610ae6565b825160401415611a8f5760208301516040840151611a84868383611e6d565b935093505050610ae6565b50600090506002610ae6565b6000816004811115611aaf57611aaf612de9565b1415611ab85750565b6001816004811115611acc57611acc612de9565b1415611b1a5760405162461bcd60e51b815260206004820152601860248201527f45434453413a20696e76616c6964207369676e617475726500000000000000006044820152606401610411565b6002816004811115611b2e57611b2e612de9565b1415611b7c5760405162461bcd60e51b815260206004820152601f60248201527f45434453413a20696e76616c6964207369676e6174757265206c656e677468006044820152606401610411565b6003816004811115611b9057611b90612de9565b1415611be95760405162461bcd60e51b815260206004820152602260248201527f45434453413a20696e76616c6964207369676e6174757265202773272076616c604482015261756560f01b6064820152608401610411565b6004816004811115611bfd57611bfd612de9565b1415610c985760405162461bcd60e51b815260206004820152602260248201527f45434453413a20696e76616c6964207369676e6174757265202776272076616c604482015261756560f01b6064820152608401610411565b6000306001600160a01b037f000000000000000000000000000000000000000000000000000000000000000016148015611caf57507f000000000000000000000000000000000000000000000000000000000000000046145b15611cd957507f000000000000000000000000000000000000000000000000000000000000000090565b50604080517f00000000000000000000000000000000000000000000000000000000000000006020808301919091527f0000000000000000000000000000000000000000000000000000000000000000828401527f000000000000000000000000000000000000000000000000000000000000000060608301524660808301523060a0808401919091528351808403909101815260c0909201909252805191012090565b90565b6000807f7fffffffffffffffffffffffffffffff5d576e7357a4501ddfe92f46681b20a0831115611db75750600090506003611e64565b8460ff16601b14158015611dcf57508460ff16601c14155b15611de05750600090506004611e64565b6040805160008082526020820180845289905260ff881692820192909252606081018690526080810185905260019060a0016020604051602081039080840390855afa158015611e34573d6000803e3d6000fd5b5050604051601f1901519150506001600160a01b038116611e5d57600060019250925050611e64565b9150600090505b94509492505050565b6000806001600160ff1b03831660ff84901c601b01611e8e87828885611d80565b935093505050935093915050565b828054611ea890612757565b90600052602060002090601f016020900481019282611eca5760008555611f10565b82601f10611ee357805160ff1916838001178555611f10565b82800160010185558215611f10579182015b82811115611f10578251825591602001919060010190611ef5565b50611f1c929150611f94565b5090565b828054611f2c90612757565b90600052602060002090601f016020900481019282611f4e5760008555611f10565b82601f10611f675782800160ff19823516178555611f10565b82800160010185558215611f10579182015b82811115611f10578235825591602001919060010190611f79565b5b80821115611f1c5760008155600101611f95565b80356001600160a01b0381168114611fc057600080fd5b919050565b60008060408385031215611fd857600080fd5b611fe183611fa9565b946020939093013593505050565b6001600160e01b031981168114610c9857600080fd5b60006020828403121561201757600080fd5b813561202281611fef565b9392505050565b6000815180845260005b8181101561204f57602081850181015186830182015201612033565b81811115612061576000602083870101525b50601f01601f19169290920160200192915050565b6020815260006120226020830184612029565b634e487b7160e01b600052604160045260246000fd5b601f8201601f191681016001600160401b03811182821017156120c4576120c4612089565b6040525050565b60006001600160401b038211156120e4576120e4612089565b5060051b60200190565b600082601f8301126120ff57600080fd5b8135602061210c826120cb565b604051612119828261209f565b83815260059390931b850182019282810191508684111561213957600080fd5b8286015b84811015612154578035835291830191830161213d565b509695505050505050565b600082601f83011261217057600080fd5b81356001600160401b0381111561218957612189612089565b6040516121a0601f8301601f19166020018261209f565b8181528460208386010111156121b557600080fd5b816020850160208301376000918101602001919091529392505050565b600082601f8301126121e357600080fd5b813560206121f0826120cb565b6040516121fd828261209f565b83815260059390931b850182019282810191508684111561221d57600080fd5b8286015b848110156121545780356001600160401b038111156122405760008081fd5b61224e8986838b010161215f565b845250918301918301612221565b600080600080600060a0868803121561227457600080fd5b85356001600160401b038082111561228b57600080fd5b61229789838a016120ee565b965060208801359150808211156122ad57600080fd5b6122b989838a016120ee565b955060408801359150808211156122cf57600080fd5b6122db89838a0161215f565b945060608801359150808211156122f157600080fd5b6122fd89838a016121d2565b9350608088013591508082111561231357600080fd5b50612320888289016120ee565b9150509295509295909350565b60006020828403121561233f57600080fd5b5035919050565b6000806040838503121561235957600080fd5b50508035926020909101359150565b600080600080600060a0868803121561238057600080fd5b61238986611fa9565b945061239760208701611fa9565b935060408601356001600160401b03808211156123b357600080fd5b6123bf89838a016120ee565b945060608801359150808211156123d557600080fd5b6123e189838a016120ee565b935060808801359150808211156123f757600080fd5b506123208882890161215f565b60006020828403121561241657600080fd5b61202282611fa9565b6000806040838503121561243257600080fd5b82356001600160401b038082111561244957600080fd5b818501915085601f83011261245d57600080fd5b8135602061246a826120cb565b604051612477828261209f565b83815260059390931b850182019282810191508984111561249757600080fd5b948201945b838610156124bc576124ad86611fa9565b8252948201949082019061249c565b965050860135925050808211156124d257600080fd5b506124df858286016120ee565b9150509250929050565b600081518084526020808501945080840160005b83811015612519578151875295820195908201906001016124fd565b509495945050505050565b60208152600061202260208301846124e9565b60008060006060848603121561254c57600080fd5b61255584611fa9565b925060208401356001600160401b038082111561257157600080fd5b61257d878388016120ee565b9350604086013591508082111561259357600080fd5b506125a0868287016120ee565b9150509250925092565b600080604083850312156125bd57600080fd5b82356001600160401b03808211156125d457600080fd5b9084019060a082870312156125e857600080fd5b909250602084013590808211156125fe57600080fd5b506124df8582860161215f565b6000806040838503121561261e57600080fd5b61262783611fa9565b91506020830135801515811461263c57600080fd5b809150509250929050565b60008060006060848603121561265c57600080fd5b8335925060208401356001600160401b0381111561267957600080fd5b6126858682870161215f565b925050604084013590509250925092565b600080604083850312156126a957600080fd5b6126b283611fa9565b915061070560208401611fa9565b600080600080600060a086880312156126d857600080fd5b6126e186611fa9565b94506126ef60208701611fa9565b9350604086013592506060860135915060808601356001600160401b0381111561271857600080fd5b6123208882890161215f565b60008060006060848603121561273957600080fd5b61274284611fa9565b95602085013595506040909401359392505050565b600181811c9082168061276b57607f821691505b6020821081141561278c57634e487b7160e01b600052602260045260246000fd5b50919050565b634e487b7160e01b600052603260045260246000fd5b634e487b7160e01b600052601160045260246000fd5b60006000198214156127d2576127d26127a8565b5060010190565b6001600160a01b038616815260a060208083018290526000916127fe908401886124e9565b8381036040850152865180825282820190600581901b83018401848a0160005b8381101561284c57601f1986840301855261283a838351612029565b9487019492509086019060010161281e565b50508681036060880152612860818a6124e9565b945050505050828103608084015261287881856124e9565b98975050505050505050565b600081600019048311821515161561289e5761289e6127a8565b500290565b6000826128c057634e487b7160e01b600052601260045260246000fd5b500490565b6020808252818101527f4f776e61626c653a2063616c6c6572206973206e6f7420746865206f776e6572604082015260600190565b60208082526029908201527f455243313135353a2063616c6c6572206973206e6f74206f776e6572206e6f7260408201526808185c1c1c9bdd995960ba1b606082015260800190565b6001600160a01b0384168152606060208201819052600090612967908301856124e9565b828103604084015261297981856124e9565b9695505050505050565b6000808335601e1984360301811261299a57600080fd5b8301803591506001600160401b038211156129b457600080fd5b602001915036819003821315610ae657600080fd5b6001600160a01b03871681526020810186905260a0604082018190528101849052838560c0830137600060c08583010152600060c0601f19601f8701168301019050836060830152826080830152979650505050505050565b60018060a01b038616815284602082015260a060408201526000612a4960a0830186612029565b606083019490945250608001529392505050565b60208082526021908201527f455243313135353a206d696e7420746f20746865207a65726f206164647265736040820152607360f81b606082015260800190565b60208082526028908201527f455243313135353a2069647320616e6420616d6f756e7473206c656e677468206040820152670dad2e6dac2e8c6d60c31b606082015260800190565b60008219821115612af957612af96127a8565b500190565b604081526000612b1160408301856124e9565b828103602084015261126f81856124e9565b60208082526025908201527f455243313135353a207472616e7366657220746f20746865207a65726f206164604082015264647265737360d81b606082015260800190565b6020808252602a908201527f455243313135353a20696e73756666696369656e742062616c616e636520666f60408201526939103a3930b739b332b960b11b606082015260800190565b60208082526023908201527f455243313135353a206275726e2066726f6d20746865207a65726f206164647260408201526265737360e81b606082015260800190565b60208082526024908201527f455243313135353a206275726e20616d6f756e7420657863656564732062616c604082015263616e636560e01b606082015260800190565b6001600160a01b0386811682528516602082015260a060408201819052600090612c65908301866124e9565b8281036060840152612c7781866124e9565b905082810360808401526128788185612029565b600060208284031215612c9d57600080fd5b815161202281611fef565b600060033d1115611d7d5760046000803e5060005160e01c90565b600060443d1015612cd15790565b6040516003193d81016004833e81513d6001600160401b038160248401118184111715612d0057505050505090565b8285019150815181811115612d185750505050505090565b843d8701016020828501011115612d325750505050505090565b612d416020828601018761209f565b509095945050505050565b60208082526028908201527f455243313135353a204552433131353552656365697665722072656a656374656040820152676420746f6b656e7360c01b606082015260800190565b8183823760009101908152919050565b6001600160a01b03868116825285166020820152604081018490526060810183905260a060808201819052600090612dde90830184612029565b979650505050505050565b634e487b7160e01b600052602160045260246000fdfea26469706673582212203919d05ed47c9912fcf04fa85bb55761730295961335de26eec679d7104e152164736f6c63430008090033",
  "linkReferences": {},
  "deployedLinkReferences": {}
}