{
  "_format": "hh-sol-artifact-1",
  "contractName": "NewERC1155lazy",
  "sourceName": "contracts/NewERC1155lazy.sol",
  "abi": [
    {
      "inputs": [],
      "stateMutability": "nonpayable",
      "type": "constructor"
    },
    {
      "anonymous": false,
      "inputs": [
        {
          "indexed": true,
          "internalType": "address",
          "name": "account",
          "type": "address"
        },
        {
          "indexed": true,
          "internalType": "address",
          "name": "operator",
          "type": "address"
        },
        {
          "indexed": false,
          "internalType": "bool",
          "name": "approved",
          "type": "bool"
        }
      ],
      "name": "ApprovalForAll",
      "type": "event"
    },
    {
      "anonymous": false,
      "inputs": [
        {
          "indexed": true,
          "internalType": "address",
          "name": "previousOwner",
          "type": "address"
        },
        {
          "indexed": true,
          "internalType": "address",
          "name": "newOwner",
          "type": "address"
        }
      ],
      "name": "OwnershipTransferred",
      "type": "event"
    },
    {
      "anonymous": false,
      "inputs": [
        {
          "indexed": false,
          "internalType": "address",
          "name": "owner",
          "type": "address"
        },
        {
          "indexed": false,
          "internalType": "uint256[]",
          "name": "tokenIds",
          "type": "uint256[]"
        },
        {
          "indexed": false,
          "internalType": "string[]",
          "name": "tokenURIs",
          "type": "string[]"
        },
        {
          "indexed": false,
          "internalType": "uint256[]",
          "name": "amounts",
          "type": "uint256[]"
        },
        {
          "indexed": false,
          "internalType": "uint256[]",
          "name": "royalty",
          "type": "uint256[]"
        }
      ],
      "name": "TokenBatchCreated",
      "type": "event"
    },
    {
      "anonymous": false,
      "inputs": [
        {
          "indexed": false,
          "internalType": "address",
          "name": "account",
          "type": "address"
        },
        {
          "indexed": false,
          "internalType": "uint256",
          "name": "tokenId",
          "type": "uint256"
        },
        {
          "indexed": false,
          "internalType": "uint256",
          "name": "amount",
          "type": "uint256"
        }
      ],
      "name": "TokenBurnt",
      "type": "event"
    },
    {
      "anonymous": false,
      "inputs": [
        {
          "indexed": false,
          "internalType": "address",
          "name": "account",
          "type": "address"
        },
        {
          "indexed": false,
          "internalType": "uint256[]",
          "name": "tokenIds",
          "type": "uint256[]"
        },
        {
          "indexed": false,
          "internalType": "uint256[]",
          "name": "amounts",
          "type": "uint256[]"
        }
      ],
      "name": "TokenBurntBatch",
      "type": "event"
    },
    {
      "anonymous": false,
      "inputs": [
        {
          "indexed": false,
          "internalType": "address",
          "name": "owner",
          "type": "address"
        },
        {
          "indexed": false,
          "internalType": "uint256",
          "name": "tokenId",
          "type": "uint256"
        },
        {
          "indexed": false,
          "internalType": "string",
          "name": "tokenURI",
          "type": "string"
        },
        {
          "indexed": false,
          "internalType": "uint256",
          "name": "amount",
          "type": "uint256"
        },
        {
          "indexed": false,
          "internalType": "uint256",
          "name": "royalty",
          "type": "uint256"
        }
      ],
      "name": "TokenCreated",
      "type": "event"
    },
    {
      "anonymous": false,
      "inputs": [
        {
          "indexed": true,
          "internalType": "address",
          "name": "operator",
          "type": "address"
        },
        {
          "indexed": true,
          "internalType": "address",
          "name": "from",
          "type": "address"
        },
        {
          "indexed": true,
          "internalType": "address",
          "name": "to",
          "type": "address"
        },
        {
          "indexed": false,
          "internalType": "uint256[]",
          "name": "ids",
          "type": "uint256[]"
        },
        {
          "indexed": false,
          "internalType": "uint256[]",
          "name": "values",
          "type": "uint256[]"
        }
      ],
      "name": "TransferBatch",
      "type": "event"
    },
    {
      "anonymous": false,
      "inputs": [
        {
          "indexed": true,
          "internalType": "address",
          "name": "operator",
          "type": "address"
        },
        {
          "indexed": true,
          "internalType": "address",
          "name": "from",
          "type": "address"
        },
        {
          "indexed": true,
          "internalType": "address",
          "name": "to",
          "type": "address"
        },
        {
          "indexed": false,
          "internalType": "uint256",
          "name": "id",
          "type": "uint256"
        },
        {
          "indexed": false,
          "internalType": "uint256",
          "name": "value",
          "type": "uint256"
        }
      ],
      "name": "TransferSingle",
      "type": "event"
    },
    {
      "anonymous": false,
      "inputs": [
        {
          "indexed": false,
          "internalType": "string",
          "name": "value",
          "type": "string"
        },
        {
          "indexed": true,
          "internalType": "uint256",
          "name": "id",
          "type": "uint256"
        }
      ],
      "name": "URI",
      "type": "event"
    },
    {
      "inputs": [],
      "name": "aprovalMarketPlacesForAccount",
      "outputs": [],
      "stateMutability": "nonpayable",
      "type": "function"
    },
    {
      "inputs": [
        {
          "internalType": "address",
          "name": "account",
          "type": "address"
        },
        {
          "internalType": "uint256",
          "name": "id",
          "type": "uint256"
        }
      ],
      "name": "balanceOf",
      "outputs": [
        {
          "internalType": "uint256",
          "name": "",
          "type": "uint256"
        }
      ],
      "stateMutability": "view",
      "type": "function"
    },
    {
      "inputs": [
        {
          "internalType": "address[]",
          "name": "accounts",
          "type": "address[]"
        },
        {
          "internalType": "uint256[]",
          "name": "ids",
          "type": "uint256[]"
        }
      ],
      "name": "balanceOfBatch",
      "outputs": [
        {
          "internalType": "uint256[]",
          "name": "",
          "type": "uint256[]"
        }
      ],
      "stateMutability": "view",
      "type": "function"
    },
    {
      "inputs": [
        {
          "internalType": "address",
          "name": "account",
          "type": "address"
        },
        {
          "internalType": "uint256",
          "name": "_tokenId",
          "type": "uint256"
        },
        {
          "internalType": "uint256",
          "name": "amount",
          "type": "uint256"
        }
      ],
      "name": "burn",
      "outputs": [],
      "stateMutability": "nonpayable",
      "type": "function"
    },
    {
      "inputs": [
        {
          "internalType": "address",
          "name": "account",
          "type": "address"
        },
        {
          "internalType": "uint256[]",
          "name": "ids",
          "type": "uint256[]"
        },
        {
          "internalType": "uint256[]",
          "name": "values",
          "type": "uint256[]"
        }
      ],
      "name": "burnBatch",
      "outputs": [],
      "stateMutability": "nonpayable",
      "type": "function"
    },
    {
      "inputs": [
        {
          "internalType": "uint256",
          "name": "_tokenId",
          "type": "uint256"
        }
      ],
      "name": "getRoyaltyPercentage",
      "outputs": [
        {
          "internalType": "uint256",
          "name": "",
          "type": "uint256"
        }
      ],
      "stateMutability": "view",
      "type": "function"
    },
    {
      "inputs": [
        {
          "internalType": "address",
          "name": "market",
          "type": "address"
        }
      ],
      "name": "initMarket",
      "outputs": [],
      "stateMutability": "nonpayable",
      "type": "function"
    },
    {
      "inputs": [
        {
          "internalType": "address",
          "name": "account",
          "type": "address"
        },
        {
          "internalType": "address",
          "name": "operator",
          "type": "address"
        }
      ],
      "name": "isApprovedForAll",
      "outputs": [
        {
          "internalType": "bool",
          "name": "",
          "type": "bool"
        }
      ],
      "stateMutability": "view",
      "type": "function"
    },
    {
      "inputs": [],
      "name": "isMArketPlaceActiveForAccount",
      "outputs": [
        {
          "internalType": "bool",
          "name": "",
          "type": "bool"
        }
      ],
      "stateMutability": "view",
      "type": "function"
    },
    {
      "inputs": [
        {
          "internalType": "uint256",
          "name": "amount",
          "type": "uint256"
        },
        {
          "internalType": "string",
          "name": "url",
          "type": "string"
        },
        {
          "internalType": "uint256",
          "name": "royaltyPercentage",
          "type": "uint256"
        }
      ],
      "name": "mint",
      "outputs": [],
      "stateMutability": "nonpayable",
      "type": "function"
    },
    {
      "inputs": [
        {
          "internalType": "uint256[]",
          "name": "ids",
          "type": "uint256[]"
        },
        {
          "internalType": "uint256[]",
          "name": "amounts",
          "type": "uint256[]"
        },
        {
          "internalType": "bytes",
          "name": "data",
          "type": "bytes"
        },
        {
          "internalType": "string[]",
          "name": "urls",
          "type": "string[]"
        },
        {
          "internalType": "uint256[]",
          "name": "royaltyPercentage",
          "type": "uint256[]"
        }
      ],
      "name": "mintBatch",
      "outputs": [],
      "stateMutability": "nonpayable",
      "type": "function"
    },
    {
      "inputs": [],
      "name": "name",
      "outputs": [
        {
          "internalType": "string",
          "name": "",
          "type": "string"
        }
      ],
      "stateMutability": "view",
      "type": "function"
    },
    {
      "inputs": [],
      "name": "owner",
      "outputs": [
        {
          "internalType": "address",
          "name": "",
          "type": "address"
        }
      ],
      "stateMutability": "view",
      "type": "function"
    },
    {
      "inputs": [],
      "name": "renounceOwnership",
      "outputs": [],
      "stateMutability": "nonpayable",
      "type": "function"
    },
    {
      "inputs": [
        {
          "internalType": "uint256",
          "name": "_tokenId",
          "type": "uint256"
        },
        {
          "internalType": "uint256",
          "name": "_salePrice",
          "type": "uint256"
        }
      ],
      "name": "royaltyInfo",
      "outputs": [
        {
          "internalType": "address",
          "name": "receiver",
          "type": "address"
        },
        {
          "internalType": "uint256",
          "name": "royaltyAmount",
          "type": "uint256"
        }
      ],
      "stateMutability": "view",
      "type": "function"
    },
    {
      "inputs": [
        {
          "internalType": "address",
          "name": "from",
          "type": "address"
        },
        {
          "internalType": "address",
          "name": "to",
          "type": "address"
        },
        {
          "internalType": "uint256[]",
          "name": "ids",
          "type": "uint256[]"
        },
        {
          "internalType": "uint256[]",
          "name": "amounts",
          "type": "uint256[]"
        },
        {
          "internalType": "bytes",
          "name": "data",
          "type": "bytes"
        }
      ],
      "name": "safeBatchTransferFrom",
      "outputs": [],
      "stateMutability": "nonpayable",
      "type": "function"
    },
    {
      "inputs": [
        {
          "internalType": "address",
          "name": "from",
          "type": "address"
        },
        {
          "internalType": "address",
          "name": "to",
          "type": "address"
        },
        {
          "internalType": "uint256",
          "name": "id",
          "type": "uint256"
        },
        {
          "internalType": "uint256",
          "name": "amount",
          "type": "uint256"
        },
        {
          "internalType": "bytes",
          "name": "data",
          "type": "bytes"
        }
      ],
      "name": "safeTransferFrom",
      "outputs": [],
      "stateMutability": "nonpayable",
      "type": "function"
    },
    {
      "inputs": [
        {
          "internalType": "address",
          "name": "operator",
          "type": "address"
        },
        {
          "internalType": "bool",
          "name": "approved",
          "type": "bool"
        }
      ],
      "name": "setApprovalForAll",
      "outputs": [],
      "stateMutability": "nonpayable",
      "type": "function"
    },
    {
      "inputs": [
        {
          "internalType": "string",
          "name": "newuri",
          "type": "string"
        }
      ],
      "name": "setURI",
      "outputs": [],
      "stateMutability": "nonpayable",
      "type": "function"
    },
    {
      "inputs": [
        {
          "internalType": "bytes4",
          "name": "interfaceId",
          "type": "bytes4"
        }
      ],
      "name": "supportsInterface",
      "outputs": [
        {
          "internalType": "bool",
          "name": "",
          "type": "bool"
        }
      ],
      "stateMutability": "view",
      "type": "function"
    },
    {
      "inputs": [],
      "name": "symbol",
      "outputs": [
        {
          "internalType": "string",
          "name": "",
          "type": "string"
        }
      ],
      "stateMutability": "view",
      "type": "function"
    },
    {
      "inputs": [
        {
          "internalType": "uint256",
          "name": "",
          "type": "uint256"
        }
      ],
      "name": "tokenURI",
      "outputs": [
        {
          "internalType": "string",
          "name": "",
          "type": "string"
        }
      ],
      "stateMutability": "view",
      "type": "function"
    },
    {
      "inputs": [
        {
          "internalType": "address",
          "name": "newOwner",
          "type": "address"
        }
      ],
      "name": "transferOwnership",
      "outputs": [],
      "stateMutability": "nonpayable",
      "type": "function"
    },
    {
      "inputs": [
        {
          "internalType": "uint256",
          "name": "_id",
          "type": "uint256"
        }
      ],
      "name": "uri",
      "outputs": [
        {
          "internalType": "string",
          "name": "",
          "type": "string"
        }
      ],
      "stateMutability": "view",
      "type": "function"
    }
  ],
  "bytecode": "0x60806040523480156200001157600080fd5b506040805160208101909152600081526200002c3362000098565b6200003781620000e8565b50604080518082019091526003808252621b999d60ea1b6020909201918252620000649160049162000101565b50604080518082019091526003808252621b999d60ea1b6020909201918252620000919160059162000101565b50620001e4565b600080546001600160a01b038381166001600160a01b0319831681178455604051919092169283917f8be0079c531659141344cd1fd0a4f28419497f9722a3daafe3b4186f6b6457e09190a35050565b8051620000fd90600390602084019062000101565b5050565b8280546200010f90620001a7565b90600052602060002090601f0160209004810192826200013357600085556200017e565b82601f106200014e57805160ff19168380011785556200017e565b828001600101855582156200017e579182015b828111156200017e57825182559160200191906001019062000161565b506200018c92915062000190565b5090565b5b808211156200018c576000815560010162000191565b600181811c90821680620001bc57607f821691505b60208210811415620001de57634e487b7160e01b600052602260045260246000fd5b50919050565b61264880620001f46000396000f3fe608060405234801561001057600080fd5b50600436106101575760003560e01c8063715018a6116100c3578063c87b56dd1161007c578063c87b56dd146102fc578063e985e9c51461030f578063f242432a1461034b578063f2fde38b1461035e578063f5298aca14610371578063fd079bb41461038457600080fd5b8063715018a61461028857806376a17510146102905780638da5cb5b146102b357806395d89b41146102ce578063a22cb465146102d6578063acca6b31146102e957600080fd5b80632458252a116101155780632458252a146101f55780632a55205a146101fd5780632eb2c2d61461022f57806334a55611146102425780634e1273f4146102555780636b20c4541461027557600080fd5b8062fdd58e1461015c57806301ffc9a71461018257806302fe5305146101a557806306fdde03146101ba5780630af0847e146101cf5780630e89341c146101e2575b600080fd5b61016f61016a3660046118b8565b61038c565b6040519081526020015b60405180910390f35b6101956101903660046118f8565b610425565b6040519015158152602001610179565b6101b86101b33660046119d1565b610457565b005b6101c261048d565b6040516101799190611a5a565b6101b86101dd366004611b8b565b61051b565b6101c26101f0366004611c5c565b610629565b6101b86106cb565b61021061020b366004611c75565b6106e4565b604080516001600160a01b039093168352602083019190915201610179565b6101b861023d366004611c97565b610727565b6101b8610250366004611d33565b6107be565b610268610263366004611d4e565b61080a565b6040516101799190611e53565b6101b8610283366004611e66565b610933565b6101b86109b6565b61016f61029e366004611c5c565b60009081526008602052604090206001015490565b6000546040516001600160a01b039091168152602001610179565b6101c26109ea565b6101b86102e4366004611ed9565b6109f7565b6101b86102f7366004611f15565b610a06565b6101c261030a366004611c5c565b610a9e565b61019561031d366004611f64565b6001600160a01b03918216600090815260026020908152604080832093909416825291909152205460ff1690565b6101b8610359366004611f8e565b610ab7565b6101b861036c366004611d33565b610afc565b6101b861037f366004611ff2565b610b94565b610195610bdd565b60006001600160a01b0383166103fd5760405162461bcd60e51b815260206004820152602b60248201527f455243313135353a2062616c616e636520717565727920666f7220746865207a60448201526a65726f206164647265737360a81b60648201526084015b60405180910390fd5b5060009081526001602090815260408083206001600160a01b03949094168352929052205490565b60006001600160e01b0319821663152a902d60e11b141561044857506001919050565b61045182610bfc565b92915050565b6000546001600160a01b031633146104815760405162461bcd60e51b81526004016103f490612025565b61048a81610c4c565b50565b6004805461049a9061205a565b80601f01602080910402602001604051908101604052809291908181526020018280546104c69061205a565b80156105135780601f106104e857610100808354040283529160200191610513565b820191906000526020600020905b8154815290600101906020018083116104f657829003601f168201915b505050505081565b61052733868686610c5f565b60005b85518110156105e25782818151811061054557610545612095565b60200260200101516009600088848151811061056357610563612095565b60200260200101518152602001908152602001600020908051906020019061058c929190611803565b506105d08682815181106105a2576105a2612095565b60200260200101516105b13390565b8484815181106105c3576105c3612095565b6020026020010151610dab565b806105da816120c1565b91505061052a565b507f3eb746064700abaa2ae35011e04e8ff5f6cac0d519b29974f8a7a293650eb886338684878560405161061a9594939291906120dc565b60405180910390a15050505050565b60008181526009602052604090208054606091906106469061205a565b80601f01602080910402602001604051908101604052809291908181526020018280546106729061205a565b80156106bf5780601f10610694576101008083540402835291602001916106bf565b820191906000526020600020905b8154815290600101906020018083116106a257829003601f168201915b50505050509050919050565b6007546106e2906001600160a01b031660016109f7565b565b600082815260086020526040812080546001909101546001600160a01b0390911691906064906107149085612187565b61071e91906121a6565b90509250929050565b6001600160a01b0385163314806107435750610743853361031d565b6107aa5760405162461bcd60e51b815260206004820152603260248201527f455243313135353a207472616e736665722063616c6c6572206973206e6f74206044820152711bdddb995c881b9bdc88185c1c1c9bdd995960721b60648201526084016103f4565b6107b78585858585610df3565b5050505050565b6000546001600160a01b031633146107e85760405162461bcd60e51b81526004016103f490612025565b600780546001600160a01b0319166001600160a01b0392909216919091179055565b6060815183511461086f5760405162461bcd60e51b815260206004820152602960248201527f455243313135353a206163636f756e747320616e6420696473206c656e677468604482015268040dad2e6dac2e8c6d60bb1b60648201526084016103f4565b600083516001600160401b0381111561088a5761088a61191c565b6040519080825280602002602001820160405280156108b3578160200160208202803683370190505b50905060005b845181101561092b576108fe8582815181106108d7576108d7612095565b60200260200101518583815181106108f1576108f1612095565b602002602001015161038c565b82828151811061091057610910612095565b6020908102919091010152610924816120c1565b90506108b9565b509392505050565b6001600160a01b03831633148061094f575061094f833361031d565b61096b5760405162461bcd60e51b81526004016103f4906121c8565b610976838383610f92565b7f7f42cb686777629a13dc5c6d42e5088f6fbf634653c259bc1d89e90998d56b9c3383836040516109a993929190612211565b60405180910390a1505050565b6000546001600160a01b031633146109e05760405162461bcd60e51b81526004016103f490612025565b6106e26000611111565b6005805461049a9061205a565b610a02338383611161565b5050565b6000610a1160065490565b9050610a2e33828660405180602001604052806000815250611242565b60008181526009602090815260409091208451610a4d92860190611803565b50610a59813384610dab565b7f65a173628f7ccd4dd3d275afad7b23b03041797a4ae34964e959dfc2405872423382858786604051610a90959493929190612251565b60405180910390a150505050565b6009602052600090815260409020805461049a9061205a565b6001600160a01b038516331480610ad35750610ad3853361031d565b610aef5760405162461bcd60e51b81526004016103f4906121c8565b6107b78585858585611314565b6000546001600160a01b03163314610b265760405162461bcd60e51b81526004016103f490612025565b6001600160a01b038116610b8b5760405162461bcd60e51b815260206004820152602660248201527f4f776e61626c653a206e6577206f776e657220697320746865207a65726f206160448201526564647265737360d01b60648201526084016103f4565b61048a81611111565b610b9f838383611435565b60408051338152602081018490529081018290527f40ec41b547e3a769f863d660b593350eb4ce5d779b1c4e3f112eefc40c8e81d8906060016109a9565b600754600090610bf79033906001600160a01b031661031d565b905090565b60006001600160e01b03198216636cdb3d1360e11b1480610c2d57506001600160e01b031982166303a24d0760e21b145b8061045157506301ffc9a760e01b6001600160e01b0319831614610451565b8051610a02906003906020840190611803565b6001600160a01b038416610c855760405162461bcd60e51b81526004016103f49061228c565b8151835114610ca65760405162461bcd60e51b81526004016103f4906122cd565b3360005b8451811015610d4357838181518110610cc557610cc5612095565b602002602001015160016000878481518110610ce357610ce3612095565b602002602001015181526020019081526020016000206000886001600160a01b03166001600160a01b031681526020019081526020016000206000828254610d2b9190612315565b90915550819050610d3b816120c1565b915050610caa565b50846001600160a01b031660006001600160a01b0316826001600160a01b03167f4a39dc06d4c0dbc64b70af90fd698a233a518aa5d07e595d983b8c0526c8f7fb8787604051610d9492919061232d565b60405180910390a46107b78160008787878761147d565b6040805180820182526001600160a01b03938416815260208082019384526000958652600890529320925183546001600160a01b031916921691909117825551600190910155565b8151835114610e145760405162461bcd60e51b81526004016103f4906122cd565b6001600160a01b038416610e3a5760405162461bcd60e51b81526004016103f49061235b565b3360005b8451811015610f24576000858281518110610e5b57610e5b612095565b602002602001015190506000858381518110610e7957610e79612095565b60209081029190910181015160008481526001835260408082206001600160a01b038e168352909352919091205490915081811015610eca5760405162461bcd60e51b81526004016103f4906123a0565b60008381526001602090815260408083206001600160a01b038e8116855292528083208585039055908b16825281208054849290610f09908490612315565b9250508190555050505080610f1d906120c1565b9050610e3e565b50846001600160a01b0316866001600160a01b0316826001600160a01b03167f4a39dc06d4c0dbc64b70af90fd698a233a518aa5d07e595d983b8c0526c8f7fb8787604051610f7492919061232d565b60405180910390a4610f8a81878787878761147d565b505050505050565b6001600160a01b038316610fb85760405162461bcd60e51b81526004016103f4906123ea565b8051825114610fd95760405162461bcd60e51b81526004016103f4906122cd565b604080516020810190915260009081905233905b83518110156110b257600084828151811061100a5761100a612095565b60200260200101519050600084838151811061102857611028612095565b60209081029190910181015160008481526001835260408082206001600160a01b038c1683529093529190912054909150818110156110795760405162461bcd60e51b81526004016103f49061242d565b60009283526001602090815260408085206001600160a01b038b16865290915290922091039055806110aa816120c1565b915050610fed565b5060006001600160a01b0316846001600160a01b0316826001600160a01b03167f4a39dc06d4c0dbc64b70af90fd698a233a518aa5d07e595d983b8c0526c8f7fb868660405161110392919061232d565b60405180910390a450505050565b600080546001600160a01b038381166001600160a01b0319831681178455604051919092169283917f8be0079c531659141344cd1fd0a4f28419497f9722a3daafe3b4186f6b6457e09190a35050565b816001600160a01b0316836001600160a01b031614156111d55760405162461bcd60e51b815260206004820152602960248201527f455243313135353a2073657474696e6720617070726f76616c20737461747573604482015268103337b91039b2b63360b91b60648201526084016103f4565b6001600160a01b03838116600081815260026020908152604080832094871680845294825291829020805460ff191686151590811790915591519182527f17307eab39ab6107e8899845ad3d59bd9653f200f220920489ca2b5937696c31910160405180910390a3505050565b6001600160a01b0384166112685760405162461bcd60e51b81526004016103f49061228c565b3361128281600087611279886115e8565b6107b7886115e8565b60008481526001602090815260408083206001600160a01b0389168452909152812080548592906112b4908490612315565b909155505060408051858152602081018590526001600160a01b0380881692600092918516917fc3d58168c5ae7397731d063d5bbf3d657854427343f4c083240f7aacaa2d0f62910160405180910390a46107b781600087878787611633565b6001600160a01b03841661133a5760405162461bcd60e51b81526004016103f49061235b565b3361134a818787611279886115e8565b60008481526001602090815260408083206001600160a01b038a1684529091529020548381101561138d5760405162461bcd60e51b81526004016103f4906123a0565b60008581526001602090815260408083206001600160a01b038b81168552925280832087850390559088168252812080548692906113cc908490612315565b909155505060408051868152602081018690526001600160a01b03808916928a821692918616917fc3d58168c5ae7397731d063d5bbf3d657854427343f4c083240f7aacaa2d0f62910160405180910390a461142c828888888888611633565b50505050505050565b6001600160a01b0383163314806114515750611451833361031d565b61146d5760405162461bcd60e51b81526004016103f4906121c8565b6114788383836116fd565b505050565b6001600160a01b0384163b15610f8a5760405163bc197c8160e01b81526001600160a01b0385169063bc197c81906114c19089908990889088908890600401612471565b602060405180830381600087803b1580156114db57600080fd5b505af192505050801561150b575060408051601f3d908101601f19168201909252611508918101906124c3565b60015b6115b8576115176124e0565b806308c379a01415611551575061152c6124fc565b806115375750611553565b8060405162461bcd60e51b81526004016103f49190611a5a565b505b60405162461bcd60e51b815260206004820152603460248201527f455243313135353a207472616e7366657220746f206e6f6e20455243313135356044820152732932b1b2b4bb32b91034b6b83632b6b2b73a32b960611b60648201526084016103f4565b6001600160e01b0319811663bc197c8160e01b1461142c5760405162461bcd60e51b81526004016103f490612585565b6040805160018082528183019092526060916000919060208083019080368337019050509050828160008151811061162257611622612095565b602090810291909101015292915050565b6001600160a01b0384163b15610f8a5760405163f23a6e6160e01b81526001600160a01b0385169063f23a6e619061167790899089908890889088906004016125cd565b602060405180830381600087803b15801561169157600080fd5b505af19250505080156116c1575060408051601f3d908101601f191682019092526116be918101906124c3565b60015b6116cd576115176124e0565b6001600160e01b0319811663f23a6e6160e01b1461142c5760405162461bcd60e51b81526004016103f490612585565b6001600160a01b0383166117235760405162461bcd60e51b81526004016103f4906123ea565b3361175381856000611734876115e8565b61173d876115e8565b5050604080516020810190915260009052505050565b60008381526001602090815260408083206001600160a01b0388168452909152902054828110156117965760405162461bcd60e51b81526004016103f49061242d565b60008481526001602090815260408083206001600160a01b03898116808652918452828520888703905582518981529384018890529092908616917fc3d58168c5ae7397731d063d5bbf3d657854427343f4c083240f7aacaa2d0f62910160405180910390a45050505050565b82805461180f9061205a565b90600052602060002090601f0160209004810192826118315760008555611877565b82601f1061184a57805160ff1916838001178555611877565b82800160010185558215611877579182015b8281111561187757825182559160200191906001019061185c565b50611883929150611887565b5090565b5b808211156118835760008155600101611888565b80356001600160a01b03811681146118b357600080fd5b919050565b600080604083850312156118cb57600080fd5b6118d48361189c565b946020939093013593505050565b6001600160e01b03198116811461048a57600080fd5b60006020828403121561190a57600080fd5b8135611915816118e2565b9392505050565b634e487b7160e01b600052604160045260246000fd5b601f8201601f191681016001600160401b03811182821017156119575761195761191c565b6040525050565b600082601f83011261196f57600080fd5b81356001600160401b038111156119885761198861191c565b60405161199f601f8301601f191660200182611932565b8181528460208386010111156119b457600080fd5b816020850160208301376000918101602001919091529392505050565b6000602082840312156119e357600080fd5b81356001600160401b038111156119f957600080fd5b611a058482850161195e565b949350505050565b6000815180845260005b81811015611a3357602081850181015186830182015201611a17565b81811115611a45576000602083870101525b50601f01601f19169290920160200192915050565b6020815260006119156020830184611a0d565b60006001600160401b03821115611a8657611a8661191c565b5060051b60200190565b600082601f830112611aa157600080fd5b81356020611aae82611a6d565b604051611abb8282611932565b83815260059390931b8501820192828101915086841115611adb57600080fd5b8286015b84811015611af65780358352918301918301611adf565b509695505050505050565b600082601f830112611b1257600080fd5b81356020611b1f82611a6d565b604051611b2c8282611932565b83815260059390931b8501820192828101915086841115611b4c57600080fd5b8286015b84811015611af65780356001600160401b03811115611b6f5760008081fd5b611b7d8986838b010161195e565b845250918301918301611b50565b600080600080600060a08688031215611ba357600080fd5b85356001600160401b0380821115611bba57600080fd5b611bc689838a01611a90565b96506020880135915080821115611bdc57600080fd5b611be889838a01611a90565b95506040880135915080821115611bfe57600080fd5b611c0a89838a0161195e565b94506060880135915080821115611c2057600080fd5b611c2c89838a01611b01565b93506080880135915080821115611c4257600080fd5b50611c4f88828901611a90565b9150509295509295909350565b600060208284031215611c6e57600080fd5b5035919050565b60008060408385031215611c8857600080fd5b50508035926020909101359150565b600080600080600060a08688031215611caf57600080fd5b611cb88661189c565b9450611cc66020870161189c565b935060408601356001600160401b0380821115611ce257600080fd5b611cee89838a01611a90565b94506060880135915080821115611d0457600080fd5b611d1089838a01611a90565b93506080880135915080821115611d2657600080fd5b50611c4f8882890161195e565b600060208284031215611d4557600080fd5b6119158261189c565b60008060408385031215611d6157600080fd5b82356001600160401b0380821115611d7857600080fd5b818501915085601f830112611d8c57600080fd5b81356020611d9982611a6d565b604051611da68282611932565b83815260059390931b8501820192828101915089841115611dc657600080fd5b948201945b83861015611deb57611ddc8661189c565b82529482019490820190611dcb565b96505086013592505080821115611e0157600080fd5b50611e0e85828601611a90565b9150509250929050565b600081518084526020808501945080840160005b83811015611e4857815187529582019590820190600101611e2c565b509495945050505050565b6020815260006119156020830184611e18565b600080600060608486031215611e7b57600080fd5b611e848461189c565b925060208401356001600160401b0380821115611ea057600080fd5b611eac87838801611a90565b93506040860135915080821115611ec257600080fd5b50611ecf86828701611a90565b9150509250925092565b60008060408385031215611eec57600080fd5b611ef58361189c565b915060208301358015158114611f0a57600080fd5b809150509250929050565b600080600060608486031215611f2a57600080fd5b8335925060208401356001600160401b03811115611f4757600080fd5b611f538682870161195e565b925050604084013590509250925092565b60008060408385031215611f7757600080fd5b611f808361189c565b915061071e6020840161189c565b600080600080600060a08688031215611fa657600080fd5b611faf8661189c565b9450611fbd6020870161189c565b9350604086013592506060860135915060808601356001600160401b03811115611fe657600080fd5b611c4f8882890161195e565b60008060006060848603121561200757600080fd5b6120108461189c565b95602085013595506040909401359392505050565b6020808252818101527f4f776e61626c653a2063616c6c6572206973206e6f7420746865206f776e6572604082015260600190565b600181811c9082168061206e57607f821691505b6020821081141561208f57634e487b7160e01b600052602260045260246000fd5b50919050565b634e487b7160e01b600052603260045260246000fd5b634e487b7160e01b600052601160045260246000fd5b60006000198214156120d5576120d56120ab565b5060010190565b6001600160a01b038616815260a0602080830182905260009161210190840188611e18565b8381036040850152865180825282820190600581901b83018401848a0160005b8381101561214f57601f1986840301855261213d838351611a0d565b94870194925090860190600101612121565b50508681036060880152612163818a611e18565b945050505050828103608084015261217b8185611e18565b98975050505050505050565b60008160001904831182151516156121a1576121a16120ab565b500290565b6000826121c357634e487b7160e01b600052601260045260246000fd5b500490565b60208082526029908201527f455243313135353a2063616c6c6572206973206e6f74206f776e6572206e6f7260408201526808185c1c1c9bdd995960ba1b606082015260800190565b6001600160a01b038416815260606020820181905260009061223590830185611e18565b82810360408401526122478185611e18565b9695505050505050565b60018060a01b038616815284602082015260a06040820152600061227860a0830186611a0d565b606083019490945250608001529392505050565b60208082526021908201527f455243313135353a206d696e7420746f20746865207a65726f206164647265736040820152607360f81b606082015260800190565b60208082526028908201527f455243313135353a2069647320616e6420616d6f756e7473206c656e677468206040820152670dad2e6dac2e8c6d60c31b606082015260800190565b60008219821115612328576123286120ab565b500190565b6040815260006123406040830185611e18565b82810360208401526123528185611e18565b95945050505050565b60208082526025908201527f455243313135353a207472616e7366657220746f20746865207a65726f206164604082015264647265737360d81b606082015260800190565b6020808252602a908201527f455243313135353a20696e73756666696369656e742062616c616e636520666f60408201526939103a3930b739b332b960b11b606082015260800190565b60208082526023908201527f455243313135353a206275726e2066726f6d20746865207a65726f206164647260408201526265737360e81b606082015260800190565b60208082526024908201527f455243313135353a206275726e20616d6f756e7420657863656564732062616c604082015263616e636560e01b606082015260800190565b6001600160a01b0386811682528516602082015260a06040820181905260009061249d90830186611e18565b82810360608401526124af8186611e18565b9050828103608084015261217b8185611a0d565b6000602082840312156124d557600080fd5b8151611915816118e2565b600060033d11156124f95760046000803e5060005160e01c5b90565b600060443d101561250a5790565b6040516003193d81016004833e81513d6001600160401b03816024840111818411171561253957505050505090565b82850191508151818111156125515750505050505090565b843d870101602082850101111561256b5750505050505090565b61257a60208286010187611932565b509095945050505050565b60208082526028908201527f455243313135353a204552433131353552656365697665722072656a656374656040820152676420746f6b656e7360c01b606082015260800190565b6001600160a01b03868116825285166020820152604081018490526060810183905260a06080820181905260009061260790830184611a0d565b97965050505050505056fea2646970667358221220b348340a865cb664f316f729330c04668eae517b7963a746c1efced5a82a4cff64736f6c63430008090033",
  "linkReferences": {},
  "deployedLinkReferences": {}
}