{
  "_format": "hh-sol-artifact-1",
  "contractName": "Lazy1155",
  "sourceName": "contracts/Lazy1155.sol",
  "abi": [
    {
      "inputs": [],
      "stateMutability": "nonpayable",
      "type": "constructor"
    },
    {
      "anonymous": false,
      "inputs": [
        {
          "indexed": true,
          "internalType": "address",
          "name": "account",
          "type": "address"
        },
        {
          "indexed": true,
          "internalType": "address",
          "name": "operator",
          "type": "address"
        },
        {
          "indexed": false,
          "internalType": "bool",
          "name": "approved",
          "type": "bool"
        }
      ],
      "name": "ApprovalForAll",
      "type": "event"
    },
    {
      "anonymous": false,
      "inputs": [
        {
          "indexed": true,
          "internalType": "address",
          "name": "operator",
          "type": "address"
        },
        {
          "indexed": true,
          "internalType": "address",
          "name": "from",
          "type": "address"
        },
        {
          "indexed": true,
          "internalType": "address",
          "name": "to",
          "type": "address"
        },
        {
          "indexed": false,
          "internalType": "uint256[]",
          "name": "ids",
          "type": "uint256[]"
        },
        {
          "indexed": false,
          "internalType": "uint256[]",
          "name": "values",
          "type": "uint256[]"
        }
      ],
      "name": "TransferBatch",
      "type": "event"
    },
    {
      "anonymous": false,
      "inputs": [
        {
          "indexed": true,
          "internalType": "address",
          "name": "operator",
          "type": "address"
        },
        {
          "indexed": true,
          "internalType": "address",
          "name": "from",
          "type": "address"
        },
        {
          "indexed": true,
          "internalType": "address",
          "name": "to",
          "type": "address"
        },
        {
          "indexed": false,
          "internalType": "uint256",
          "name": "id",
          "type": "uint256"
        },
        {
          "indexed": false,
          "internalType": "uint256",
          "name": "value",
          "type": "uint256"
        }
      ],
      "name": "TransferSingle",
      "type": "event"
    },
    {
      "anonymous": false,
      "inputs": [
        {
          "indexed": false,
          "internalType": "string",
          "name": "value",
          "type": "string"
        },
        {
          "indexed": true,
          "internalType": "uint256",
          "name": "id",
          "type": "uint256"
        }
      ],
      "name": "URI",
      "type": "event"
    },
    {
      "inputs": [],
      "name": "availableToWithdraw",
      "outputs": [
        {
          "internalType": "uint256",
          "name": "",
          "type": "uint256"
        }
      ],
      "stateMutability": "view",
      "type": "function"
    },
    {
      "inputs": [
        {
          "internalType": "address",
          "name": "account",
          "type": "address"
        },
        {
          "internalType": "uint256",
          "name": "id",
          "type": "uint256"
        }
      ],
      "name": "balanceOf",
      "outputs": [
        {
          "internalType": "uint256",
          "name": "",
          "type": "uint256"
        }
      ],
      "stateMutability": "view",
      "type": "function"
    },
    {
      "inputs": [
        {
          "internalType": "address[]",
          "name": "accounts",
          "type": "address[]"
        },
        {
          "internalType": "uint256[]",
          "name": "ids",
          "type": "uint256[]"
        }
      ],
      "name": "balanceOfBatch",
      "outputs": [
        {
          "internalType": "uint256[]",
          "name": "",
          "type": "uint256[]"
        }
      ],
      "stateMutability": "view",
      "type": "function"
    },
    {
      "inputs": [
        {
          "internalType": "address",
          "name": "account",
          "type": "address"
        },
        {
          "internalType": "address",
          "name": "operator",
          "type": "address"
        }
      ],
      "name": "isApprovedForAll",
      "outputs": [
        {
          "internalType": "bool",
          "name": "",
          "type": "bool"
        }
      ],
      "stateMutability": "view",
      "type": "function"
    },
    {
      "inputs": [],
      "name": "name",
      "outputs": [
        {
          "internalType": "string",
          "name": "",
          "type": "string"
        }
      ],
      "stateMutability": "view",
      "type": "function"
    },
    {
      "inputs": [
        {
          "internalType": "address",
          "name": "redeemer",
          "type": "address"
        },
        {
          "components": [
            {
              "internalType": "uint256",
              "name": "tokenId",
              "type": "uint256"
            },
            {
              "internalType": "uint256",
              "name": "minPrice",
              "type": "uint256"
            },
            {
              "internalType": "uint256",
              "name": "amount",
              "type": "uint256"
            },
            {
              "internalType": "string",
              "name": "uri",
              "type": "string"
            }
          ],
          "internalType": "struct Lazy1155.NFTVoucher",
          "name": "voucher",
          "type": "tuple"
        },
        {
          "internalType": "bytes",
          "name": "signature",
          "type": "bytes"
        }
      ],
      "name": "redeem",
      "outputs": [
        {
          "internalType": "uint256",
          "name": "",
          "type": "uint256"
        }
      ],
      "stateMutability": "payable",
      "type": "function"
    },
    {
      "inputs": [
        {
          "internalType": "address",
          "name": "from",
          "type": "address"
        },
        {
          "internalType": "address",
          "name": "to",
          "type": "address"
        },
        {
          "internalType": "uint256[]",
          "name": "ids",
          "type": "uint256[]"
        },
        {
          "internalType": "uint256[]",
          "name": "amounts",
          "type": "uint256[]"
        },
        {
          "internalType": "bytes",
          "name": "data",
          "type": "bytes"
        }
      ],
      "name": "safeBatchTransferFrom",
      "outputs": [],
      "stateMutability": "nonpayable",
      "type": "function"
    },
    {
      "inputs": [
        {
          "internalType": "address",
          "name": "from",
          "type": "address"
        },
        {
          "internalType": "address",
          "name": "to",
          "type": "address"
        },
        {
          "internalType": "uint256",
          "name": "id",
          "type": "uint256"
        },
        {
          "internalType": "uint256",
          "name": "amount",
          "type": "uint256"
        },
        {
          "internalType": "bytes",
          "name": "data",
          "type": "bytes"
        }
      ],
      "name": "safeTransferFrom",
      "outputs": [],
      "stateMutability": "nonpayable",
      "type": "function"
    },
    {
      "inputs": [
        {
          "internalType": "address",
          "name": "operator",
          "type": "address"
        },
        {
          "internalType": "bool",
          "name": "approved",
          "type": "bool"
        }
      ],
      "name": "setApprovalForAll",
      "outputs": [],
      "stateMutability": "nonpayable",
      "type": "function"
    },
    {
      "inputs": [
        {
          "internalType": "uint256",
          "name": "_id",
          "type": "uint256"
        },
        {
          "internalType": "string",
          "name": "_uri",
          "type": "string"
        }
      ],
      "name": "setURI",
      "outputs": [],
      "stateMutability": "nonpayable",
      "type": "function"
    },
    {
      "inputs": [
        {
          "internalType": "bytes4",
          "name": "interfaceId",
          "type": "bytes4"
        }
      ],
      "name": "supportsInterface",
      "outputs": [
        {
          "internalType": "bool",
          "name": "",
          "type": "bool"
        }
      ],
      "stateMutability": "view",
      "type": "function"
    },
    {
      "inputs": [],
      "name": "symbol",
      "outputs": [
        {
          "internalType": "string",
          "name": "",
          "type": "string"
        }
      ],
      "stateMutability": "view",
      "type": "function"
    },
    {
      "inputs": [
        {
          "internalType": "uint256",
          "name": "",
          "type": "uint256"
        }
      ],
      "name": "tokenURI",
      "outputs": [
        {
          "internalType": "string",
          "name": "",
          "type": "string"
        }
      ],
      "stateMutability": "view",
      "type": "function"
    },
    {
      "inputs": [
        {
          "internalType": "uint256",
          "name": "_id",
          "type": "uint256"
        }
      ],
      "name": "uri",
      "outputs": [
        {
          "internalType": "string",
          "name": "",
          "type": "string"
        }
      ],
      "stateMutability": "view",
      "type": "function"
    },
    {
      "inputs": [],
      "name": "withdraw",
      "outputs": [],
      "stateMutability": "nonpayable",
      "type": "function"
    }
  ],
  "bytecode": "0x6101406040523480156200001257600080fd5b506040805160208082018352600082528251808401845260048152634e616d6560e01b8183019081528451808601865260058152640312e302e360dc1b908401529051902060e08190527f06c015bd22b4c69690933c1058878ebdfef31f9aaae40bbe86d8a09fe1b2972c6101008190524660a081815286517f8b73c3c69bb8fe3d512ecc4cf759cc79239f7b179b0ffacaa9a75d522b39400f81870181905281890195909552606081810194909452608080820193909352308183018190528851808303909301835260c09182019098528151919095012090529390931b905261012091909152620001058162000164565b50604080518082019091526003808252621b999d60ea1b60209092019182526200013091816200017d565b50604080518082019091526003808252621b999d60ea1b60209092019182526200015d916004916200017d565b5062000260565b8051620001799060029060208401906200017d565b5050565b8280546200018b9062000223565b90600052602060002090601f016020900481019282620001af5760008555620001fa565b82601f10620001ca57805160ff1916838001178555620001fa565b82800160010185558215620001fa579182015b82811115620001fa578251825591602001919060010190620001dd565b50620002089291506200020c565b5090565b5b808211156200020857600081556001016200020d565b600181811c908216806200023857607f821691505b602082108114156200025a57634e487b7160e01b600052602260045260246000fd5b50919050565b60805160a05160c05160601c60e05161010051610120516120c7620002b36000396000611568015260006115b701526000611592015260006114eb015260006115150152600061153f01526120c76000f3fe6080604052600436106100e75760003560e01c80634e1273f41161008a578063c87b56dd11610059578063c87b56dd1461025d578063e322ad2b1461027d578063e985e9c51461029f578063f242432a146102e857600080fd5b80634e1273f4146101db578063862440e21461020857806395d89b4114610228578063a22cb4651461023d57600080fd5b80630e89341c116100c65780630e89341c146101715780632eb2c2d61461019157806333ead489146101b35780633ccfd60b146101c657600080fd5b8062fdd58e146100ec57806301ffc9a71461011f57806306fdde031461014f575b600080fd5b3480156100f857600080fd5b5061010c610107366004611abe565b610308565b6040519081526020015b60405180910390f35b34801561012b57600080fd5b5061013f61013a366004611bb2565b61039f565b6040519015158152602001610116565b34801561015b57600080fd5b506101646103b0565b6040516101169190611dc0565b34801561017d57600080fd5b5061016461018c366004611bea565b61043e565b34801561019d57600080fd5b506101b16101ac366004611903565b6104e0565b005b61010c6101c1366004611a46565b610577565b3480156101d257600080fd5b506101b16106a4565b3480156101e757600080fd5b506101fb6101f6366004611ae7565b6106ec565b6040516101169190611d88565b34801561021457600080fd5b506101b1610223366004611c02565b61084e565b34801561023457600080fd5b506101646108aa565b34801561024957600080fd5b506101b1610258366004611a0c565b6108b7565b34801561026957600080fd5b50610164610278366004611bea565b6108c6565b34801561028957600080fd5b503360009081526005602052604090205461010c565b3480156102ab57600080fd5b5061013f6102ba3660046118d1565b6001600160a01b03918216600090815260016020908152604080832093909416825291909152205460ff1690565b3480156102f457600080fd5b506101b16103033660046119a9565b6108df565b60006001600160a01b0383166103795760405162461bcd60e51b815260206004820152602b60248201527f455243313135353a2062616c616e636520717565727920666f7220746865207a60448201526a65726f206164647265737360a81b60648201526084015b60405180910390fd5b506000908152602081815260408083206001600160a01b03949094168352929052205490565b60006103aa82610966565b92915050565b600380546103bd90611f2b565b80601f01602080910402602001604051908101604052809291908181526020018280546103e990611f2b565b80156104365780601f1061040b57610100808354040283529160200191610436565b820191906000526020600020905b81548152906001019060200180831161041957829003601f168201915b505050505081565b600081815260066020526040902080546060919061045b90611f2b565b80601f016020809104026020016040519081016040528092919081815260200182805461048790611f2b565b80156104d45780601f106104a9576101008083540402835291602001916104d4565b820191906000526020600020905b8154815290600101906020018083116104b757829003601f168201915b50505050509050919050565b6001600160a01b0385163314806104fc57506104fc85336102ba565b6105635760405162461bcd60e51b815260206004820152603260248201527f455243313135353a207472616e736665722063616c6c6572206973206e6f74206044820152711bdddb995c881b9bdc88185c1c1c9bdd995960721b6064820152608401610370565b61057085858585856109b6565b5050505050565b6000806105848484610baf565b905083602001353410156105da5760405162461bcd60e51b815260206004820152601c60248201527f496e73756666696369656e742066756e647320746f2072656465656d000000006044820152606401610370565b6105fd818560000135866040013560405180602001604052806000815250610bd2565b610649843561060f6060870187611eaa565b8080601f01602080910402602001604051908101604052809392919081815260200183838082843760009201919091525061084e92505050565b61066d81868660000135876040013560405180602001604052806000815250610cdc565b6001600160a01b03811660009081526005602052604081208054349290610695908490611f13565b90915550509235949350505050565b3360008181526005602052604080822080549083905590519091839183156108fc0291849190818181858888f193505050501580156106e7573d6000803e3d6000fd5b505050565b606081518351146107515760405162461bcd60e51b815260206004820152602960248201527f455243313135353a206163636f756e747320616e6420696473206c656e677468604482015268040dad2e6dac2e8c6d60bb1b6064820152608401610370565b6000835167ffffffffffffffff81111561077b57634e487b7160e01b600052604160045260246000fd5b6040519080825280602002602001820160405280156107a4578160200160208202803683370190505b50905060005b84518110156108465761080b8582815181106107d657634e487b7160e01b600052603260045260246000fd5b60200260200101518583815181106107fe57634e487b7160e01b600052603260045260246000fd5b6020026020010151610308565b82828151811061082b57634e487b7160e01b600052603260045260246000fd5b602090810291909101015261083f81611f93565b90506107aa565b509392505050565b6000828152600660209081526040909120825161086d92840190611724565b50817f6bb7ff708619ba0610cba295a58592e0451dee2622938c8755667688daf3529b8260405161089e9190611dc0565b60405180910390a25050565b600480546103bd90611f2b565b6108c2338383610df9565b5050565b600660205260009081526040902080546103bd90611f2b565b6001600160a01b0385163314806108fb57506108fb85336102ba565b6109595760405162461bcd60e51b815260206004820152602960248201527f455243313135353a2063616c6c6572206973206e6f74206f776e6572206e6f7260448201526808185c1c1c9bdd995960ba1b6064820152608401610370565b6105708585858585610cdc565b60006001600160e01b03198216636cdb3d1360e11b148061099757506001600160e01b031982166303a24d0760e21b145b806103aa57506301ffc9a760e01b6001600160e01b03198316146103aa565b8151835114610a185760405162461bcd60e51b815260206004820152602860248201527f455243313135353a2069647320616e6420616d6f756e7473206c656e677468206044820152670dad2e6dac2e8c6d60c31b6064820152608401610370565b6001600160a01b038416610a3e5760405162461bcd60e51b815260040161037090611e1b565b3360005b8451811015610b41576000858281518110610a6d57634e487b7160e01b600052603260045260246000fd5b602002602001015190506000858381518110610a9957634e487b7160e01b600052603260045260246000fd5b602090810291909101810151600084815280835260408082206001600160a01b038e168352909352919091205490915081811015610ae95760405162461bcd60e51b815260040161037090611e60565b6000838152602081815260408083206001600160a01b038e8116855292528083208585039055908b16825281208054849290610b26908490611f13565b9250508190555050505080610b3a90611f93565b9050610a42565b50846001600160a01b0316866001600160a01b0316826001600160a01b03167f4a39dc06d4c0dbc64b70af90fd698a233a518aa5d07e595d983b8c0526c8f7fb8787604051610b91929190611d9b565b60405180910390a4610ba7818787878787610eda565b505050505050565b600080610bbb84611045565b90506000610bc982856110dd565b95945050505050565b6001600160a01b038416610c325760405162461bcd60e51b815260206004820152602160248201527f455243313135353a206d696e7420746f20746865207a65726f206164647265736044820152607360f81b6064820152608401610370565b33610c4c81600087610c43886110f9565b610570886110f9565b6000848152602081815260408083206001600160a01b038916845290915281208054859290610c7c908490611f13565b909155505060408051858152602081018590526001600160a01b0380881692600092918516917fc3d58168c5ae7397731d063d5bbf3d657854427343f4c083240f7aacaa2d0f62910160405180910390a461057081600087878787611152565b6001600160a01b038416610d025760405162461bcd60e51b815260040161037090611e1b565b33610d12818787610c43886110f9565b6000848152602081815260408083206001600160a01b038a16845290915290205483811015610d535760405162461bcd60e51b815260040161037090611e60565b6000858152602081815260408083206001600160a01b038b8116855292528083208785039055908816825281208054869290610d90908490611f13565b909155505060408051868152602081018690526001600160a01b03808916928a821692918616917fc3d58168c5ae7397731d063d5bbf3d657854427343f4c083240f7aacaa2d0f62910160405180910390a4610df0828888888888611152565b50505050505050565b816001600160a01b0316836001600160a01b03161415610e6d5760405162461bcd60e51b815260206004820152602960248201527f455243313135353a2073657474696e6720617070726f76616c20737461747573604482015268103337b91039b2b63360b91b6064820152608401610370565b6001600160a01b03838116600081815260016020908152604080832094871680845294825291829020805460ff191686151590811790915591519182527f17307eab39ab6107e8899845ad3d59bd9653f200f220920489ca2b5937696c31910160405180910390a3505050565b6001600160a01b0384163b15610ba75760405163bc197c8160e01b81526001600160a01b0385169063bc197c8190610f1e9089908990889088908890600401611ce5565b602060405180830381600087803b158015610f3857600080fd5b505af1925050508015610f68575060408051601f3d908101601f19168201909252610f6591810190611bce565b60015b61101557610f74611fda565b806308c379a01415610fae5750610f89611ff1565b80610f945750610fb0565b8060405162461bcd60e51b81526004016103709190611dc0565b505b60405162461bcd60e51b815260206004820152603460248201527f455243313135353a207472616e7366657220746f206e6f6e20455243313135356044820152732932b1b2b4bb32b91034b6b83632b6b2b73a32b960611b6064820152608401610370565b6001600160e01b0319811663bc197c8160e01b14610df05760405162461bcd60e51b815260040161037090611dd3565b60006103aa7f786f6478430b3713cf2acb1c75da3f4c879d889da9476538e563192bb1fd7a868335602085013560408601356110846060880188611eaa565b604051611092929190611cd5565b6040805191829003822060208301969096528101939093526060830191909152608082015260a081019190915260c0016040516020818303038152906040528051906020012061121c565b60008060006110ec858561126a565b91509150610846816112da565b6040805160018082528183019092526060916000919060208083019080368337019050509050828160008151811061114157634e487b7160e01b600052603260045260246000fd5b602090810291909101015292915050565b6001600160a01b0384163b15610ba75760405163f23a6e6160e01b81526001600160a01b0385169063f23a6e61906111969089908990889088908890600401611d43565b602060405180830381600087803b1580156111b057600080fd5b505af19250505080156111e0575060408051601f3d908101601f191682019092526111dd91810190611bce565b60015b6111ec57610f74611fda565b6001600160e01b0319811663f23a6e6160e01b14610df05760405162461bcd60e51b815260040161037090611dd3565b60006103aa6112296114de565b8360405161190160f01b6020820152602281018390526042810182905260009060620160405160208183030381529060405280519060200120905092915050565b6000808251604114156112a15760208301516040840151606085015160001a61129587828585611608565b945094505050506112d3565b8251604014156112cb57602083015160408401516112c08683836116f5565b9350935050506112d3565b506000905060025b9250929050565b60008160048111156112fc57634e487b7160e01b600052602160045260246000fd5b14156113055750565b600181600481111561132757634e487b7160e01b600052602160045260246000fd5b14156113755760405162461bcd60e51b815260206004820152601860248201527f45434453413a20696e76616c6964207369676e617475726500000000000000006044820152606401610370565b600281600481111561139757634e487b7160e01b600052602160045260246000fd5b14156113e55760405162461bcd60e51b815260206004820152601f60248201527f45434453413a20696e76616c6964207369676e6174757265206c656e677468006044820152606401610370565b600381600481111561140757634e487b7160e01b600052602160045260246000fd5b14156114605760405162461bcd60e51b815260206004820152602260248201527f45434453413a20696e76616c6964207369676e6174757265202773272076616c604482015261756560f01b6064820152608401610370565b600481600481111561148257634e487b7160e01b600052602160045260246000fd5b14156114db5760405162461bcd60e51b815260206004820152602260248201527f45434453413a20696e76616c6964207369676e6174757265202776272076616c604482015261756560f01b6064820152608401610370565b50565b6000306001600160a01b037f00000000000000000000000000000000000000000000000000000000000000001614801561153757507f000000000000000000000000000000000000000000000000000000000000000046145b1561156157507f000000000000000000000000000000000000000000000000000000000000000090565b50604080517f00000000000000000000000000000000000000000000000000000000000000006020808301919091527f0000000000000000000000000000000000000000000000000000000000000000828401527f000000000000000000000000000000000000000000000000000000000000000060608301524660808301523060a0808401919091528351808403909101815260c0909201909252805191012090565b90565b6000807f7fffffffffffffffffffffffffffffff5d576e7357a4501ddfe92f46681b20a083111561163f57506000905060036116ec565b8460ff16601b1415801561165757508460ff16601c14155b1561166857506000905060046116ec565b6040805160008082526020820180845289905260ff881692820192909252606081018690526080810185905260019060a0016020604051602081039080840390855afa1580156116bc573d6000803e3d6000fd5b5050604051601f1901519150506001600160a01b0381166116e5576000600192509250506116ec565b9150600090505b94509492505050565b6000806001600160ff1b03831660ff84901c601b0161171687828885611608565b935093505050935093915050565b82805461173090611f2b565b90600052602060002090601f0160209004810192826117525760008555611798565b82601f1061176b57805160ff1916838001178555611798565b82800160010185558215611798579182015b8281111561179857825182559160200191906001019061177d565b506117a49291506117a8565b5090565b5b808211156117a457600081556001016117a9565b600067ffffffffffffffff8311156117d7576117d7611fc4565b6040516117ee601f8501601f191660200182611f66565b80915083815284848401111561180357600080fd5b83836020830137600060208583010152509392505050565b80356001600160a01b038116811461183257600080fd5b919050565b600082601f830112611847578081fd5b8135602061185482611eef565b6040516118618282611f66565b8381528281019150858301600585901b87018401881015611880578586fd5b855b8581101561189e57813584529284019290840190600101611882565b5090979650505050505050565b600082601f8301126118bb578081fd5b6118ca838335602085016117bd565b9392505050565b600080604083850312156118e3578182fd5b6118ec8361181b565b91506118fa6020840161181b565b90509250929050565b600080600080600060a0868803121561191a578081fd5b6119238661181b565b94506119316020870161181b565b9350604086013567ffffffffffffffff8082111561194d578283fd5b61195989838a01611837565b9450606088013591508082111561196e578283fd5b61197a89838a01611837565b9350608088013591508082111561198f578283fd5b5061199c888289016118ab565b9150509295509295909350565b600080600080600060a086880312156119c0578081fd5b6119c98661181b565b94506119d76020870161181b565b93506040860135925060608601359150608086013567ffffffffffffffff811115611a00578182fd5b61199c888289016118ab565b60008060408385031215611a1e578182fd5b611a278361181b565b915060208301358015158114611a3b578182fd5b809150509250929050565b600080600060608486031215611a5a578283fd5b611a638461181b565b9250602084013567ffffffffffffffff80821115611a7f578384fd5b9085019060808288031215611a92578384fd5b90925060408501359080821115611aa7578283fd5b50611ab4868287016118ab565b9150509250925092565b60008060408385031215611ad0578182fd5b611ad98361181b565b946020939093013593505050565b60008060408385031215611af9578182fd5b823567ffffffffffffffff80821115611b10578384fd5b818501915085601f830112611b23578384fd5b81356020611b3082611eef565b604051611b3d8282611f66565b8381528281019150858301600585901b870184018b1015611b5c578889fd5b8896505b84871015611b8557611b718161181b565b835260019690960195918301918301611b60565b5096505086013592505080821115611b9b578283fd5b50611ba885828601611837565b9150509250929050565b600060208284031215611bc3578081fd5b81356118ca8161207b565b600060208284031215611bdf578081fd5b81516118ca8161207b565b600060208284031215611bfb578081fd5b5035919050565b60008060408385031215611c14578182fd5b82359150602083013567ffffffffffffffff811115611c31578182fd5b8301601f81018513611c41578182fd5b611ba8858235602084016117bd565b6000815180845260208085019450808401835b83811015611c7f57815187529582019590820190600101611c63565b509495945050505050565b60008151808452815b81811015611caf57602081850181015186830182015201611c93565b81811115611cc05782602083870101525b50601f01601f19169290920160200192915050565b8183823760009101908152919050565b6001600160a01b0386811682528516602082015260a060408201819052600090611d1190830186611c50565b8281036060840152611d238186611c50565b90508281036080840152611d378185611c8a565b98975050505050505050565b6001600160a01b03868116825285166020820152604081018490526060810183905260a060808201819052600090611d7d90830184611c8a565b979650505050505050565b6020815260006118ca6020830184611c50565b604081526000611dae6040830185611c50565b8281036020840152610bc98185611c50565b6020815260006118ca6020830184611c8a565b60208082526028908201527f455243313135353a204552433131353552656365697665722072656a656374656040820152676420746f6b656e7360c01b606082015260800190565b60208082526025908201527f455243313135353a207472616e7366657220746f20746865207a65726f206164604082015264647265737360d81b606082015260800190565b6020808252602a908201527f455243313135353a20696e73756666696369656e742062616c616e636520666f60408201526939103a3930b739b332b960b11b606082015260800190565b6000808335601e19843603018112611ec0578283fd5b83018035915067ffffffffffffffff821115611eda578283fd5b6020019150368190038213156112d357600080fd5b600067ffffffffffffffff821115611f0957611f09611fc4565b5060051b60200190565b60008219821115611f2657611f26611fae565b500190565b600181811c90821680611f3f57607f821691505b60208210811415611f6057634e487b7160e01b600052602260045260246000fd5b50919050565b601f8201601f1916810167ffffffffffffffff81118282101715611f8c57611f8c611fc4565b6040525050565b6000600019821415611fa757611fa7611fae565b5060010190565b634e487b7160e01b600052601160045260246000fd5b634e487b7160e01b600052604160045260246000fd5b600060033d111561160557600481823e5160e01c90565b600060443d1015611fff5790565b6040516003193d81016004833e81513d67ffffffffffffffff816024840111818411171561202f57505050505090565b82850191508151818111156120475750505050505090565b843d87010160208285010111156120615750505050505090565b61207060208286010187611f66565b509095945050505050565b6001600160e01b0319811681146114db57600080fdfea264697066735822122083c08677e4d8367640a6e7e56d54af4f5bfb79b531f8407e30b7f08287ff5cc364736f6c63430008040033",
  "linkReferences": {},
  "deployedLinkReferences": {}
}