{
  "_format": "hh-sol-artifact-1",
  "contractName": "Lazy1155",
  "sourceName": "contracts/Lazy1155.sol",
  "abi": [
    {
      "inputs": [],
      "stateMutability": "nonpayable",
      "type": "constructor"
    },
    {
      "anonymous": false,
      "inputs": [
        {
          "indexed": true,
          "internalType": "address",
          "name": "account",
          "type": "address"
        },
        {
          "indexed": true,
          "internalType": "address",
          "name": "operator",
          "type": "address"
        },
        {
          "indexed": false,
          "internalType": "bool",
          "name": "approved",
          "type": "bool"
        }
      ],
      "name": "ApprovalForAll",
      "type": "event"
    },
    {
      "anonymous": false,
      "inputs": [
        {
          "indexed": true,
          "internalType": "address",
          "name": "operator",
          "type": "address"
        },
        {
          "indexed": true,
          "internalType": "address",
          "name": "from",
          "type": "address"
        },
        {
          "indexed": true,
          "internalType": "address",
          "name": "to",
          "type": "address"
        },
        {
          "indexed": false,
          "internalType": "uint256[]",
          "name": "ids",
          "type": "uint256[]"
        },
        {
          "indexed": false,
          "internalType": "uint256[]",
          "name": "values",
          "type": "uint256[]"
        }
      ],
      "name": "TransferBatch",
      "type": "event"
    },
    {
      "anonymous": false,
      "inputs": [
        {
          "indexed": true,
          "internalType": "address",
          "name": "operator",
          "type": "address"
        },
        {
          "indexed": true,
          "internalType": "address",
          "name": "from",
          "type": "address"
        },
        {
          "indexed": true,
          "internalType": "address",
          "name": "to",
          "type": "address"
        },
        {
          "indexed": false,
          "internalType": "uint256",
          "name": "id",
          "type": "uint256"
        },
        {
          "indexed": false,
          "internalType": "uint256",
          "name": "value",
          "type": "uint256"
        }
      ],
      "name": "TransferSingle",
      "type": "event"
    },
    {
      "anonymous": false,
      "inputs": [
        {
          "indexed": false,
          "internalType": "string",
          "name": "value",
          "type": "string"
        },
        {
          "indexed": true,
          "internalType": "uint256",
          "name": "id",
          "type": "uint256"
        }
      ],
      "name": "URI",
      "type": "event"
    },
    {
      "inputs": [],
      "name": "availableToWithdraw",
      "outputs": [
        {
          "internalType": "uint256",
          "name": "",
          "type": "uint256"
        }
      ],
      "stateMutability": "view",
      "type": "function"
    },
    {
      "inputs": [
        {
          "internalType": "address",
          "name": "account",
          "type": "address"
        },
        {
          "internalType": "uint256",
          "name": "id",
          "type": "uint256"
        }
      ],
      "name": "balanceOf",
      "outputs": [
        {
          "internalType": "uint256",
          "name": "",
          "type": "uint256"
        }
      ],
      "stateMutability": "view",
      "type": "function"
    },
    {
      "inputs": [
        {
          "internalType": "address[]",
          "name": "accounts",
          "type": "address[]"
        },
        {
          "internalType": "uint256[]",
          "name": "ids",
          "type": "uint256[]"
        }
      ],
      "name": "balanceOfBatch",
      "outputs": [
        {
          "internalType": "uint256[]",
          "name": "",
          "type": "uint256[]"
        }
      ],
      "stateMutability": "view",
      "type": "function"
    },
    {
      "inputs": [
        {
          "internalType": "uint256",
          "name": "_id",
          "type": "uint256"
        }
      ],
      "name": "buyitem",
      "outputs": [],
      "stateMutability": "payable",
      "type": "function"
    },
    {
      "inputs": [
        {
          "internalType": "uint256",
          "name": "_id",
          "type": "uint256"
        },
        {
          "internalType": "uint256",
          "name": "price",
          "type": "uint256"
        }
      ],
      "name": "createitem",
      "outputs": [],
      "stateMutability": "nonpayable",
      "type": "function"
    },
    {
      "inputs": [
        {
          "internalType": "address",
          "name": "account",
          "type": "address"
        },
        {
          "internalType": "address",
          "name": "operator",
          "type": "address"
        }
      ],
      "name": "isApprovedForAll",
      "outputs": [
        {
          "internalType": "bool",
          "name": "",
          "type": "bool"
        }
      ],
      "stateMutability": "view",
      "type": "function"
    },
    {
      "inputs": [
        {
          "internalType": "uint256",
          "name": "tokenId",
          "type": "uint256"
        },
        {
          "internalType": "uint256",
          "name": "amount",
          "type": "uint256"
        },
        {
          "internalType": "string",
          "name": "url",
          "type": "string"
        }
      ],
      "name": "mint",
      "outputs": [],
      "stateMutability": "nonpayable",
      "type": "function"
    },
    {
      "inputs": [],
      "name": "name",
      "outputs": [
        {
          "internalType": "string",
          "name": "",
          "type": "string"
        }
      ],
      "stateMutability": "view",
      "type": "function"
    },
    {
      "inputs": [
        {
          "internalType": "address",
          "name": "redeemer",
          "type": "address"
        },
        {
          "components": [
            {
              "internalType": "uint256",
              "name": "tokenId",
              "type": "uint256"
            },
            {
              "internalType": "uint256",
              "name": "minPrice",
              "type": "uint256"
            },
            {
              "internalType": "uint256",
              "name": "amount",
              "type": "uint256"
            },
            {
              "internalType": "string",
              "name": "uri",
              "type": "string"
            }
          ],
          "internalType": "struct Lazy1155.NFTVoucher",
          "name": "voucher",
          "type": "tuple"
        },
        {
          "internalType": "bytes",
          "name": "signature",
          "type": "bytes"
        }
      ],
      "name": "redeem",
      "outputs": [
        {
          "internalType": "uint256",
          "name": "",
          "type": "uint256"
        }
      ],
      "stateMutability": "payable",
      "type": "function"
    },
    {
      "inputs": [
        {
          "internalType": "address",
          "name": "from",
          "type": "address"
        },
        {
          "internalType": "address",
          "name": "to",
          "type": "address"
        },
        {
          "internalType": "uint256[]",
          "name": "ids",
          "type": "uint256[]"
        },
        {
          "internalType": "uint256[]",
          "name": "amounts",
          "type": "uint256[]"
        },
        {
          "internalType": "bytes",
          "name": "data",
          "type": "bytes"
        }
      ],
      "name": "safeBatchTransferFrom",
      "outputs": [],
      "stateMutability": "nonpayable",
      "type": "function"
    },
    {
      "inputs": [
        {
          "internalType": "address",
          "name": "from",
          "type": "address"
        },
        {
          "internalType": "address",
          "name": "to",
          "type": "address"
        },
        {
          "internalType": "uint256",
          "name": "id",
          "type": "uint256"
        },
        {
          "internalType": "uint256",
          "name": "amount",
          "type": "uint256"
        },
        {
          "internalType": "bytes",
          "name": "data",
          "type": "bytes"
        }
      ],
      "name": "safeTransferFrom",
      "outputs": [],
      "stateMutability": "nonpayable",
      "type": "function"
    },
    {
      "inputs": [
        {
          "internalType": "address",
          "name": "operator",
          "type": "address"
        },
        {
          "internalType": "bool",
          "name": "approved",
          "type": "bool"
        }
      ],
      "name": "setApprovalForAll",
      "outputs": [],
      "stateMutability": "nonpayable",
      "type": "function"
    },
    {
      "inputs": [
        {
          "internalType": "bytes4",
          "name": "interfaceId",
          "type": "bytes4"
        }
      ],
      "name": "supportsInterface",
      "outputs": [
        {
          "internalType": "bool",
          "name": "",
          "type": "bool"
        }
      ],
      "stateMutability": "view",
      "type": "function"
    },
    {
      "inputs": [],
      "name": "symbol",
      "outputs": [
        {
          "internalType": "string",
          "name": "",
          "type": "string"
        }
      ],
      "stateMutability": "view",
      "type": "function"
    },
    {
      "inputs": [
        {
          "internalType": "uint256",
          "name": "",
          "type": "uint256"
        }
      ],
      "name": "tokenURI",
      "outputs": [
        {
          "internalType": "string",
          "name": "",
          "type": "string"
        }
      ],
      "stateMutability": "view",
      "type": "function"
    },
    {
      "inputs": [
        {
          "internalType": "uint256",
          "name": "_id",
          "type": "uint256"
        }
      ],
      "name": "uri",
      "outputs": [
        {
          "internalType": "string",
          "name": "",
          "type": "string"
        }
      ],
      "stateMutability": "view",
      "type": "function"
    },
    {
      "inputs": [],
      "name": "withdraw",
      "outputs": [],
      "stateMutability": "nonpayable",
      "type": "function"
    }
  ],
  "bytecode": "0x6101406040523480156200001257600080fd5b506040805160208082018352600082528251808401845260048152634e616d6560e01b8183019081528451808601865260058152640312e302e360dc1b908401529051902060e08190527f06c015bd22b4c69690933c1058878ebdfef31f9aaae40bbe86d8a09fe1b2972c6101008190524660a081815286517f8b73c3c69bb8fe3d512ecc4cf759cc79239f7b179b0ffacaa9a75d522b39400f818701819052818901959095526060810193909352608080840192909252308382018190528751808503909201825260c0938401909752805194019390932090925292905261012091909152620001038162000162565b50604080518082019091526003808252621b999d60ea1b60209092019182526200012e91816200017b565b50604080518082019091526003808252621b999d60ea1b60209092019182526200015b916004916200017b565b506200025e565b8051620001779060029060208401906200017b565b5050565b828054620001899062000221565b90600052602060002090601f016020900481019282620001ad5760008555620001f8565b82601f10620001c857805160ff1916838001178555620001f8565b82800160010185558215620001f8579182015b82811115620001f8578251825591602001919060010190620001db565b50620002069291506200020a565b5090565b5b808211156200020657600081556001016200020b565b600181811c908216806200023657607f821691505b602082108114156200025857634e487b7160e01b600052602260045260246000fd5b50919050565b60805160a05160c05160e05161010051610120516121aa620002ae60003960006115d901526000611628015260006116030152600061155c01526000611586015260006115b001526121aa6000f3fe6080604052600436106100fd5760003560e01c8063580f21b811610095578063c87b56dd11610064578063c87b56dd14610286578063e322ad2b146102a6578063e985e9c5146102c8578063f242432a14610311578063fc2a6cd01461033157600080fd5b8063580f21b81461021e57806395d89b4114610231578063a22cb46514610246578063c6e64e531461026657600080fd5b80632eb2c2d6116100d15780632eb2c2d6146101a757806333ead489146101c95780633ccfd60b146101dc5780634e1273f4146101f157600080fd5b8062fdd58e1461010257806301ffc9a71461013557806306fdde03146101655780630e89341c14610187575b600080fd5b34801561010e57600080fd5b5061012261011d36600461184a565b610351565b6040519081526020015b60405180910390f35b34801561014157600080fd5b5061015561015036600461188a565b6103e8565b604051901515815260200161012c565b34801561017157600080fd5b5061017a61043a565b60405161012c91906118fb565b34801561019357600080fd5b5061017a6101a236600461190e565b6104c8565b3480156101b357600080fd5b506101c76101c2366004611a7d565b61056a565b005b6101226101d7366004611b27565b610601565b3480156101e857600080fd5b506101c761072e565b3480156101fd57600080fd5b5061021161020c366004611ba3565b610776565b60405161012c9190611ca9565b6101c761022c36600461190e565b6108a0565b34801561023d57600080fd5b5061017a610955565b34801561025257600080fd5b506101c7610261366004611cbc565b610962565b34801561027257600080fd5b506101c7610281366004611cf8565b610971565b34801561029257600080fd5b5061017a6102a136600461190e565b610996565b3480156102b257600080fd5b5033600090815260056020526040902054610122565b3480156102d457600080fd5b506101556102e3366004611d52565b6001600160a01b03918216600090815260016020908152604080832093909416825291909152205460ff1690565b34801561031d57600080fd5b506101c761032c366004611d85565b6109af565b34801561033d57600080fd5b506101c761034c366004611dea565b610a36565b60006001600160a01b0383166103c25760405162461bcd60e51b815260206004820152602b60248201527f455243313135353a2062616c616e636520717565727920666f7220746865207a60448201526a65726f206164647265737360a81b60648201526084015b60405180910390fd5b506000908152602081815260408083206001600160a01b03949094168352929052205490565b60006001600160e01b03198216636cdb3d1360e11b148061041957506001600160e01b031982166303a24d0760e21b145b8061043457506301ffc9a760e01b6001600160e01b03198316145b92915050565b6003805461044790611e0c565b80601f016020809104026020016040519081016040528092919081815260200182805461047390611e0c565b80156104c05780601f10610495576101008083540402835291602001916104c0565b820191906000526020600020905b8154815290600101906020018083116104a357829003601f168201915b505050505081565b60008181526006602052604090208054606091906104e590611e0c565b80601f016020809104026020016040519081016040528092919081815260200182805461051190611e0c565b801561055e5780601f106105335761010080835404028352916020019161055e565b820191906000526020600020905b81548152906001019060200180831161054157829003601f168201915b50505050509050919050565b6001600160a01b038516331480610586575061058685336102e3565b6105ed5760405162461bcd60e51b815260206004820152603260248201527f455243313135353a207472616e736665722063616c6c6572206973206e6f74206044820152711bdddb995c881b9bdc88185c1c1c9bdd995960721b60648201526084016103b9565b6105fa8585858585610a78565b5050505050565b60008061060e8484610c55565b905083602001353410156106645760405162461bcd60e51b815260206004820152601c60248201527f496e73756666696369656e742066756e647320746f2072656465656d0000000060448201526064016103b9565b610687818560000135866040013560405180602001604052806000815250610c78565b6106d384356106996060870187611e47565b8080601f016020809104026020016040519081016040528093929190818152602001838380828437600092019190915250610d8292505050565b6106f781868660000135876040013560405180602001604052806000815250610da1565b6001600160a01b0381166000908152600560205260408120805434929061071f908490611ea4565b90915550509235949350505050565b3360008181526005602052604080822080549083905590519091839183156108fc0291849190818181858888f19350505050158015610771573d6000803e3d6000fd5b505050565b606081518351146107db5760405162461bcd60e51b815260206004820152602960248201527f455243313135353a206163636f756e747320616e6420696473206c656e677468604482015268040dad2e6dac2e8c6d60bb1b60648201526084016103b9565b6000835167ffffffffffffffff8111156107f7576107f7611927565b604051908082528060200260200182016040528015610820578160200160208202803683370190505b50905060005b84518110156108985761086b85828151811061084457610844611ebc565b602002602001015185838151811061085e5761085e611ebc565b6020026020010151610351565b82828151811061087d5761087d611ebc565b602090810291909101015261089181611ed2565b9050610826565b509392505050565b6000818152600760205260409020543410156108f45760405162461bcd60e51b8152602060048201526013602482015272024b739bab33334b1b4b2b73a10333ab732399606d1b60448201526064016103b9565b6109193330836109043386610351565b604051806020016040528060008152506109af565b6000818152600860209081526040808320546001600160a01b0316835260059091528120805434929061094d908490611ea4565b909155505050565b6004805461044790611e0c565b61096d338383610ebe565b5050565b61098c33848460405180602001604052806000815250610c78565b6107718382610d82565b6006602052600090815260409020805461044790611e0c565b6001600160a01b0385163314806109cb57506109cb85336102e3565b610a295760405162461bcd60e51b815260206004820152602960248201527f455243313135353a2063616c6c6572206973206e6f74206f776e6572206e6f7260448201526808185c1c1c9bdd995960ba1b60648201526084016103b9565b6105fa8585858585610da1565b6000828152600760205260409020819055610a573330846109043387610351565b50600090815260086020526040902080546001600160a01b03191633179055565b8151835114610ada5760405162461bcd60e51b815260206004820152602860248201527f455243313135353a2069647320616e6420616d6f756e7473206c656e677468206044820152670dad2e6dac2e8c6d60c31b60648201526084016103b9565b6001600160a01b038416610b005760405162461bcd60e51b81526004016103b990611eed565b3360005b8451811015610be7576000858281518110610b2157610b21611ebc565b602002602001015190506000858381518110610b3f57610b3f611ebc565b602090810291909101810151600084815280835260408082206001600160a01b038e168352909352919091205490915081811015610b8f5760405162461bcd60e51b81526004016103b990611f32565b6000838152602081815260408083206001600160a01b038e8116855292528083208585039055908b16825281208054849290610bcc908490611ea4565b9250508190555050505080610be090611ed2565b9050610b04565b50846001600160a01b0316866001600160a01b0316826001600160a01b03167f4a39dc06d4c0dbc64b70af90fd698a233a518aa5d07e595d983b8c0526c8f7fb8787604051610c37929190611f7c565b60405180910390a4610c4d818787878787610f9f565b505050505050565b600080610c618461110a565b90506000610c6f82856111a2565b95945050505050565b6001600160a01b038416610cd85760405162461bcd60e51b815260206004820152602160248201527f455243313135353a206d696e7420746f20746865207a65726f206164647265736044820152607360f81b60648201526084016103b9565b33610cf281600087610ce9886111be565b6105fa886111be565b6000848152602081815260408083206001600160a01b038916845290915281208054859290610d22908490611ea4565b909155505060408051858152602081018590526001600160a01b0380881692600092918516917fc3d58168c5ae7397731d063d5bbf3d657854427343f4c083240f7aacaa2d0f62910160405180910390a46105fa81600087878787611209565b6000828152600660209081526040909120825161077192840190611795565b6001600160a01b038416610dc75760405162461bcd60e51b81526004016103b990611eed565b33610dd7818787610ce9886111be565b6000848152602081815260408083206001600160a01b038a16845290915290205483811015610e185760405162461bcd60e51b81526004016103b990611f32565b6000858152602081815260408083206001600160a01b038b8116855292528083208785039055908816825281208054869290610e55908490611ea4565b909155505060408051868152602081018690526001600160a01b03808916928a821692918616917fc3d58168c5ae7397731d063d5bbf3d657854427343f4c083240f7aacaa2d0f62910160405180910390a4610eb5828888888888611209565b50505050505050565b816001600160a01b0316836001600160a01b03161415610f325760405162461bcd60e51b815260206004820152602960248201527f455243313135353a2073657474696e6720617070726f76616c20737461747573604482015268103337b91039b2b63360b91b60648201526084016103b9565b6001600160a01b03838116600081815260016020908152604080832094871680845294825291829020805460ff191686151590811790915591519182527f17307eab39ab6107e8899845ad3d59bd9653f200f220920489ca2b5937696c31910160405180910390a3505050565b6001600160a01b0384163b15610c4d5760405163bc197c8160e01b81526001600160a01b0385169063bc197c8190610fe39089908990889088908890600401611fa1565b602060405180830381600087803b158015610ffd57600080fd5b505af192505050801561102d575060408051601f3d908101601f1916820190925261102a91810190611fff565b60015b6110da5761103961201c565b806308c379a01415611073575061104e612037565b806110595750611075565b8060405162461bcd60e51b81526004016103b991906118fb565b505b60405162461bcd60e51b815260206004820152603460248201527f455243313135353a207472616e7366657220746f206e6f6e20455243313135356044820152732932b1b2b4bb32b91034b6b83632b6b2b73a32b960611b60648201526084016103b9565b6001600160e01b0319811663bc197c8160e01b14610eb55760405162461bcd60e51b81526004016103b9906120c1565b60006104347f786f6478430b3713cf2acb1c75da3f4c879d889da9476538e563192bb1fd7a868335602085013560408601356111496060880188611e47565b604051611157929190612109565b6040805191829003822060208301969096528101939093526060830191909152608082015260a081019190915260c001604051602081830303815290604052805190602001206112d3565b60008060006111b18585611321565b9150915061089881611391565b604080516001808252818301909252606091600091906020808301908036833701905050905082816000815181106111f8576111f8611ebc565b602090810291909101015292915050565b6001600160a01b0384163b15610c4d5760405163f23a6e6160e01b81526001600160a01b0385169063f23a6e619061124d9089908990889088908890600401612119565b602060405180830381600087803b15801561126757600080fd5b505af1925050508015611297575060408051601f3d908101601f1916820190925261129491810190611fff565b60015b6112a35761103961201c565b6001600160e01b0319811663f23a6e6160e01b14610eb55760405162461bcd60e51b81526004016103b9906120c1565b60006104346112e061154f565b8360405161190160f01b6020820152602281018390526042810182905260009060620160405160208183030381529060405280519060200120905092915050565b6000808251604114156113585760208301516040840151606085015160001a61134c87828585611679565b9450945050505061138a565b8251604014156113825760208301516040840151611377868383611766565b93509350505061138a565b506000905060025b9250929050565b60008160048111156113a5576113a561215e565b14156113ae5750565b60018160048111156113c2576113c261215e565b14156114105760405162461bcd60e51b815260206004820152601860248201527f45434453413a20696e76616c6964207369676e6174757265000000000000000060448201526064016103b9565b60028160048111156114245761142461215e565b14156114725760405162461bcd60e51b815260206004820152601f60248201527f45434453413a20696e76616c6964207369676e6174757265206c656e6774680060448201526064016103b9565b60038160048111156114865761148661215e565b14156114df5760405162461bcd60e51b815260206004820152602260248201527f45434453413a20696e76616c6964207369676e6174757265202773272076616c604482015261756560f01b60648201526084016103b9565b60048160048111156114f3576114f361215e565b141561154c5760405162461bcd60e51b815260206004820152602260248201527f45434453413a20696e76616c6964207369676e6174757265202776272076616c604482015261756560f01b60648201526084016103b9565b50565b6000306001600160a01b037f0000000000000000000000000000000000000000000000000000000000000000161480156115a857507f000000000000000000000000000000000000000000000000000000000000000046145b156115d257507f000000000000000000000000000000000000000000000000000000000000000090565b50604080517f00000000000000000000000000000000000000000000000000000000000000006020808301919091527f0000000000000000000000000000000000000000000000000000000000000000828401527f000000000000000000000000000000000000000000000000000000000000000060608301524660808301523060a0808401919091528351808403909101815260c0909201909252805191012090565b90565b6000807f7fffffffffffffffffffffffffffffff5d576e7357a4501ddfe92f46681b20a08311156116b0575060009050600361175d565b8460ff16601b141580156116c857508460ff16601c14155b156116d9575060009050600461175d565b6040805160008082526020820180845289905260ff881692820192909252606081018690526080810185905260019060a0016020604051602081039080840390855afa15801561172d573d6000803e3d6000fd5b5050604051601f1901519150506001600160a01b0381166117565760006001925092505061175d565b9150600090505b94509492505050565b6000806001600160ff1b03831660ff84901c601b0161178787828885611679565b935093505050935093915050565b8280546117a190611e0c565b90600052602060002090601f0160209004810192826117c35760008555611809565b82601f106117dc57805160ff1916838001178555611809565b82800160010185558215611809579182015b828111156118095782518255916020019190600101906117ee565b50611815929150611819565b5090565b5b80821115611815576000815560010161181a565b80356001600160a01b038116811461184557600080fd5b919050565b6000806040838503121561185d57600080fd5b6118668361182e565b946020939093013593505050565b6001600160e01b03198116811461154c57600080fd5b60006020828403121561189c57600080fd5b81356118a781611874565b9392505050565b6000815180845260005b818110156118d4576020818501810151868301820152016118b8565b818111156118e6576000602083870101525b50601f01601f19169290920160200192915050565b6020815260006118a760208301846118ae565b60006020828403121561192057600080fd5b5035919050565b634e487b7160e01b600052604160045260246000fd5b601f8201601f1916810167ffffffffffffffff8111828210171561196357611963611927565b6040525050565b600067ffffffffffffffff82111561198457611984611927565b5060051b60200190565b600082601f83011261199f57600080fd5b813560206119ac8261196a565b6040516119b9828261193d565b83815260059390931b85018201928281019150868411156119d957600080fd5b8286015b848110156119f457803583529183019183016119dd565b509695505050505050565b600067ffffffffffffffff831115611a1957611a19611927565b604051611a30601f8501601f19166020018261193d565b809150838152848484011115611a4557600080fd5b83836020830137600060208583010152509392505050565b600082601f830112611a6e57600080fd5b6118a7838335602085016119ff565b600080600080600060a08688031215611a9557600080fd5b611a9e8661182e565b9450611aac6020870161182e565b9350604086013567ffffffffffffffff80821115611ac957600080fd5b611ad589838a0161198e565b94506060880135915080821115611aeb57600080fd5b611af789838a0161198e565b93506080880135915080821115611b0d57600080fd5b50611b1a88828901611a5d565b9150509295509295909350565b600080600060608486031215611b3c57600080fd5b611b458461182e565b9250602084013567ffffffffffffffff80821115611b6257600080fd5b9085019060808288031215611b7657600080fd5b90925060408501359080821115611b8c57600080fd5b50611b9986828701611a5d565b9150509250925092565b60008060408385031215611bb657600080fd5b823567ffffffffffffffff80821115611bce57600080fd5b818501915085601f830112611be257600080fd5b81356020611bef8261196a565b604051611bfc828261193d565b83815260059390931b8501820192828101915089841115611c1c57600080fd5b948201945b83861015611c4157611c328661182e565b82529482019490820190611c21565b96505086013592505080821115611c5757600080fd5b50611c648582860161198e565b9150509250929050565b600081518084526020808501945080840160005b83811015611c9e57815187529582019590820190600101611c82565b509495945050505050565b6020815260006118a76020830184611c6e565b60008060408385031215611ccf57600080fd5b611cd88361182e565b915060208301358015158114611ced57600080fd5b809150509250929050565b600080600060608486031215611d0d57600080fd5b8335925060208401359150604084013567ffffffffffffffff811115611d3257600080fd5b8401601f81018613611d4357600080fd5b611b99868235602084016119ff565b60008060408385031215611d6557600080fd5b611d6e8361182e565b9150611d7c6020840161182e565b90509250929050565b600080600080600060a08688031215611d9d57600080fd5b611da68661182e565b9450611db46020870161182e565b93506040860135925060608601359150608086013567ffffffffffffffff811115611dde57600080fd5b611b1a88828901611a5d565b60008060408385031215611dfd57600080fd5b50508035926020909101359150565b600181811c90821680611e2057607f821691505b60208210811415611e4157634e487b7160e01b600052602260045260246000fd5b50919050565b6000808335601e19843603018112611e5e57600080fd5b83018035915067ffffffffffffffff821115611e7957600080fd5b60200191503681900382131561138a57600080fd5b634e487b7160e01b600052601160045260246000fd5b60008219821115611eb757611eb7611e8e565b500190565b634e487b7160e01b600052603260045260246000fd5b6000600019821415611ee657611ee6611e8e565b5060010190565b60208082526025908201527f455243313135353a207472616e7366657220746f20746865207a65726f206164604082015264647265737360d81b606082015260800190565b6020808252602a908201527f455243313135353a20696e73756666696369656e742062616c616e636520666f60408201526939103a3930b739b332b960b11b606082015260800190565b604081526000611f8f6040830185611c6e565b8281036020840152610c6f8185611c6e565b6001600160a01b0386811682528516602082015260a060408201819052600090611fcd90830186611c6e565b8281036060840152611fdf8186611c6e565b90508281036080840152611ff381856118ae565b98975050505050505050565b60006020828403121561201157600080fd5b81516118a781611874565b600060033d11156116765760046000803e5060005160e01c90565b600060443d10156120455790565b6040516003193d81016004833e81513d67ffffffffffffffff816024840111818411171561207557505050505090565b828501915081518181111561208d5750505050505090565b843d87010160208285010111156120a75750505050505090565b6120b66020828601018761193d565b509095945050505050565b60208082526028908201527f455243313135353a204552433131353552656365697665722072656a656374656040820152676420746f6b656e7360c01b606082015260800190565b8183823760009101908152919050565b6001600160a01b03868116825285166020820152604081018490526060810183905260a060808201819052600090612153908301846118ae565b979650505050505050565b634e487b7160e01b600052602160045260246000fdfea264697066735822122037b488907e04f7ecb83ba897ede438ade804753c0a762720cda37f8d722f170e64736f6c63430008090033",
  "linkReferences": {},
  "deployedLinkReferences": {}
}