{
  "_format": "hh-sol-artifact-1",
  "contractName": "ERC1155lazy",
  "sourceName": "contracts/ERC1155lazy.sol",
  "abi": [
    {
      "inputs": [],
      "stateMutability": "nonpayable",
      "type": "constructor"
    },
    {
      "anonymous": false,
      "inputs": [
        {
          "indexed": true,
          "internalType": "address",
          "name": "account",
          "type": "address"
        },
        {
          "indexed": true,
          "internalType": "address",
          "name": "operator",
          "type": "address"
        },
        {
          "indexed": false,
          "internalType": "bool",
          "name": "approved",
          "type": "bool"
        }
      ],
      "name": "ApprovalForAll",
      "type": "event"
    },
    {
      "anonymous": false,
      "inputs": [
        {
          "indexed": false,
          "internalType": "address",
          "name": "owner",
          "type": "address"
        },
        {
          "indexed": false,
          "internalType": "uint256",
          "name": "tokenId",
          "type": "uint256"
        },
        {
          "indexed": false,
          "internalType": "string",
          "name": "tokenURI",
          "type": "string"
        },
        {
          "indexed": false,
          "internalType": "uint256",
          "name": "royalty",
          "type": "uint256"
        }
      ],
      "name": "TokenCreated",
      "type": "event"
    },
    {
      "anonymous": false,
      "inputs": [
        {
          "indexed": true,
          "internalType": "address",
          "name": "operator",
          "type": "address"
        },
        {
          "indexed": true,
          "internalType": "address",
          "name": "from",
          "type": "address"
        },
        {
          "indexed": true,
          "internalType": "address",
          "name": "to",
          "type": "address"
        },
        {
          "indexed": false,
          "internalType": "uint256[]",
          "name": "ids",
          "type": "uint256[]"
        },
        {
          "indexed": false,
          "internalType": "uint256[]",
          "name": "values",
          "type": "uint256[]"
        }
      ],
      "name": "TransferBatch",
      "type": "event"
    },
    {
      "anonymous": false,
      "inputs": [
        {
          "indexed": true,
          "internalType": "address",
          "name": "operator",
          "type": "address"
        },
        {
          "indexed": true,
          "internalType": "address",
          "name": "from",
          "type": "address"
        },
        {
          "indexed": true,
          "internalType": "address",
          "name": "to",
          "type": "address"
        },
        {
          "indexed": false,
          "internalType": "uint256",
          "name": "id",
          "type": "uint256"
        },
        {
          "indexed": false,
          "internalType": "uint256",
          "name": "value",
          "type": "uint256"
        }
      ],
      "name": "TransferSingle",
      "type": "event"
    },
    {
      "anonymous": false,
      "inputs": [
        {
          "indexed": false,
          "internalType": "string",
          "name": "value",
          "type": "string"
        },
        {
          "indexed": true,
          "internalType": "uint256",
          "name": "id",
          "type": "uint256"
        }
      ],
      "name": "URI",
      "type": "event"
    },
    {
      "inputs": [],
      "name": "availableToWithdraw",
      "outputs": [
        {
          "internalType": "uint256",
          "name": "",
          "type": "uint256"
        }
      ],
      "stateMutability": "view",
      "type": "function"
    },
    {
      "inputs": [
        {
          "internalType": "address",
          "name": "account",
          "type": "address"
        },
        {
          "internalType": "uint256",
          "name": "id",
          "type": "uint256"
        }
      ],
      "name": "balanceOf",
      "outputs": [
        {
          "internalType": "uint256",
          "name": "",
          "type": "uint256"
        }
      ],
      "stateMutability": "view",
      "type": "function"
    },
    {
      "inputs": [
        {
          "internalType": "address[]",
          "name": "accounts",
          "type": "address[]"
        },
        {
          "internalType": "uint256[]",
          "name": "ids",
          "type": "uint256[]"
        }
      ],
      "name": "balanceOfBatch",
      "outputs": [
        {
          "internalType": "uint256[]",
          "name": "",
          "type": "uint256[]"
        }
      ],
      "stateMutability": "view",
      "type": "function"
    },
    {
      "inputs": [
        {
          "internalType": "uint256",
          "name": "_tokenId",
          "type": "uint256"
        }
      ],
      "name": "getRoyaltyPercentage",
      "outputs": [
        {
          "internalType": "uint256",
          "name": "",
          "type": "uint256"
        }
      ],
      "stateMutability": "view",
      "type": "function"
    },
    {
      "inputs": [
        {
          "internalType": "address",
          "name": "account",
          "type": "address"
        },
        {
          "internalType": "address",
          "name": "operator",
          "type": "address"
        }
      ],
      "name": "isApprovedForAll",
      "outputs": [
        {
          "internalType": "bool",
          "name": "",
          "type": "bool"
        }
      ],
      "stateMutability": "view",
      "type": "function"
    },
    {
      "inputs": [
        {
          "internalType": "uint256",
          "name": "tokenId",
          "type": "uint256"
        },
        {
          "internalType": "uint256",
          "name": "amount",
          "type": "uint256"
        },
        {
          "internalType": "string",
          "name": "url",
          "type": "string"
        },
        {
          "internalType": "uint256",
          "name": "royaltyPercentage",
          "type": "uint256"
        }
      ],
      "name": "mint",
      "outputs": [],
      "stateMutability": "nonpayable",
      "type": "function"
    },
    {
      "inputs": [],
      "name": "name",
      "outputs": [
        {
          "internalType": "string",
          "name": "",
          "type": "string"
        }
      ],
      "stateMutability": "view",
      "type": "function"
    },
    {
      "inputs": [
        {
          "internalType": "address",
          "name": "redeemer",
          "type": "address"
        },
        {
          "components": [
            {
              "internalType": "uint256",
              "name": "tokenId",
              "type": "uint256"
            },
            {
              "internalType": "uint256",
              "name": "minPrice",
              "type": "uint256"
            },
            {
              "internalType": "uint256",
              "name": "amount",
              "type": "uint256"
            },
            {
              "internalType": "string",
              "name": "uri",
              "type": "string"
            },
            {
              "internalType": "uint256",
              "name": "royaltyPercentage",
              "type": "uint256"
            }
          ],
          "internalType": "struct ERC1155lazy.NFTVoucher",
          "name": "voucher",
          "type": "tuple"
        },
        {
          "internalType": "bytes",
          "name": "signature",
          "type": "bytes"
        }
      ],
      "name": "redeem",
      "outputs": [
        {
          "internalType": "uint256",
          "name": "",
          "type": "uint256"
        }
      ],
      "stateMutability": "payable",
      "type": "function"
    },
    {
      "inputs": [
        {
          "internalType": "uint256",
          "name": "_tokenId",
          "type": "uint256"
        },
        {
          "internalType": "uint256",
          "name": "_salePrice",
          "type": "uint256"
        }
      ],
      "name": "royaltyInfo",
      "outputs": [
        {
          "internalType": "address",
          "name": "receiver",
          "type": "address"
        },
        {
          "internalType": "uint256",
          "name": "royaltyAmount",
          "type": "uint256"
        }
      ],
      "stateMutability": "view",
      "type": "function"
    },
    {
      "inputs": [
        {
          "internalType": "address",
          "name": "from",
          "type": "address"
        },
        {
          "internalType": "address",
          "name": "to",
          "type": "address"
        },
        {
          "internalType": "uint256[]",
          "name": "ids",
          "type": "uint256[]"
        },
        {
          "internalType": "uint256[]",
          "name": "amounts",
          "type": "uint256[]"
        },
        {
          "internalType": "bytes",
          "name": "data",
          "type": "bytes"
        }
      ],
      "name": "safeBatchTransferFrom",
      "outputs": [],
      "stateMutability": "nonpayable",
      "type": "function"
    },
    {
      "inputs": [
        {
          "internalType": "address",
          "name": "from",
          "type": "address"
        },
        {
          "internalType": "address",
          "name": "to",
          "type": "address"
        },
        {
          "internalType": "uint256",
          "name": "id",
          "type": "uint256"
        },
        {
          "internalType": "uint256",
          "name": "amount",
          "type": "uint256"
        },
        {
          "internalType": "bytes",
          "name": "data",
          "type": "bytes"
        }
      ],
      "name": "safeTransferFrom",
      "outputs": [],
      "stateMutability": "nonpayable",
      "type": "function"
    },
    {
      "inputs": [
        {
          "internalType": "address",
          "name": "operator",
          "type": "address"
        },
        {
          "internalType": "bool",
          "name": "approved",
          "type": "bool"
        }
      ],
      "name": "setApprovalForAll",
      "outputs": [],
      "stateMutability": "nonpayable",
      "type": "function"
    },
    {
      "inputs": [
        {
          "internalType": "bytes4",
          "name": "interfaceId",
          "type": "bytes4"
        }
      ],
      "name": "supportsInterface",
      "outputs": [
        {
          "internalType": "bool",
          "name": "",
          "type": "bool"
        }
      ],
      "stateMutability": "view",
      "type": "function"
    },
    {
      "inputs": [],
      "name": "symbol",
      "outputs": [
        {
          "internalType": "string",
          "name": "",
          "type": "string"
        }
      ],
      "stateMutability": "view",
      "type": "function"
    },
    {
      "inputs": [
        {
          "internalType": "uint256",
          "name": "",
          "type": "uint256"
        }
      ],
      "name": "tokenURI",
      "outputs": [
        {
          "internalType": "string",
          "name": "",
          "type": "string"
        }
      ],
      "stateMutability": "view",
      "type": "function"
    },
    {
      "inputs": [
        {
          "internalType": "uint256",
          "name": "_id",
          "type": "uint256"
        }
      ],
      "name": "uri",
      "outputs": [
        {
          "internalType": "string",
          "name": "",
          "type": "string"
        }
      ],
      "stateMutability": "view",
      "type": "function"
    },
    {
      "inputs": [],
      "name": "withdraw",
      "outputs": [],
      "stateMutability": "nonpayable",
      "type": "function"
    }
  ],
  "bytecode": "0x6101406040523480156200001257600080fd5b506040805160208082018352600082528251808401845260048152634e616d6560e01b8183019081528451808601865260058152640312e302e360dc1b908401529051902060e08190527f06c015bd22b4c69690933c1058878ebdfef31f9aaae40bbe86d8a09fe1b2972c6101008190524660a081815286517f8b73c3c69bb8fe3d512ecc4cf759cc79239f7b179b0ffacaa9a75d522b39400f818701819052818901959095526060810193909352608080840192909252308382018190528751808503909201825260c0938401909752805194019390932090925292905261012091909152620001038162000164565b50604080518082019091526003808252621b999d60ea1b602090920191825262000130916004916200017d565b50604080518082019091526003808252621b999d60ea1b60209092019182526200015d916005916200017d565b5062000260565b8051620001799060029060208401906200017d565b5050565b8280546200018b9062000223565b90600052602060002090601f016020900481019282620001af5760008555620001fa565b82601f10620001ca57805160ff1916838001178555620001fa565b82800160010185558215620001fa579182015b82811115620001fa578251825591602001919060010190620001dd565b50620002089291506200020c565b5090565b5b808211156200020857600081556001016200020d565b600181811c908216806200023857607f821691505b602082108114156200025a57634e487b7160e01b600052602260045260246000fd5b50919050565b60805160a05160c05160e051610100516101205161233e620002b06000396000611699015260006116e8015260006116c30152600061161c0152600061164601526000611670015261233e6000f3fe6080604052600436106100fd5760003560e01c80634e1273f411610095578063c87b56dd11610064578063c87b56dd146102c2578063cf2ed32e146102e2578063e322ad2b14610302578063e985e9c514610324578063f242432a1461036d57600080fd5b80634e1273f41461023057806376a175101461025d57806395d89b411461028d578063a22cb465146102a257600080fd5b80632a55205a116100d15780632a55205a146101a75780632eb2c2d6146101e657806336ddb2f6146102085780633ccfd60b1461021b57600080fd5b8062fdd58e1461010257806301ffc9a71461013557806306fdde03146101655780630e89341c14610187575b600080fd5b34801561010e57600080fd5b5061012261011d36600461190a565b61038d565b6040519081526020015b60405180910390f35b34801561014157600080fd5b5061015561015036600461194a565b610424565b604051901515815260200161012c565b34801561017157600080fd5b5061017a610456565b60405161012c91906119bb565b34801561019357600080fd5b5061017a6101a23660046119ce565b6104e4565b3480156101b357600080fd5b506101c76101c23660046119e7565b610586565b604080516001600160a01b03909316835260208301919091520161012c565b3480156101f257600080fd5b50610206610201366004611b5f565b6105c9565b005b610122610216366004611c09565b610660565b34801561022757600080fd5b506102066107ed565b34801561023c57600080fd5b5061025061024b366004611c85565b610835565b60405161012c9190611d8b565b34801561026957600080fd5b506101226102783660046119ce565b60009081526003602052604090206001015490565b34801561029957600080fd5b5061017a61095f565b3480156102ae57600080fd5b506102066102bd366004611d9e565b61096c565b3480156102ce57600080fd5b5061017a6102dd3660046119ce565b61097b565b3480156102ee57600080fd5b506102066102fd366004611dda565b610994565b34801561030e57600080fd5b5033600090815260066020526040902054610122565b34801561033057600080fd5b5061015561033f366004611e46565b6001600160a01b03918216600090815260016020908152604080832093909416825291909152205460ff1690565b34801561037957600080fd5b50610206610388366004611e70565b610a07565b60006001600160a01b0383166103fe5760405162461bcd60e51b815260206004820152602b60248201527f455243313135353a2062616c616e636520717565727920666f7220746865207a60448201526a65726f206164647265737360a81b60648201526084015b60405180910390fd5b506000908152602081815260408083206001600160a01b03949094168352929052205490565b60006001600160e01b0319821663152a902d60e11b141561044757506001919050565b61045082610a8e565b92915050565b6004805461046390611ed5565b80601f016020809104026020016040519081016040528092919081815260200182805461048f90611ed5565b80156104dc5780601f106104b1576101008083540402835291602001916104dc565b820191906000526020600020905b8154815290600101906020018083116104bf57829003601f168201915b505050505081565b600081815260076020526040902080546060919061050190611ed5565b80601f016020809104026020016040519081016040528092919081815260200182805461052d90611ed5565b801561057a5780601f1061054f5761010080835404028352916020019161057a565b820191906000526020600020905b81548152906001019060200180831161055d57829003601f168201915b50505050509050919050565b600082815260036020526040812080546001909101546001600160a01b0390911691906064906105b69085611f26565b6105c09190611f45565b90509250929050565b6001600160a01b0385163314806105e557506105e5853361033f565b61064c5760405162461bcd60e51b815260206004820152603260248201527f455243313135353a207472616e736665722063616c6c6572206973206e6f74206044820152711bdddb995c881b9bdc88185c1c1c9bdd995960721b60648201526084016103f5565b6106598585858585610ade565b5050505050565b60008061066d8484610cbb565b905083602001353410156106c35760405162461bcd60e51b815260206004820152601c60248201527f496e73756666696369656e742066756e647320746f2072656465656d0000000060448201526064016103f5565b6106e6818560000135866040013560405180602001604052806000815250610cde565b61073284356106f86060870187611f67565b8080601f016020809104026020016040519081016040528093929190818152602001838380828437600092019190915250610de892505050565b61075681868660000135876040013560405180602001604052806000815250610e07565b6001600160a01b0381166000908152600660205260408120805434929061077e908490611fae565b9091555061079490508435826080870135610f24565b7f368901f778c779d604bf50c10102b65e3509fab97e3656cd74f8d7625a324edb3385356107c56060880188611f67565b88608001356040516107db959493929190611fc6565b60405180910390a15050903592915050565b3360008181526006602052604080822080549083905590519091839183156108fc0291849190818181858888f19350505050158015610830573d6000803e3d6000fd5b505050565b6060815183511461089a5760405162461bcd60e51b815260206004820152602960248201527f455243313135353a206163636f756e747320616e6420696473206c656e677468604482015268040dad2e6dac2e8c6d60bb1b60648201526084016103f5565b6000835167ffffffffffffffff8111156108b6576108b6611a09565b6040519080825280602002602001820160405280156108df578160200160208202803683370190505b50905060005b84518110156109575761092a85828151811061090357610903612018565b602002602001015185838151811061091d5761091d612018565b602002602001015161038d565b82828151811061093c5761093c612018565b60209081029190910101526109508161202e565b90506108e5565b509392505050565b6005805461046390611ed5565b610977338383610f6c565b5050565b6007602052600090815260409020805461046390611ed5565b6109af33858560405180602001604052806000815250610cde565b6109b98483610de8565b6109c4843383610f24565b7f368901f778c779d604bf50c10102b65e3509fab97e3656cd74f8d7625a324edb338584846040516109f99493929190612049565b60405180910390a150505050565b6001600160a01b038516331480610a235750610a23853361033f565b610a815760405162461bcd60e51b815260206004820152602960248201527f455243313135353a2063616c6c6572206973206e6f74206f776e6572206e6f7260448201526808185c1c1c9bdd995960ba1b60648201526084016103f5565b6106598585858585610e07565b60006001600160e01b03198216636cdb3d1360e11b1480610abf57506001600160e01b031982166303a24d0760e21b145b8061045057506301ffc9a760e01b6001600160e01b0319831614610450565b8151835114610b405760405162461bcd60e51b815260206004820152602860248201527f455243313135353a2069647320616e6420616d6f756e7473206c656e677468206044820152670dad2e6dac2e8c6d60c31b60648201526084016103f5565b6001600160a01b038416610b665760405162461bcd60e51b81526004016103f590612081565b3360005b8451811015610c4d576000858281518110610b8757610b87612018565b602002602001015190506000858381518110610ba557610ba5612018565b602090810291909101810151600084815280835260408082206001600160a01b038e168352909352919091205490915081811015610bf55760405162461bcd60e51b81526004016103f5906120c6565b6000838152602081815260408083206001600160a01b038e8116855292528083208585039055908b16825281208054849290610c32908490611fae565b9250508190555050505080610c469061202e565b9050610b6a565b50846001600160a01b0316866001600160a01b0316826001600160a01b03167f4a39dc06d4c0dbc64b70af90fd698a233a518aa5d07e595d983b8c0526c8f7fb8787604051610c9d929190612110565b60405180910390a4610cb381878787878761104d565b505050505050565b600080610cc7846111b8565b90506000610cd58285611262565b95945050505050565b6001600160a01b038416610d3e5760405162461bcd60e51b815260206004820152602160248201527f455243313135353a206d696e7420746f20746865207a65726f206164647265736044820152607360f81b60648201526084016103f5565b33610d5881600087610d4f8861127e565b6106598861127e565b6000848152602081815260408083206001600160a01b038916845290915281208054859290610d88908490611fae565b909155505060408051858152602081018590526001600160a01b0380881692600092918516917fc3d58168c5ae7397731d063d5bbf3d657854427343f4c083240f7aacaa2d0f62910160405180910390a4610659816000878787876112c9565b6000828152600760209081526040909120825161083092840190611855565b6001600160a01b038416610e2d5760405162461bcd60e51b81526004016103f590612081565b33610e3d818787610d4f8861127e565b6000848152602081815260408083206001600160a01b038a16845290915290205483811015610e7e5760405162461bcd60e51b81526004016103f5906120c6565b6000858152602081815260408083206001600160a01b038b8116855292528083208785039055908816825281208054869290610ebb908490611fae565b909155505060408051868152602081018690526001600160a01b03808916928a821692918616917fc3d58168c5ae7397731d063d5bbf3d657854427343f4c083240f7aacaa2d0f62910160405180910390a4610f1b8288888888886112c9565b50505050505050565b6040805180820182526001600160a01b03938416815260208082019384526000958652600390529320925183546001600160a01b031916921691909117825551600190910155565b816001600160a01b0316836001600160a01b03161415610fe05760405162461bcd60e51b815260206004820152602960248201527f455243313135353a2073657474696e6720617070726f76616c20737461747573604482015268103337b91039b2b63360b91b60648201526084016103f5565b6001600160a01b03838116600081815260016020908152604080832094871680845294825291829020805460ff191686151590811790915591519182527f17307eab39ab6107e8899845ad3d59bd9653f200f220920489ca2b5937696c31910160405180910390a3505050565b6001600160a01b0384163b15610cb35760405163bc197c8160e01b81526001600160a01b0385169063bc197c81906110919089908990889088908890600401612135565b602060405180830381600087803b1580156110ab57600080fd5b505af19250505080156110db575060408051601f3d908101601f191682019092526110d891810190612193565b60015b611188576110e76121b0565b806308c379a0141561112157506110fc6121cb565b806111075750611123565b8060405162461bcd60e51b81526004016103f591906119bb565b505b60405162461bcd60e51b815260206004820152603460248201527f455243313135353a207472616e7366657220746f206e6f6e20455243313135356044820152732932b1b2b4bb32b91034b6b83632b6b2b73a32b960611b60648201526084016103f5565b6001600160e01b0319811663bc197c8160e01b14610f1b5760405162461bcd60e51b81526004016103f590612255565b60006104507f6cf97a08777901d979619097a727a7cc1e04294e4d07893d33722e59f634b0e98335602085013560408601356111f76060880188611f67565b60405161120592919061229d565b604051908190038120611247959493929160808a013590602001958652602086019490945260408501929092526060840152608083015260a082015260c00190565b60405160208183030381529060405280519060200120611393565b600080600061127185856113e1565b9150915061095781611451565b604080516001808252818301909252606091600091906020808301908036833701905050905082816000815181106112b8576112b8612018565b602090810291909101015292915050565b6001600160a01b0384163b15610cb35760405163f23a6e6160e01b81526001600160a01b0385169063f23a6e619061130d90899089908890889088906004016122ad565b602060405180830381600087803b15801561132757600080fd5b505af1925050508015611357575060408051601f3d908101601f1916820190925261135491810190612193565b60015b611363576110e76121b0565b6001600160e01b0319811663f23a6e6160e01b14610f1b5760405162461bcd60e51b81526004016103f590612255565b60006104506113a061160f565b8360405161190160f01b6020820152602281018390526042810182905260009060620160405160208183030381529060405280519060200120905092915050565b6000808251604114156114185760208301516040840151606085015160001a61140c87828585611739565b9450945050505061144a565b8251604014156114425760208301516040840151611437868383611826565b93509350505061144a565b506000905060025b9250929050565b6000816004811115611465576114656122f2565b141561146e5750565b6001816004811115611482576114826122f2565b14156114d05760405162461bcd60e51b815260206004820152601860248201527f45434453413a20696e76616c6964207369676e6174757265000000000000000060448201526064016103f5565b60028160048111156114e4576114e46122f2565b14156115325760405162461bcd60e51b815260206004820152601f60248201527f45434453413a20696e76616c6964207369676e6174757265206c656e6774680060448201526064016103f5565b6003816004811115611546576115466122f2565b141561159f5760405162461bcd60e51b815260206004820152602260248201527f45434453413a20696e76616c6964207369676e6174757265202773272076616c604482015261756560f01b60648201526084016103f5565b60048160048111156115b3576115b36122f2565b141561160c5760405162461bcd60e51b815260206004820152602260248201527f45434453413a20696e76616c6964207369676e6174757265202776272076616c604482015261756560f01b60648201526084016103f5565b50565b6000306001600160a01b037f00000000000000000000000000000000000000000000000000000000000000001614801561166857507f000000000000000000000000000000000000000000000000000000000000000046145b1561169257507f000000000000000000000000000000000000000000000000000000000000000090565b50604080517f00000000000000000000000000000000000000000000000000000000000000006020808301919091527f0000000000000000000000000000000000000000000000000000000000000000828401527f000000000000000000000000000000000000000000000000000000000000000060608301524660808301523060a0808401919091528351808403909101815260c0909201909252805191012090565b90565b6000807f7fffffffffffffffffffffffffffffff5d576e7357a4501ddfe92f46681b20a0831115611770575060009050600361181d565b8460ff16601b1415801561178857508460ff16601c14155b15611799575060009050600461181d565b6040805160008082526020820180845289905260ff881692820192909252606081018690526080810185905260019060a0016020604051602081039080840390855afa1580156117ed573d6000803e3d6000fd5b5050604051601f1901519150506001600160a01b0381166118165760006001925092505061181d565b9150600090505b94509492505050565b6000806001600160ff1b03831660ff84901c601b0161184787828885611739565b935093505050935093915050565b82805461186190611ed5565b90600052602060002090601f01602090048101928261188357600085556118c9565b82601f1061189c57805160ff19168380011785556118c9565b828001600101855582156118c9579182015b828111156118c95782518255916020019190600101906118ae565b506118d59291506118d9565b5090565b5b808211156118d557600081556001016118da565b80356001600160a01b038116811461190557600080fd5b919050565b6000806040838503121561191d57600080fd5b611926836118ee565b946020939093013593505050565b6001600160e01b03198116811461160c57600080fd5b60006020828403121561195c57600080fd5b813561196781611934565b9392505050565b6000815180845260005b8181101561199457602081850181015186830182015201611978565b818111156119a6576000602083870101525b50601f01601f19169290920160200192915050565b602081526000611967602083018461196e565b6000602082840312156119e057600080fd5b5035919050565b600080604083850312156119fa57600080fd5b50508035926020909101359150565b634e487b7160e01b600052604160045260246000fd5b601f8201601f1916810167ffffffffffffffff81118282101715611a4557611a45611a09565b6040525050565b600067ffffffffffffffff821115611a6657611a66611a09565b5060051b60200190565b600082601f830112611a8157600080fd5b81356020611a8e82611a4c565b604051611a9b8282611a1f565b83815260059390931b8501820192828101915086841115611abb57600080fd5b8286015b84811015611ad65780358352918301918301611abf565b509695505050505050565b600067ffffffffffffffff831115611afb57611afb611a09565b604051611b12601f8501601f191660200182611a1f565b809150838152848484011115611b2757600080fd5b83836020830137600060208583010152509392505050565b600082601f830112611b5057600080fd5b61196783833560208501611ae1565b600080600080600060a08688031215611b7757600080fd5b611b80866118ee565b9450611b8e602087016118ee565b9350604086013567ffffffffffffffff80821115611bab57600080fd5b611bb789838a01611a70565b94506060880135915080821115611bcd57600080fd5b611bd989838a01611a70565b93506080880135915080821115611bef57600080fd5b50611bfc88828901611b3f565b9150509295509295909350565b600080600060608486031215611c1e57600080fd5b611c27846118ee565b9250602084013567ffffffffffffffff80821115611c4457600080fd5b9085019060a08288031215611c5857600080fd5b90925060408501359080821115611c6e57600080fd5b50611c7b86828701611b3f565b9150509250925092565b60008060408385031215611c9857600080fd5b823567ffffffffffffffff80821115611cb057600080fd5b818501915085601f830112611cc457600080fd5b81356020611cd182611a4c565b604051611cde8282611a1f565b83815260059390931b8501820192828101915089841115611cfe57600080fd5b948201945b83861015611d2357611d14866118ee565b82529482019490820190611d03565b96505086013592505080821115611d3957600080fd5b50611d4685828601611a70565b9150509250929050565b600081518084526020808501945080840160005b83811015611d8057815187529582019590820190600101611d64565b509495945050505050565b6020815260006119676020830184611d50565b60008060408385031215611db157600080fd5b611dba836118ee565b915060208301358015158114611dcf57600080fd5b809150509250929050565b60008060008060808587031215611df057600080fd5b8435935060208501359250604085013567ffffffffffffffff811115611e1557600080fd5b8501601f81018713611e2657600080fd5b611e3587823560208401611ae1565b949793965093946060013593505050565b60008060408385031215611e5957600080fd5b611e62836118ee565b91506105c0602084016118ee565b600080600080600060a08688031215611e8857600080fd5b611e91866118ee565b9450611e9f602087016118ee565b93506040860135925060608601359150608086013567ffffffffffffffff811115611ec957600080fd5b611bfc88828901611b3f565b600181811c90821680611ee957607f821691505b60208210811415611f0a57634e487b7160e01b600052602260045260246000fd5b50919050565b634e487b7160e01b600052601160045260246000fd5b6000816000190483118215151615611f4057611f40611f10565b500290565b600082611f6257634e487b7160e01b600052601260045260246000fd5b500490565b6000808335601e19843603018112611f7e57600080fd5b83018035915067ffffffffffffffff821115611f9957600080fd5b60200191503681900382131561144a57600080fd5b60008219821115611fc157611fc1611f10565b500190565b6001600160a01b0386168152602081018590526080604082018190528101839052828460a0830137600060a08483010152600060a0601f19601f86011683010190508260608301529695505050505050565b634e487b7160e01b600052603260045260246000fd5b600060001982141561204257612042611f10565b5060010190565b60018060a01b0385168152836020820152608060408201526000612070608083018561196e565b905082606083015295945050505050565b60208082526025908201527f455243313135353a207472616e7366657220746f20746865207a65726f206164604082015264647265737360d81b606082015260800190565b6020808252602a908201527f455243313135353a20696e73756666696369656e742062616c616e636520666f60408201526939103a3930b739b332b960b11b606082015260800190565b6040815260006121236040830185611d50565b8281036020840152610cd58185611d50565b6001600160a01b0386811682528516602082015260a06040820181905260009061216190830186611d50565b82810360608401526121738186611d50565b90508281036080840152612187818561196e565b98975050505050505050565b6000602082840312156121a557600080fd5b815161196781611934565b600060033d11156117365760046000803e5060005160e01c90565b600060443d10156121d95790565b6040516003193d81016004833e81513d67ffffffffffffffff816024840111818411171561220957505050505090565b82850191508151818111156122215750505050505090565b843d870101602082850101111561223b5750505050505090565b61224a60208286010187611a1f565b509095945050505050565b60208082526028908201527f455243313135353a204552433131353552656365697665722072656a656374656040820152676420746f6b656e7360c01b606082015260800190565b8183823760009101908152919050565b6001600160a01b03868116825285166020820152604081018490526060810183905260a0608082018190526000906122e79083018461196e565b979650505050505050565b634e487b7160e01b600052602160045260246000fdfea2646970667358221220a37a95d8880ca860f31e83886866c53ceab512929e1cc91247bbbdd3354c556764736f6c63430008090033",
  "linkReferences": {},
  "deployedLinkReferences": {}
}