{
  "_format": "hh-sol-artifact-1",
  "contractName": "FixedPriceMarketPlace",
  "sourceName": "contracts/ERC1155Market.sol",
  "abi": [
    {
      "inputs": [],
      "stateMutability": "nonpayable",
      "type": "constructor"
    },
    {
      "anonymous": false,
      "inputs": [
        {
          "indexed": true,
          "internalType": "uint256",
          "name": "itemId",
          "type": "uint256"
        },
        {
          "indexed": true,
          "internalType": "uint256",
          "name": "tokenId",
          "type": "uint256"
        },
        {
          "indexed": false,
          "internalType": "address",
          "name": "seller",
          "type": "address"
        },
        {
          "indexed": false,
          "internalType": "uint256",
          "name": "price",
          "type": "uint256"
        },
        {
          "indexed": false,
          "internalType": "uint256",
          "name": "timestamp",
          "type": "uint256"
        }
      ],
      "name": "MarketItemCreated",
      "type": "event"
    },
    {
      "anonymous": false,
      "inputs": [
        {
          "indexed": false,
          "internalType": "uint256",
          "name": "itemId",
          "type": "uint256"
        },
        {
          "indexed": false,
          "internalType": "uint256",
          "name": "newPrice",
          "type": "uint256"
        }
      ],
      "name": "MarketItemPriceChanged",
      "type": "event"
    },
    {
      "anonymous": false,
      "inputs": [
        {
          "indexed": true,
          "internalType": "uint256",
          "name": "itemId",
          "type": "uint256"
        },
        {
          "indexed": true,
          "internalType": "uint256",
          "name": "tokenId",
          "type": "uint256"
        },
        {
          "indexed": false,
          "internalType": "address",
          "name": "seller",
          "type": "address"
        },
        {
          "indexed": false,
          "internalType": "address",
          "name": "buyer",
          "type": "address"
        },
        {
          "indexed": false,
          "internalType": "uint256",
          "name": "amount",
          "type": "uint256"
        }
      ],
      "name": "MarketItemSold",
      "type": "event"
    },
    {
      "anonymous": false,
      "inputs": [
        {
          "indexed": false,
          "internalType": "address",
          "name": "from",
          "type": "address"
        },
        {
          "indexed": false,
          "internalType": "address",
          "name": "to",
          "type": "address"
        },
        {
          "indexed": false,
          "internalType": "uint256",
          "name": "amount",
          "type": "uint256"
        }
      ],
      "name": "MoneyTransferred",
      "type": "event"
    },
    {
      "anonymous": false,
      "inputs": [
        {
          "indexed": false,
          "internalType": "address",
          "name": "from",
          "type": "address"
        },
        {
          "indexed": false,
          "internalType": "address",
          "name": "to",
          "type": "address"
        },
        {
          "indexed": false,
          "internalType": "uint256",
          "name": "tokenId",
          "type": "uint256"
        },
        {
          "indexed": false,
          "internalType": "uint256",
          "name": "amount",
          "type": "uint256"
        }
      ],
      "name": "NFTTransferred",
      "type": "event"
    },
    {
      "anonymous": false,
      "inputs": [
        {
          "indexed": true,
          "internalType": "address",
          "name": "previousOwner",
          "type": "address"
        },
        {
          "indexed": true,
          "internalType": "address",
          "name": "newOwner",
          "type": "address"
        }
      ],
      "name": "OwnershipTransferred",
      "type": "event"
    },
    {
      "inputs": [
        {
          "internalType": "uint256",
          "name": "_itemId",
          "type": "uint256"
        },
        {
          "internalType": "uint256",
          "name": "_newPrice",
          "type": "uint256"
        }
      ],
      "name": "changeMarketItemPrice",
      "outputs": [],
      "stateMutability": "nonpayable",
      "type": "function"
    },
    {
      "inputs": [
        {
          "internalType": "uint8",
          "name": "_marketPlaceShare",
          "type": "uint8"
        }
      ],
      "name": "changeMarketPlaceShare",
      "outputs": [],
      "stateMutability": "nonpayable",
      "type": "function"
    },
    {
      "inputs": [
        {
          "internalType": "uint256",
          "name": "tokenId",
          "type": "uint256"
        },
        {
          "internalType": "uint256",
          "name": "price",
          "type": "uint256"
        },
        {
          "internalType": "uint256",
          "name": "amount",
          "type": "uint256"
        },
        {
          "internalType": "bytes",
          "name": "data",
          "type": "bytes"
        }
      ],
      "name": "createMarketItem",
      "outputs": [
        {
          "internalType": "uint256",
          "name": "",
          "type": "uint256"
        }
      ],
      "stateMutability": "payable",
      "type": "function"
    },
    {
      "inputs": [
        {
          "internalType": "uint256",
          "name": "itemId",
          "type": "uint256"
        },
        {
          "internalType": "uint256",
          "name": "amount",
          "type": "uint256"
        },
        {
          "internalType": "bytes",
          "name": "data",
          "type": "bytes"
        }
      ],
      "name": "createMarketSale",
      "outputs": [],
      "stateMutability": "payable",
      "type": "function"
    },
    {
      "inputs": [
        {
          "internalType": "uint256",
          "name": "_marketItemId",
          "type": "uint256"
        }
      ],
      "name": "getMarketItemPrice",
      "outputs": [
        {
          "internalType": "uint256",
          "name": "",
          "type": "uint256"
        }
      ],
      "stateMutability": "view",
      "type": "function"
    },
    {
      "inputs": [
        {
          "internalType": "address",
          "name": "_NFTationContract",
          "type": "address"
        },
        {
          "internalType": "uint8",
          "name": "marketPlaceSharePercentage",
          "type": "uint8"
        }
      ],
      "name": "initToken",
      "outputs": [],
      "stateMutability": "nonpayable",
      "type": "function"
    },
    {
      "inputs": [],
      "name": "owner",
      "outputs": [
        {
          "internalType": "address",
          "name": "",
          "type": "address"
        }
      ],
      "stateMutability": "view",
      "type": "function"
    },
    {
      "inputs": [],
      "name": "renounceOwnership",
      "outputs": [],
      "stateMutability": "nonpayable",
      "type": "function"
    },
    {
      "inputs": [
        {
          "internalType": "address",
          "name": "newOwner",
          "type": "address"
        }
      ],
      "name": "transferOwnership",
      "outputs": [],
      "stateMutability": "nonpayable",
      "type": "function"
    }
  ],
  "bytecode": "0x608060405234801561001057600080fd5b50600160005561001f33610024565b610076565b600180546001600160a01b038381166001600160a01b0319831681179093556040519116919082907f8be0079c531659141344cd1fd0a4f28419497f9722a3daafe3b4186f6b6457e090600090a35050565b611002806100856000396000f3fe6080604052600436106100865760003560e01c806399540b511161005957806399540b511461012d578063a1e0056114610140578063f2fde38b14610153578063f65ec50014610173578063f7cb79da1461019357600080fd5b806301648be91461008b578063715018a6146100ad5780637e9a08c6146100c25780638da5cb5b14610105575b600080fd5b34801561009757600080fd5b506100ab6100a6366004610c6b565b6101b3565b005b3480156100b957600080fd5b506100ab610206565b3480156100ce57600080fd5b506100f26100dd366004610c8d565b60009081526005602052604090206003015490565b6040519081526020015b60405180910390f35b34801561011157600080fd5b506001546040516001600160a01b0390911681526020016100fc565b6100ab61013b366004610d49565b61023c565b6100f261014e366004610d99565b6106d5565b34801561015f57600080fd5b506100ab61016e366004610e08565b610950565b34801561017f57600080fd5b506100ab61018e366004610e25565b6109eb565b34801561019f57600080fd5b506100ab6101ae366004610e5a565b610a44565b6001546001600160a01b031633146101e65760405162461bcd60e51b81526004016101dd90610e7c565b60405180910390fd5b6004805460ff909216600160a01b0260ff60a01b19909216919091179055565b6001546001600160a01b031633146102305760405162461bcd60e51b81526004016101dd90610e7c565b61023a6000610b42565b565b6002600054141561028f5760405162461bcd60e51b815260206004820152601f60248201527f5265656e7472616e637947756172643a207265656e7472616e742063616c6c0060448201526064016101dd565b6002600090815583815260056020526040812060038101549091906102b5908590610ec7565b905060008260010154905060008584600501546102d29190610ee6565b90508234146103345760405162461bcd60e51b815260206004820152602860248201527f596f752073686f756c6420696e636c75646520746865207072696365206f6620604482015267746865206974656d60c01b60648201526084016101dd565b60028401546001600160a01b031633141561039c5760405162461bcd60e51b815260206004820152602260248201527f73656c6c65722063616e206e6f742062757920697473206f776e656420746f6b60448201526132b760f11b60648201526084016101dd565b60008060006103ab8587610b94565b92509250925083600014156103dd5760048701805461ffff191660011790556103d8600380546001019055565b6103ef565b60048701805461ffff19166101001790555b60048701805461ffff1916600117905561040d600380546001019055565b60006104216001546001600160a01b031690565b6001600160a01b03168460405160006040518083038185875af1925050503d806000811461046b576040519150601f19603f3d011682016040523d82523d6000602084013e610470565b606091505b5050809150508061048057600080fd5b82156104e4576040516001600160a01b038316908490600081818185875af1925050503d80600081146104cf576040519150601f19603f3d011682016040523d82523d6000602084013e6104d4565b606091505b505080915050806104e457600080fd5b6000836104f1868a610ee6565b6104fb9190610ee6565b60028a01546040519192506001600160a01b0316908290600081818185875af1925050503d806000811461054b576040519150601f19603f3d011682016040523d82523d6000602084013e610550565b606091505b5050809250508161056057600080fd5b600460009054906101000a90046001600160a01b03166001600160a01b031663f242432a30338a8f8f6040518663ffffffff1660e01b81526004016105a9959493929190610efd565b600060405180830381600087803b1580156105c357600080fd5b505af11580156105d7573d6000803e3d6000fd5b505050506002890154604080513381526001600160a01b03909216602083015281018290527fa1d7584d99165acdda7faf8e4dd6f4a82d358341586d4d953060fb95c3f31e6f9060600160405180910390a160408051308152336020820152908101889052606081018c90527fe85924fec68775525e5b7f8646261563e26e6b838e6c46e8d053d0bc623b88159060800160405180910390a16002890154604080516001600160a01b03909216825233602083015281018c905287908d907f458478e87af2f8355f5200460431fb85259efefed716e75b487251ae55fe04e09060600160405180910390a35050600160005550505050505050505050565b60006002600054141561072a5760405162461bcd60e51b815260206004820152601f60248201527f5265656e7472616e637947756172643a207265656e7472616e742063616c6c0060448201526064016101dd565b60026000558361077c5760405162461bcd60e51b815260206004820152601c60248201527f7072696365206d7573742062652067726561746572207468616e20300000000060448201526064016101dd565b61078a600280546001019055565b600061079560025490565b90506040518060e00160405280828152602001878152602001336001600160a01b031681526020018681526020016000151581526020016001151581526020018581525060056000838152602001908152602001600020600082015181600001556020820151816001015560408201518160020160006101000a8154816001600160a01b0302191690836001600160a01b031602179055506060820151816003015560808201518160040160006101000a81548160ff02191690831515021790555060a08201518160040160016101000a81548160ff02191690831515021790555060c08201518160050155905050600460009054906101000a90046001600160a01b03166001600160a01b031663f242432a33308988886040518663ffffffff1660e01b81526004016108cd959493929190610efd565b600060405180830381600087803b1580156108e757600080fd5b505af11580156108fb573d6000803e3d6000fd5b50506040805133815260208101899052428183015290518993508492507f117136b53832b5e8bbde1e9e2b7e283939a09b780c150657c0fb8f2d9fff21479181900360600190a3600160005595945050505050565b6001546001600160a01b0316331461097a5760405162461bcd60e51b81526004016101dd90610e7c565b6001600160a01b0381166109df5760405162461bcd60e51b815260206004820152602660248201527f4f776e61626c653a206e6577206f776e657220697320746865207a65726f206160448201526564647265737360d01b60648201526084016101dd565b6109e881610b42565b50565b6001546001600160a01b03163314610a155760405162461bcd60e51b81526004016101dd90610e7c565b6004805460ff909216600160a01b026001600160a81b03199092166001600160a01b0390931692909217179055565b60008281526005602052604090206004810154610100900460ff16610aa15760405162461bcd60e51b8152602060048201526013602482015272496e76616c6964206d61726b6574206974656d60681b60448201526064016101dd565b60028101546001600160a01b03163314610afd5760405162461bcd60e51b815260206004820152601c60248201527f4f6e6c792073656c6c65722063616e206368616e67652070726963650000000060448201526064016101dd565b6003810182905560408051848152602081018490527f9f7f3a0d2cdebf77b88fd30cf39db6676ba7bbe894bd756831e2cb17a6a20740910160405180910390a1505050565b600180546001600160a01b038381166001600160a01b0319831681179093556040519116919082907f8be0079c531659141344cd1fd0a4f28419497f9722a3daafe3b4186f6b6457e090600090a35050565b60045460009081908190606490610bb6908690600160a01b900460ff16610ec7565b610bc09190610f7c565b6004805460405163152a902d60e11b81529295506001600160a01b031691632a55205a91610bfb918991899101918252602082015260400190565b604080518083038186803b158015610c1257600080fd5b505afa158015610c26573d6000803e3d6000fd5b505050506040513d601f19601f82011682018060405250810190610c4a9190610f9e565b925090509250925092565b803560ff81168114610c6657600080fd5b919050565b600060208284031215610c7d57600080fd5b610c8682610c55565b9392505050565b600060208284031215610c9f57600080fd5b5035919050565b634e487b7160e01b600052604160045260246000fd5b600082601f830112610ccd57600080fd5b813567ffffffffffffffff80821115610ce857610ce8610ca6565b604051601f8301601f19908116603f01168101908282118183101715610d1057610d10610ca6565b81604052838152866020858801011115610d2957600080fd5b836020870160208301376000602085830101528094505050505092915050565b600080600060608486031215610d5e57600080fd5b8335925060208401359150604084013567ffffffffffffffff811115610d8357600080fd5b610d8f86828701610cbc565b9150509250925092565b60008060008060808587031215610daf57600080fd5b843593506020850135925060408501359150606085013567ffffffffffffffff811115610ddb57600080fd5b610de787828801610cbc565b91505092959194509250565b6001600160a01b03811681146109e857600080fd5b600060208284031215610e1a57600080fd5b8135610c8681610df3565b60008060408385031215610e3857600080fd5b8235610e4381610df3565b9150610e5160208401610c55565b90509250929050565b60008060408385031215610e6d57600080fd5b50508035926020909101359150565b6020808252818101527f4f776e61626c653a2063616c6c6572206973206e6f7420746865206f776e6572604082015260600190565b634e487b7160e01b600052601160045260246000fd5b6000816000190483118215151615610ee157610ee1610eb1565b500290565b600082821015610ef857610ef8610eb1565b500390565b600060018060a01b03808816835260208188168185015286604085015285606085015260a06080850152845191508160a085015260005b82811015610f505785810182015185820160c001528101610f34565b82811115610f6257600060c084870101525b5050601f01601f19169190910160c0019695505050505050565b600082610f9957634e487b7160e01b600052601260045260246000fd5b500490565b60008060408385031215610fb157600080fd5b8251610fbc81610df3565b602093909301519294929350505056fea26469706673582212207b74119ec1958e23b461bb46f81403ca8ff78ce1eadfa7c5909d70ed13cbfcb064736f6c63430008090033",
  "linkReferences": {},
  "deployedLinkReferences": {}
}